:020000040800F2
:1000000000C000203D7A00080147000803470008AF
:1000100005470008074700080947000800000000DE
:10002000000000000000000000000000915F0008D8
:100030000B470008000000003160000875600008F0
:10004000857A0008857A0008857A0008857A000894
:10005000857A0008857A0008857A0008857A000884
:10006000857A0008857A0008857A0008857A000874
:10007000857A0008857A0008857A0008857A000864
:10008000857A0008857A0008857A0008857A000854
:10009000857A0008857A0008857A0008857A000844
:1000A000857A0008857A0008857A0008857A000834
:1000B000857A0008857A0008857A0008857A000824
:1000C000857A0008857A0008857A0008857A000814
:1000D000857A0008857A0008857A0008857A000804
:1000E000857A0008857A0008857A0008857A0008F4
:1000F000857A0008857A0008857A0008857A0008E4
:10010000857A0008857A0008857A0008857A0008D3
:10011000857A0008857A00080D470008857A00086E
:10012000857A0008857A0008857A0008857A0008B3
:1001300000000000000000000000000000000000BF
:1001400000000000000000000000000000000000AF
:10015000000000000000000000000000000000009F
:10016000000000000000000000000000000000008F
:10017000000000000000000000000000000000007F
:10018000000000000000000000000000000000006F
:10019000000000000000000000000000000000005F
:1001A000000000000000000000000000000000004F
:1001B000000000000000000000000000000000003F
:1001C000000000000000000000000000000000002F
:1001D000000000000000000000000000000000001F
:0401E0005FF8E0F1F3
:1001F00010B5054C237833B9044B13B10448AFF361
:1002000000800123237010BDC00900200000000001
:10021000A0DA000808B5034B1BB103490348AFF34C
:10022000008008BD00000000C4090020A0DA00081A
:1002300081F0004102E000BF83F0004330B54FEA97
:1002400041044FEA430594EA050F08BF90EA020F04
:100250001FBF54EA000C55EA020C7FEA645C7FEA97
:10026000655C00F0E2804FEA5454D4EB5555B8BFBA
:100270006D420CDD2C4480EA020281EA030382EA2B
:10028000000083EA010180EA020281EA0303362DBD
:1002900088BF30BD11F0004F4FEA01314FF4801C90
:1002A0004CEA113102D0404261EB410113F0004FA2
:1002B0004FEA03334CEA133302D0524263EB430359
:1002C00094EA050F00F0A780A4F10104D5F1200EF7
:1002D0000DDB02FA0EFC22FA05F2801841F1000152
:1002E00003FA0EF2801843FA05F359410EE0A5F126
:1002F00020050EF1200E012A03FA0EFC28BF4CF057
:10030000020C43FA05F3C01851EBE37101F000450C
:1003100007D54FF0000EDCF1000C7EEB00006EEB19
:100320000101B1F5801F1BD3B1F5001F0CD34908A3
:100330005FEA30004FEA3C0C04F101044FEA4452FA
:1003400012F5800F80F09A80BCF1004F08BF5FEA81
:10035000500C50F1000041EB045141EA050130BD61
:100360005FEA4C0C404141EB0101013C28BFB1F573
:10037000801FE9D291F0000F04BF01460020B1FABE
:1003800081F308BF2033A3F10B03B3F120020CDA91
:100390000C3208DD02F1140CC2F10C0201FA0CF06F
:1003A00021FA02F10CE002F11402D8BFC2F1200CD4
:1003B00001FA02F120FA0CFCDCBF41EA0C0190408A
:1003C000E41AA2BF01EB0451294330BD6FEA0404D3
:1003D0001F3C1CDA0C340EDC04F11404C4F12002BE
:1003E00020FA04F001FA02F340EA030021FA04F3D0
:1003F00045EA030130BDC4F10C04C4F1200220FA27
:1004000002F001FA04F340EA0300294630BD21FA64
:1004100004F0294630BD94F0000F83F4801306BF2A
:1004200081F480110134013D4EE77FEA645C18BF1E
:100430007FEA655C29D094EA050F08BF90EA020FB5
:1004400005D054EA000C04BF1946104630BD91EAAD
:10045000030F1EBF0021002030BD5FEA545C05D1B0
:100460004000494128BF41F0004130BD14F58004EF
:100470003CBF01F5801130BD01F0004545F0FE4163
:1004800041F470014FF0000030BD7FEA645C1ABF98
:10049000194610467FEA655C1CBF0B46024650EACF
:1004A000013406BF52EA033591EA030F41F40021FB
:1004B00030BD00BF90F0000F04BF0021704730B581
:1004C0004FF4806404F132044FF000054FF0000156
:1004D00050E700BF90F0000F04BF0021704730B517
:1004E0004FF4806404F1320410F0004548BF4042EC
:1004F0004FF000013EE700BF42004FEAE2014FEA41
:1005000031014FEA02701FBF12F07F4393F07F4F1B
:1005100081F06051704732F07F4208BF704793F01E
:100520007F4F04BF41F40021704730B54FF4607431
:1005300001F0004521F000411CE700BF50EA010234
:1005400008BF704730B54FF000050AE050EA0102DD
:1005500008BF704730B511F0004502D5404261EB4D
:1005600041014FF4806404F132045FEA915C3FF48E
:10057000D8AE4FF003025FEADC0C18BF03325FEA2B
:10058000DC0C18BF033202EBDC02C2F1200300FADC
:1005900003FC20FA02F001FA03FE40EA0E0021FA01
:1005A00002F11444BDE600BF4A0011D212F5001258
:1005B00011D20DD56FF47873B3EB62520ED44FEABB
:1005C000C12343F0004343EA505323FA02F070473B
:1005D0004FF00000704750EA013002D14FF0FF3079
:1005E00070474FF000007047844641EA000313F063
:1005F000030349D1403A23D30B6803604B6843603F
:100600008B688360CB68C3600B6903614B6943618E
:100610008B698361CB69C3610B6A03624B6A436276
:100620008B6A8362CB6AC3620B6B03634B6B43635E
:100630008B6B8363CB6BC36340304031403ADBD27A
:1006400030320BD30B6803604B6843608B68836068
:10065000CB68C36010301031103AF3D20C3205D39E
:1006600051F8043B40F8043B043AF9D2043208D074
:10067000D2071CBF11F8013B00F8013B01D30B88E6
:1006800003806046704700BF082A13D38B07B1D0A0
:1006900010F00303AED0C3F10403D21ADB071CBF72
:1006A00011F8013B00F8013BA4D331F8023B20F8DC
:1006B000023B9FE7043AD9D3013A11F8013B00F815
:1006C000013BF9D20B7803704B7843708B788370C1
:1006D0006046704770B54FF0FF0C4CF4E06C1CEABC
:1006E00011541DBF1CEA135594EA0C0F95EA0C0F28
:1006F00000F0DEF82C4481EA030621EA4C5123EA9B
:100700004C5350EA013518BF52EA033541F48011C9
:1007100043F4801338D0A0FB02CE4FF00005E1FB7C
:1007200002E506F00042E0FB03E54FF00006E1FBC6
:1007300003569CF0000F18BF4EF0010EA4F1FF0409
:10074000B6F5007F64F5407404D25FEA4E0E6D4149
:1007500046EB060642EAC62141EA55514FEAC5205A
:1007600040EA5E504FEACE2EB4F1FD0C88BFBCF5D6
:10077000E06F1ED8BEF1004F08BF5FEA500E50F187
:10078000000041EB045170BD06F0004646EA01014D
:1007900040EA020081EA0301B4EB5C04C2BFD4EB7F
:1007A0000C0541EA045170BD41F480114FF0000E78
:1007B000013C00F3AB8014F1360FDEBF002001F0E6
:1007C000004170BDC4F10004203C35DA0C341BDC60
:1007D00004F11404C4F1200500FA05F320FA04F032
:1007E00001FA05F240EA020001F0004221F0004166
:1007F00010EBD37021FA04F642EB06015EEA430ED9
:1008000008BF20EAD37070BDC4F10C04C4F1200508
:1008100000FA04F320FA05F001FA04F240EA0200BB
:1008200001F0004110EBD37041F100015EEA430E8C
:1008300008BF20EAD37070BDC4F1200500FA05F2AC
:100840004EEA020E20FA04F301FA05F243EA02032B
:1008500021FA04F001F0004121FA04F220EA02003A
:1008600000EBD3705EEA430E08BF20EAD37070BD80
:1008700094F0000F0FD101F00046400041EB010160
:1008800011F4801F08BF013CF7D041EA060195F042
:10089000000F18BF704703F00046520043EB0303FC
:1008A00013F4801F08BF013DF7D043EA06037047E9
:1008B00094EA0C0F0CEA135518BF95EA0C0F0CD0F4
:1008C00050EA410618BF52EA4306D1D181EA03013A
:1008D00001F000414FF0000070BD50EA410606BF34
:1008E0001046194652EA430619D094EA0C0F02D179
:1008F00050EA013613D195EA0C0F05D152EA0336BE
:100900001CBF104619460AD181EA030101F00041DB
:1009100041F0FE4141F470014FF0000070BD41F024
:10092000FE4141F4780170BD70B54FF0FF0C4CF4FE
:10093000E06C1CEA11541DBF1CEA135594EA0C0F1D
:1009400095EA0C0F00F0A7F8A4EB050481EA030E6A
:1009500052EA03354FEA013100F088804FEA033351
:100960004FF0805545EA131343EA12634FEA02221F
:1009700045EA111545EA10654FEA00260EF00041E0
:100980009D4208BF964244F1FD0404F5407402D232
:100990005B084FEA3202B61A65EB03055B084FEAC3
:1009A00032024FF480104FF4002CB6EB020E75EBC0
:1009B000030E22BFB61A754640EA0C005B084FEAE8
:1009C0003202B6EB020E75EB030E22BFB61A754665
:1009D00040EA5C005B084FEA3202B6EB020E75EBB0
:1009E000030E22BFB61A754640EA9C005B084FEA28
:1009F0003202B6EB020E75EB030E22BFB61A754635
:100A000040EADC0055EA060E18D04FEA051545EA23
:100A100016754FEA06164FEAC30343EA52734FEACC
:100A2000C2025FEA1C1CC0D111F4801F0BD141EA45
:100A300000014FF000004FF0004CB6E711F4801FAA
:100A400004BF01430020B4F1FD0C88BFBCF5E06F8A
:100A50003FF6AFAEB5EB030C04BFB6EB020C5FEA9A
:100A6000500C50F1000041EB045170BD0EF0004EEF
:100A70004EEA113114EB5C04C2BFD4EB0C0541EA21
:100A8000045170BD41F480114FF0000E013C90E61E
:100A900045EA060E8DE60CEA135594EA0C0F08BFE2
:100AA00095EA0C0F3FF43BAF94EA0C0F0AD150EAE1
:100AB00001347FF434AF95EA0C0F7FF425AF104674
:100AC00019462CE795EA0C0F06D152EA03353FF49C
:100AD000FDAE1046194622E750EA410618BF52EA19
:100AE00043067FF4C5AE50EA41047FF40DAF52EAED
:100AF00043057FF4EBAE12E74FF0FF3C06E000BF8A
:100B00004FF0010C02E000BF4FF0010C4DF804CD96
:100B10004FEA410C7FEA6C5C4FEA430C18BF7FEA56
:100B20006C5C1BD001B050EA410C0CBF52EA430C84
:100B300091EA030F02BF90EA020F0020704710F104
:100B4000000F91EA030F58BF994208BF90422CBF93
:100B5000D8176FEAE37040F0010070474FEA410C8C
:100B60007FEA6C5C02D150EA013C07D14FEA430CAA
:100B70007FEA6C5CD6D152EA033CD3D05DF8040B1B
:100B8000704700BF8446104662468C46194663464D
:100B900000E000BF01B5FFF7B7FF002848BF10F124
:100BA000000F01BD4DF808EDFFF7F4FF0CBF012069
:100BB00000205DF808FB00BF4DF808EDFFF7EAFFE5
:100BC00034BF012000205DF808FB00BF4DF808EDA0
:100BD000FFF7E0FF94BF012000205DF808FB00BF95
:100BE0004DF808EDFFF7CEFF94BF012000205DF81F
:100BF00008FB00BF4DF808EDFFF7C4FF34BF01202C
:100C000000205DF808FB00BF4FEA410C7FEA6C5CF6
:100C100002D150EA013C0AD14FEA430C7FEA6C5CF6
:100C200002D152EA033C02D14FF0000070474FF06E
:100C3000010070474FEA410212F5001215D211D59A
:100C40006FF47873B3EB625212D94FEAC12343F0C9
:100C5000004343EA505311F0004F23FA02F018BF4B
:100C6000404270474FF00000704750EA013005D114
:100C700011F0004008BF6FF0004070474FF00000D7
:100C8000704700BF53B94AB9002908BF00281CBFEC
:100C90004FF0FF314FF0FF3000F076B9ADF1080CA6
:100CA0006DE904CE00F006F8DDF804E0DDE902238A
:100CB00004B070472DE9F047089E0D46044688466B
:100CC000002B4DD18A42944668D9B2FA82F252B1D1
:100CD00001FA02F3C2F1200120FA01F10CFA02FC40
:100CE00041EA030894404FEA1C41B8FBF1F71FFAB0
:100CF0008CFE01FB178807FB0EF0230C43EA084328
:100D000098420AD91CEB030307F1FF3580F01E81DE
:100D1000984240F21B81023F63441B1AB3FBF1F07F
:100D200001FB103300FB0EFEA4B244EA0344A645C7
:100D30000AD91CEB040400F1FF3380F00981A645B9
:100D400040F20681644402380021A4EB0E0440EA1C
:100D500007401EB10023D440C6E90043BDE8F08738
:100D60008B4208D9002E00F0EE800021C6E9000574
:100D70000846BDE8F087B3FA83F100294AD1AB42B7
:100D800002D3824200F2FC80841A65EB0303012047
:100D90009846002EE2D0C6E90048DFE702B9FFDE40
:100DA000B2FA82F2002A40F09180A1EB0C000121FE
:100DB0004FEA1C471FFA8CFEB0FBF7F307FB13004A
:100DC000250C45EA00450EFB03F0A84208D91CEBB0
:100DD000050503F1FF3802D2A84200F2CE80434657
:100DE0002D1AB5FBF7F007FB10550EFB00FEA4B261
:100DF00044EA0544A64508D91CEB040400F1FF357C
:100E000002D2A64500F2B6802846A4EB0E0440EAC2
:100E100003409EE7C1F120078B4022FA07FC4CEA11
:100E2000030C25FA07FA4FEA1C49BAFBF9F820FA35
:100E300007F309FB18AA8D401FFA8CFE1D4300FA28
:100E400001F308FB0EF02C0C44EA0A44A04202FA1B
:100E500001F20BD91CEB040408F1FF3A80F0888002
:100E6000A04240F28580A8F102086444241AB4FB31
:100E7000F9F009FB104400FB0EFEADB245EA044454
:100E8000A64508D91CEB040400F1FF356CD2A64539
:100E90006AD90238644440EA0840A0FB0295A4EBFA
:100EA0000E04AC42C846AE4656D353D0002E69D08D
:100EB000B3EB080264EB0E0422FA01F304FA07F71D
:100EC0001F43CC40C6E90074002147E70CFA02FC3E
:100ED000C2F1200125FA01F34FEA1C4720FA01F183
:100EE00095400D43B3FBF7F107FB11331FFA8CFE5E
:100EF000280C40EA034001FB0EF3834204FA02F49B
:100F000008D91CEB000001F1FF382FD283422DD904
:100F100002396044C01AB0FBF7F307FB1300ADB20F
:100F200045EA004503FB0EF0A84208D91CEB050575
:100F300003F1FF3816D2A84214D9023B6544281A9F
:100F400043EA014138E73146304607E72F46E4E6F9
:100F50001846F9E64B45A9D2B9EB020865EB0C0E31
:100F60000138A3E74346EAE7284694E74146D1E73C
:100F7000D0467BE76444023847E7023B65442FE7ED
:100F8000084606E73146E9E6704700BF00B585B080
:100F900000230193029303931048114A0260836077
:100FA000037303754FF46022C26143600123036140
:100FB00003F092FE60B9012301930293002303938F
:100FC00001A9064803F002FD28B905B05DF804FB4D
:100FD00003F0C4FAEFE703F0C1FAF6E7DC090020FA
:100FE0000024014000B587B00023029303930493CB
:100FF00005930268114B9A4202D007B05DF804FBDA
:1010000003F56C439A6942F400729A619A6902F49A
:1010100000720092009A9A6942F004029A619B69F8
:1010200003F004030193019B022302930323039320
:1010300002A9034803F03CFFDFE700BF00240140A2
:101040000008014010B586B01E4B01931024009497
:101050001823C82228210A2003F046FA1A4B0193CC
:1010600000941823C8223C210A2003F03DFA05F021
:10107000CBFF02901AE0204603F0A4FC40F6E442C5
:1010800000FB02F203AC120B1049204606F078FD7B
:101090000194102300931823C8223C217D2003F0E3
:1010A00023FA4FF4FA7102A806F0BCF8084C204667
:1010B00003F072FD6421204603F0C2FB0028DAD061
:1010C000EFE700BFB8DA0008D0DA0008E0DA00087D
:1010D000DC09002030B585B0314B4FF478421A80DE
:1010E000304B186806F02EFA02462F4D294602A80A
:1010F00006F046FD2D4B0193102400941823C822BE
:1011000050210A2003F0F0F9294B01930094182391
:10111000C82264210A2003F0E7F902AB019300948E
:101120001823C8226421084603F0DEF9214B186811
:1011300006F008FA0246294602A806F021FD1E4BD9
:10114000019300941823C82278210A2003F0CCF9D7
:1011500002AB019300941823C8227821642003F085
:10116000C3F9002401344FF48071144803F0C6FF22
:101170004FF4FA7006F0A8F80A2CF3D10024084BBB
:101180001C800F4B0193102300931823C8228C213D
:101190000A2003F0A9F9204605F084FE05B030BD11
:1011A000140A00200C0A0020E0DA0008E4DA000843
:1011B00000DB0008100A00200CDB000800080140DA
:1011C00018DB000808B5074A0021074804F0C8FDED
:1011D000064B1860064A0021064804F0C1FD064B84
:1011E000186008BD48DB0008451000080C0A002004
:1011F0006CDB0008D5100008100A00202DE9F04132
:1012000088B000240494059406940794204B9A69AE
:1012100042F010029A619A6902F010020192019A5A
:101220009A6942F020029A619A6902F020020292C1
:10123000029A9A6942F004029A619B6903F00403DE
:101240000393039BDFF84C8022464FF480714046A5
:1012500003F04EFF104D22460421284603F048FFBC
:101260004FF480730493012705970694022607968E
:1012700004A9404603F01CFE04230493059706943A
:10128000079604A9284603F013FE08B0BDE8F081D4
:10129000001002400008014000140140064B4FF4CA
:1012A00080725A614FF400725A610449C86080210B
:1012B000596119611A61704700100140000C01402A
:1012C000064B4FF480721A614FF400725A61044960
:1012D000C8608021596119611A617047001001408E
:1012E000000C014010B4104B4FF088321A605A6065
:1012F0000022DA6002F1804202F588324FF48071F8
:1013000011614FF400715161402454619868146177
:1013100011614FF033321A605A604FF6FF72DA6093
:1013200080B210BC704700BF000C014010B50C46E5
:10133000FFF7B4FF064B4FF480721A614FF400724E
:101340005A610449CC608021596119611A6110BD4C
:1013500000100140000C014008B5024B1889FFF74E
:101360009DFF08BD180A00202DE9F84F06460D46DE
:101370008E4B9B8841F66312934245D045F2105242
:10138000934200F0C780DFF824B2BBF80A00FFF7F1
:1013900085FF874C4FF4807AC4F810A04FF4007793
:1013A0006761330ADFF80C92C9F80C304FF08008FF
:1013B000C4F81480C4F810802761C4F810A06761D5
:1013C000F6B2C9F80C60C4F81480C4F81080276124
:1013D000BBF80C00FFF762FFC4F810A067612B0A8E
:1013E000C9F80C30C4F81480C4F810802761C4F820
:1013F00010A06761EDB2C9F80C50C4F81480C4F8AD
:1014000010802761BDE8F88F684B9B79002B54D181
:10141000664B1C88241AA4B2013CA4B25889FFF779
:101420003DFF634B4FF480761E614FF400725A61AA
:1014300060480027C7608021596119611A611E61E7
:101440005A61C760596119611A611E615A61270AA0
:10145000C760596119611A611E615A61E4B2C460C2
:10146000596119611A61514FB889FFF717FF504B45
:101470004FF480761E614FF400725A61290A4D4C78
:10148000E1608020586118611A611E615A61EDB2F5
:10149000E560586118611A611E615A6179880139E5
:1014A0000D12E560586118611A611E615A61C9B276
:1014B000E160586118611A61A4E7DFF8F080B8F8BC
:1014C0000A00FFF7EBFE3A4B4FF480771F614FF4B1
:1014D00000725A61310A374CE1608021596119610B
:1014E0001A611F615A61F6B2E660596119611A61A9
:1014F0001F615A61B8F8000001380612E6605961B0
:1015000019611A611F615A61C0B2E06059611961C5
:101510001A61A8E7DFF894B0BBF80A00FFF7BEFE37
:10152000234C4FF4807AC4F810A04FF40077676121
:10153000330ADFF88090C9F80C304FF08008C4F807
:101540001480C4F810802761BBF80A00013080B213
:10155000FFF7A4FEC4F810A06761F6B2C9F80C60EA
:10156000C4F81480C4F810802761BBF80C00FFF7A2
:1015700095FEC4F810A067612B0AC9F80C30C4F8B6
:101580001480C4F810802761BBF80C00013080B2D1
:10159000FFF784FEC4F810A06761EDB2C9F80C50E3
:1015A000C4F81480C4F8108027612BE7180A0020C3
:1015B00000100140000C01402DE9F0476A4B9B7977
:1015C000012B10D02BB9684B9A8841F663139A42CD
:1015D0000FD00138062800F2B880DFE800F0A8A696
:1015E000A4A2A09E1600604A918841F6631291421F
:1015F000E8D00728EDD8DFE800F0A6A4A0A20604F2
:101600009E9C002402E0802400E0E024564B9B884E
:1016100045F21052934200F09A80362049F241324E
:10162000934203D047F28972934201D144F00804F7
:101630002146FFF77BFE4C4B9B8841F66312934299
:101640000BD014F0200F00F08580474A1188528893
:10165000914202D244480280418045F210529342A6
:1016600000F08880DFF80091B9F80A00FFF716FE55
:101670003E4C4FF48078C4F810804FF400756561DB
:101680003B4F4FF0000AC7F80CA080266661266128
:101690002561C4F810806561C7F80CA066612661F9
:1016A0002561C4F810806561B9F80030013B1A1259
:1016B000FA60666126612561C4F810806561DBB25D
:1016C000FB60666126612561B9F80C00FFF7E6FD55
:1016D000C4F810806561C7F80CA0666126612561B9
:1016E000C4F810806561C7F80CA0666126612561A9
:1016F000C4F810806561B9F80230013B1A12FA6033
:10170000666126612561C4F810806561DBB2FB600B
:10171000666126612561BDE8F087A02476E7602434
:1017200074E7202472E7C02470E740246EE7802429
:101730006CE740246AE7C02468E7202466E7602459
:1017400064E7E02462E7A02460E700245EE74FF44A
:10175000585063E7044A1188528891427FF67DAF62
:1017600001480280418078E7180A002000100140FB
:10177000000C01403D4F7889FFF790FD3C4C4FF441
:101780008079C4F810904FF400756561DFF8E4804B
:101790004FF0000AC8F80CA080266661266125611A
:1017A0007889013080B2FFF779FDC4F81090656147
:1017B000C8F80CA06661266125617889023080B284
:1017C000FFF76CFDC4F8109065613B88013B1B126C
:1017D000C8F80C306661266125617889033080B2D3
:1017E000FFF75CFDC4F8109065613B88013BDBB2FC
:1017F000C8F80C30666126612561B889FFF74EFD97
:10180000C4F810906561C8F80CA066612661256176
:10181000B889013080B2FFF741FDC4F810906561CE
:10182000C8F80CA0666126612561B889023080B2D3
:10183000FFF734FDC4F8109065617B88013B1B12F3
:10184000C8F80C30666126612561B889033080B222
:10185000FFF724FDC4F8109065617B88013BDBB283
:10186000C8F80C3066612661256154E7180A00202B
:1018700000100140000C01402DE9F04F83B00546F7
:101880000E460192904B9B8845F21052934200F015
:101890008E8041F66312934240F0D5808A4B9B794B
:1018A0002BB9894B1888451BADB2013DADB2DFF8AD
:1018B0001892B9F80A00FFF7F1FC844C4FF4807BD2
:1018C000C4F810B04FF4007767612B0ADFF800A26C
:1018D000CAF80C304FF08008C4F81480C4F81080A7
:1018E0002761C4F810B06761EDB2CAF80C50C4F8B3
:1018F0001480C4F810802761C4F810B06761CAF87A
:101900000C30C4F81480C4F810802761C4F810B0FB
:101910006761CAF80C50C4F81480C4F810802761BD
:10192000B9F80C00FFF7BAFCC4F810B06761330ACD
:10193000CAF80C30C4F81480C4F810802761C4F8C9
:1019400010B06761F6B2CAF80C60C4F81480C4F82D
:1019500010802761C4F810B06761CAF80C30C4F871
:101960001480C4F810802761C4F810B06761CAF809
:101970000C60C4F81480C4F810802761534B4FF4F6
:1019800080745C614FF400725A614F490989504874
:10199000C1608021596119611A611C615A61019C01
:1019A000C460596119611A6103B0BDE8F08FDFF8B6
:1019B00018B1BBF80A00FFF771FC444C4FF4807A71
:1019C000C4F810A04FF4007767612B0ADFF800918C
:1019D000C9F80C304FF08008C4F81480C4F81080A7
:1019E0002761BBF80A00013080B2FFF757FCC4F84A
:1019F00010A06761EDB2C9F80C50C4F81480C4F8A7
:101A000010802761BBF80C00FFF748FCC4F810A059
:101A10006761330AC9F80C30C4F81480C4F8108028
:101A20002761BBF80C00013080B2FFF737FCC4F827
:101A300010A06761F6B2C9F80C60C4F81480C4F84D
:101A4000108027619AE7DFF88090B9F80A00FFF765
:101A500025FC1E4C4FF4807BC4F810B04FF4007787
:101A600067612B0ADFF868A0CAF80C304FF08008D5
:101A7000C4F81480C4F810802761C4F810B06761FE
:101A8000EDB2CAF80C50C4F81480C4F81080276175
:101A9000B9F80C00FFF702FCC4F810B06761330A14
:101AA000CAF80C30C4F81480C4F810802761C4F858
:101AB00010B06761F6B2CAF80C60C4F81480C4F8BC
:101AC000108027615AE700BF180A0020001001406B
:101AD000000C0140000000002DE9F8438146BE20C3
:101AE000FFF7DCFB224C4FF48078C4F810804FF4F1
:101AF000007565611F4F0523FB60802666612661C6
:101B00002561C4F8108065614846FEF7E3FC16A322
:101B1000D3E90023FEF7DEFDFEF746FDF8606661BF
:101B200026612561C4F8108065610123FB60666150
:101B300026612561C4F810806561FF23FB60666142
:101B400026612561C4F8108065610023FB60666131
:101B500026612561C4F810806561FB6066612661BD
:101B60002561BDE8F88300BF666666666666044068
:101B700000100140000C014008B5444B987100284A
:101B800043D1F0221A804FF4A0725A809B8845F20C
:101B90001052934212D041F6631293421FD03B4A37
:101BA0002C2111812A2151812B21918145F2103262
:101BB000934222D00020FFF7FFFC08BD334A4FF4C8
:101BC000305111814FF4285151814FF42C519181A2
:101BD0004FF4F07111804FF448715180E6E72B4AC1
:101BE0002C2111812B2151812A2191814FF4F071F7
:101BF00011804FF448715180D8E7244B4FF4A07204
:101C00001A804FF4F0725A80D4E7204B4FF4A07240
:101C10001A80F0225A809B8845F21052934216D0C7
:101C200041F66312934223D0184A2C2111812A21B4
:101C300051812B21918145F210329342BAD1134B3D
:101C40004FF4F0721A804FF4A0725A80B2E70F4A34
:101C50004FF4305111814FF4285151814FF42C51E0
:101C600091814FF4487111804FF4F0715180E2E797
:101C7000064A2C2111812A2151812B2191814FF477
:101C8000487111804FF4F0715180D4E7180A002098
:101C900070B506460E4B1A885D8802FB05F50021DB
:101CA0000846FFF761FBFFF757FB00220DE0094BE9
:101CB0004FF4807119614FF400715961064CE66070
:101CC00080245C611C6119610132AA42EFD370BDAE
:101CD000180A002000100140000C01402DE9F04FCF
:101CE00087B0814B9A6942F008029A619A6902F0C2
:101CF00008020092009A9A6942F010029A619B6968
:101D000003F010030193019B4FF4F8630293012445
:101D1000039404940323059302A9744803F0C8F8BC
:101D20004FF6FF73029302A9714803F0C1F8714A9C
:101D3000536823F0E06343F080635360322002F085
:101D40006BFD21460020FFF7F1FA322002F064FD1E
:101D5000D320FFF7A3FAFFF7C5FA674CA080FFF77F
:101D6000C1FAA080FFF7BEFAA0800002A080FFF7B2
:101D7000B9FAA388184380B2A08049F2413398424F
:101D800028D15D4B9B8849F24132934200F0B880E4
:101D900047F28972934200F0C88145F210329342B3
:101DA00000F0968245F21052934201F00A8241F609
:101DB0006312934202F083810020FFF7DDFE4F4B58
:101DC0000122C3F8A8214FF6FF70FFF761FF07B0AB
:101DD000BDE8F08F0420FFF761FAFFF783FAA080D7
:101DE000FFF780FAA080FFF77DFAA0800002A080B4
:101DF000FFF778FAA388184380B2A08048F25253C4
:101E000098426CD03C4B9A8847F289739A42B8D07A
:101E1000D420FFF743FAFFF765FA374CA080FFF7AD
:101E200061FAA080FFF75EFAA0800002A080FFF7B1
:101E300059FAA388184380B2A08045F21033984223
:101E40009FD055214FF47040FFF770FAAA214FF24E
:101E50000100FFF76BFA52214FF20200FFF766FA1A
:101E600008214FF20300FFF761FA01214FF204004D
:101E7000FFF75CFA4FF44540FFF710FAFFF732FA2C
:101E8000A0800002A0804CF20150FFF707FAFFF794
:101E900029FAA3881843A080052002F0BDFCA2887F
:101EA00045F210539A423FF46CAFA120FFF7F6F9C8
:101EB000FFF718FAA080FFF715FAA0800002A080B3
:101EC000FFF710FAA38803439BB2A38045F2617227
:101ED00093427FF456AF41F66312A28051E747F276
:101EE0008972A2808EE700BF0010024000100140FE
:101EF000000C014000000140180A002000002242AE
:101F0000CF20FFF7CBF90020FFF7DAF9C120FFF768
:101F1000D7F93020FFF7D4F9ED20FFF7BFF964209F
:101F2000FFF7CEF90320FFF7CBF91220FFF7C8F92E
:101F30008120FFF7C5F9E820FFF7B0F98520FFF70A
:101F4000BFF91020FFF7BCF97A20FFF7B9F9CB20D1
:101F5000FFF7A4F93920FFF7B3F92C20FFF7B0F908
:101F60000020FFF7ADF93420FFF7AAF90220FFF7B0
:101F7000A7F9F720FFF792F92020FFF7A1F9EA204F
:101F8000FFF78CF90020FFF79BF90020FFF798F985
:101F9000C020FFF783F91B20FFF792F9C120FFF75C
:101FA0007DF90120FFF78CF9C520FFF777F9302084
:101FB000FFF786F93020FFF783F9C720FFF76EF9A6
:101FC000B720FFF77DF93620FFF768F94820FFF7C3
:101FD00077F93A20FFF762F95520FFF771F9B12040
:101FE000FFF75CF90020FFF76BF91A20FFF768F99B
:101FF000B620FFF753F90A20FFF762F9A220FFF796
:102000005FF9F220FFF74AF90020FFF759F926207F
:10201000FFF744F90120FFF753F9E020FFF73EF9FD
:102020000F20FFF74DF92A20FFF74AF92820FFF784
:1020300047F90820FFF744F90E20FFF741F908207F
:10204000FFF73EF95420FFF73BF9A920FFF738F9D5
:102050004320FFF735F90A20FFF732F90F20FFF789
:102060002FF90020FFF72CF90020FFF729F90020B5
:10207000FFF726F90020FFF723F9E120FFF70EF91B
:102080000020FFF71DF91520FFF71AF91720FFF7B9
:1020900017F90720FFF714F91120FFF711F90620AF
:1020A000FFF70EF92B20FFF70BF95620FFF708F981
:1020B0003C20FFF705F90520FFF702F91020FFF794
:1020C000FFF80F20FFF7FCF83F20FFF7F9F83F205B
:1020D000FFF7F6F80F20FFF7F3F82B20FFF7DEF8F5
:1020E0000020FFF7EDF80020FFF7EAF80120FFF7E6
:1020F000E7F83F20FFF7E4F82A20FFF7CFF80020A9
:10210000FFF7DEF80020FFF7DBF80020FFF7D8F834
:10211000EF20FFF7D5F81120FFF7C0F8782002F084
:102120007BFB2920FFF7BAF846E61120FFF7B6F847
:10213000782002F071FB3620FFF7B0F80020FFF79F
:10214000BFF83A20FFF7AAF80520FFF7B9F8B22048
:10215000FFF7A4F80C20FFF7B3F80C20FFF7B0F856
:102160000020FFF7ADF83320FFF7AAF83320FFF780
:10217000A7F8B720FFF792F83520FFF7A1F8BB20AA
:10218000FFF78CF83220FFF79BF8C020FFF786F8A6
:102190000C20FFF795F8C220FFF780F80120FFF729
:1021A0008FF8C320FFF77AF81020FFF789F8C420D2
:1021B000FFF774F82020FFF783F8C620FFF76EF8CA
:1021C0000F20FFF77DF8D020FFF768F8A420FFF775
:1021D00077F8A120FFF774F8E020FFF75FF8D02030
:1021E000FFF76EF80020FFF76BF80220FFF768F8A2
:1021F0000720FFF765F80A20FFF762F82820FFF7AD
:102200005FF83220FFF75CF84420FFF759F84220CE
:10221000FFF756F80620FFF753F80E20FFF750F8A7
:102220001220FFF74DF81420FFF74AF81720FFF7A8
:1022300047F8E120FFF732F8D020FFF741F80020FF
:10224000FFF73EF80220FFF73BF80720FFF738F8CA
:102250000A20FFF735F82820FFF732F83120FFF782
:102260002FF85420FFF72CF84720FFF729F80E200D
:10227000FFF726F81C20FFF723F81720FFF720F8B8
:102280001B20FFF71DF81E20FFF71AF82A20FFF782
:1022900005F80020FFF714F80020FFF711F80020E0
:1022A000FFF70EF8EF20FFF70BF82B20FEF7F6FFF5
:1022B0000020FFF705F80020FFF702F80120FEF7E5
:1022C000FFFF3F20FEF7FCFF2920FEF7E7FF73E545
:1022D000ED20FEF7E3FF0120FEF7F2FFFE20FEF700
:1022E000EFFFEE20FEF7DAFFDE20FEF7E9FF212008
:1022F000FEF7E6FFF120FEF7D1FF0120FEF7E0FF39
:10230000DF20FEF7CBFF1020FEF7DAFFC420FEF738
:10231000C5FF8F20FEF7D4FFC620FEF7BFFF0020C9
:10232000FEF7CEFFE220FEF7CBFFE220FEF7C8FF6C
:10233000E220FEF7C5FFBF20FEF7B0FFAA20FEF7A0
:10234000BFFFB020FEF7AAFF0D20FEF7B9FF002067
:10235000FEF7B6FF0D20FEF7B3FF0020FEF7B0FF3B
:102360001120FEF7ADFF0020FEF7AAFF1920FEF7AF
:10237000A7FF0020FEF7A4FF2120FEF7A1FF002009
:10238000FEF79EFF2D20FEF79BFF0020FEF798FF33
:102390003D20FEF795FF0020FEF792FF5D20FEF73F
:1023A0008FFF0020FEF78CFF5D20FEF789FF0020E5
:1023B000FEF786FFB120FEF771FF8020FEF780FF59
:1023C0000020FEF77DFF8B20FEF77AFF0020FEF74E
:1023D00077FF9620FEF774FF0020FEF771FFB22012
:1023E000FEF75CFF0020FEF76BFF0020FEF768FFA2
:1023F0000220FEF765FF0020FEF762FF0320FEF7D4
:102400005FFF0020FEF75CFFB320FEF747FF0020D0
:10241000FEF756FF0020FEF753FF0020FEF750FFA7
:102420000020FEF74DFF0020FEF74AFF0020FEF7D8
:1024300047FF0020FEF744FF0020FEF741FF002089
:10244000FEF73EFF0020FEF73BFF0020FEF738FFBF
:102450000020FEF735FF0020FEF732FF0020FEF7D8
:102460002FFF0020FEF72CFF0020FEF729FF0020A1
:10247000FEF726FF0020FEF723FF0020FEF720FFD7
:102480000020FEF71DFF0020FEF71AFF0020FEF7D8
:1024900017FF0020FEF714FF0020FEF711FFB42005
:1024A000FEF7FCFE8B20FEF70BFF0020FEF708FF77
:1024B0009620FEF705FF0020FEF702FFA120FEF7A1
:1024C000FFFE0020FEF7FCFEB520FEF7E7FE02202F
:1024D000FEF7F6FE0020FEF7F3FE0320FEF7F0FE07
:1024E0000020FEF7EDFE0420FEF7EAFE0020FEF7D6
:1024F000E7FEB620FEF7D2FE0020FEF7E1FE002048
:10250000FEF7DEFEB720FEF7C9FE0020FEF7D8FE7C
:102510000020FEF7D5FE3F20FEF7D2FE0020FEF79A
:10252000CFFE5E20FEF7CCFE0020FEF7C9FE642041
:10253000FEF7C6FE0020FEF7C3FE8C20FEF7C0FEAD
:102540000020FEF7BDFEAC20FEF7BAFE0020FEF72D
:10255000B7FEDC20FEF7B4FE0020FEF7B1FE7020CF
:10256000FEF7AEFE0020FEF7ABFE9020FEF7A8FEC1
:102570000020FEF7A5FEEB20FEF7A2FE0020FEF7EE
:102580009FFEDC20FEF79CFE0020FEF799FEB8209F
:10259000FEF784FE0020FEF793FE0020FEF790FE7B
:1025A0000020FEF78DFE0020FEF78AFE0020FEF7D9
:1025B00087FE0020FEF784FE0020FEF781FE00204B
:1025C000FEF77EFEBA20FEF769FE2420FEF778FEB5
:1025D0000020FEF775FE0020FEF772FE0020FEF7D9
:1025E0006FFEC120FEF75AFE2020FEF769FE002094
:1025F000FEF766FE5420FEF763FE0020FEF760FE45
:10260000FF20FEF75DFE0020FEF75AFEC220FEF717
:1026100045FE0A20FEF754FE0020FEF751FE04207E
:10262000FEF74EFE0020FEF74BFEC320FEF736FEFF
:102630003C20FEF745FE0020FEF742FE3A20FEF762
:102640003FFE0020FEF73CFE3920FEF739FE002059
:10265000FEF736FE3720FEF733FE0020FEF730FE91
:102660003C20FEF72DFE0020FEF72AFE3620FEF766
:1026700027FE0020FEF724FE3220FEF721FE002078
:10268000FEF71EFE2F20FEF71BFE0020FEF718FEB1
:102690002C20FEF715FE0020FEF712FE2920FEF783
:1026A0000FFE0020FEF70CFE2620FEF709FE00209C
:1026B000FEF706FE2420FEF703FE0020FEF700FED4
:1026C0002420FEF7FDFD0020FEF7FAFD2320FEF793
:1026D000F7FD0020FEF7F4FD3C20FEF7F1FD0020A1
:1026E000FEF7EEFD3620FEF7EBFD0020FEF7E8FDDD
:1026F0003220FEF7E5FD0020FEF7E2FD2F20FEF779
:10270000DFFD0020FEF7DCFD2C20FEF7D9FD0020C8
:10271000FEF7D6FD2920FEF7D3FD0020FEF7D0FD01
:102720002620FEF7CDFD0020FEF7CAFD2420FEF78F
:10273000C7FD0020FEF7C4FD2420FEF7C1FD0020E8
:10274000FEF7BEFD2320FEF7BBFD0020FEF7B8FD1F
:10275000C420FEF7A3FD6220FEF7B2FD0020FEF7C5
:10276000AFFD0520FEF7ACFD0020FEF7A9FD84209B
:10277000FEF7A6FD0020FEF7A3FDF020FEF7A0FD6A
:102780000020FEF79DFD1820FEF79AFD0020FEF7C1
:1027900097FDA420FEF794FD0020FEF791FD182080
:1027A000FEF78EFD0020FEF78BFD5020FEF788FD22
:1027B0000020FEF785FD0C20FEF782FD0020FEF7CD
:1027C0007FFD1720FEF77CFD0020FEF779FD9520A8
:1027D000FEF776FD0020FEF773FDF320FEF770FD97
:1027E0000020FEF76DFDE620FEF76AFD0020FEF7F3
:1027F00067FDC520FEF752FD3220FEF761FD002087
:10280000FEF75EFD4420FEF75BFD0020FEF758FD5D
:102810006520FEF755FD0020FEF752FD7620FEF7FD
:102820004FFD0020FEF74CFD8820FEF749FD0020FB
:10283000FEF746FDC620FEF731FD2020FEF740FDE5
:102840000020FEF73DFD1720FEF73AFD0020FEF7C1
:1028500037FD0120FEF734FD0020FEF731FDC720D3
:10286000FEF71CFD0020FEF72BFD0020FEF728FDE3
:102870000020FEF725FD0020FEF722FDC820FEF710
:102880000DFD0020FEF71CFD0020FEF719FD0020C5
:10289000FEF716FD0020FEF713FDC920FEF7FEFC33
:1028A0000020FEF70DFD0020FEF70AFD0020FEF7D8
:1028B00007FD0020FEF704FD0020FEF701FD0020CB
:1028C000FEF7FEFC0020FEF7FBFC0020FEF7F8FC04
:1028D0000020FEF7F5FC0020FEF7F2FC0020FEF7DA
:1028E000EFFC0020FEF7ECFC0020FEF7E9FC0020E6
:1028F000FEF7E6FC0020FEF7E3FC0020FEF7E0FC1C
:10290000E020FEF7CBFC1620FEF7DAFC0020FEF7F5
:10291000D7FC1C20FEF7D4FC0020FEF7D1FC2120C0
:10292000FEF7CEFC0020FEF7CBFC3620FEF7C8FCFD
:102930000020FEF7C5FC4620FEF7C2FC0020FEF793
:10294000BFFC5220FEF7BCFC0020FEF7B9FC64205F
:10295000FEF7B6FC0020FEF7B3FC7A20FEF7B0FCD1
:102960000020FEF7ADFC8B20FEF7AAFC0020FEF74E
:10297000A7FC9920FEF7A4FC0020FEF7A1FCA820EC
:10298000FEF79EFC0020FEF79BFCB920FEF798FCAA
:102990000020FEF795FCC420FEF792FC0020FEF715
:1029A0008FFCCA20FEF78CFC0020FEF789FCD220A9
:1029B000FEF786FC0020FEF783FCD920FEF780FCA2
:1029C0000020FEF77DFCE020FEF77AFC0020FEF7F9
:1029D00077FCF320FEF774FC0020FEF771FCE12089
:1029E000FEF75CFC1620FEF76BFC0020FEF768FC8F
:1029F0001C20FEF765FC0020FEF762FC2220FEF79B
:102A00005FFC0020FEF75CFC3620FEF759FC00203E
:102A1000FEF756FC4520FEF753FC0020FEF750FC65
:102A20005220FEF74DFC0020FEF74AFC6420FEF722
:102A300047FC0020FEF744FC7A20FEF741FC002012
:102A4000FEF73EFC8B20FEF73BFC0020FEF738FC37
:102A50009920FEF735FC0020FEF732FCA820FEF797
:102A60002FFC0020FEF72CFCB920FEF729FC0020EB
:102A7000FEF726FCC420FEF723FC0020FEF720FC16
:102A8000CA20FEF71DFC0020FEF71AFCD220FEF73C
:102A900017FC0020FEF714FCD820FEF711FC0020E4
:102AA000FEF70EFCE020FEF70BFC0020FEF708FC12
:102AB000F320FEF705FC0020FEF702FCE220FEF703
:102AC000EDFB0520FEF7FCFB0020FEF7F9FB0B20D9
:102AD000FEF7F6FB0020FEF7F3FB1B20FEF7F0FBF2
:102AE0000020FEF7EDFB3420FEF7EAFB0020FEF7A6
:102AF000E7FB4420FEF7E4FB0020FEF7E1FB4F205C
:102B0000FEF7DEFB0020FEF7DBFB6120FEF7D8FBC3
:102B10000020FEF7D5FB7920FEF7D2FB0020FEF760
:102B2000CFFB8820FEF7CCFB0020FEF7C9FB9720E7
:102B3000FEF7C6FB0020FEF7C3FBA620FEF7C0FB96
:102B40000020FEF7BDFBB720FEF7BAFB0020FEF722
:102B5000B7FBC220FEF7B4FB0020FEF7B1FBC72095
:102B6000FEF7AEFB0020FEF7ABFBD120FEF7A8FB83
:102B70000020FEF7A5FBD620FEF7A2FB0020FEF703
:102B80009FFBDD20FEF79CFB0020FEF799FBF32066
:102B9000FEF796FB0020FEF793FBE320FEF77EFB9B
:102BA0000520FEF78DFB0020FEF78AFB0A20FEF7CA
:102BB00087FB0020FEF784FB1C20FEF781FB002032
:102BC000FEF77EFB3320FEF77BFB0020FEF778FB51
:102BD0004420FEF775FB0020FEF772FB5020FEF745
:102BE0006FFB0020FEF76CFB6220FEF769FB002004
:102BF000FEF766FB7820FEF763FB0020FEF760FB24
:102C00008820FEF75DFB0020FEF75AFB9720FEF7B9
:102C100057FB0020FEF754FBA620FEF751FB0020D7
:102C2000FEF74EFBB720FEF74BFB0020FEF748FBFC
:102C3000C220FEF745FB0020FEF742FBC720FEF74F
:102C40003FFB0020FEF73CFBD120FEF739FB0020C4
:102C5000FEF736FBD520FEF733FB0020FEF730FBF6
:102C6000DD20FEF72DFB0020FEF72AFBF320FEF708
:102C700027FB0020FEF724FBE420FEF70FFB0120DA
:102C8000FEF71EFB0020FEF71BFB0120FEF718FBE2
:102C90000020FEF715FB0220FEF712FB0020FEF7D6
:102CA0000FFB2A20FEF70CFB0020FEF709FB3C205F
:102CB000FEF706FB0020FEF703FB4B20FEF700FBB0
:102CC0000020FEF7FDFA5D20FEF7FAFA0020FEF77D
:102CD000F7FA7420FEF7F4FA0020FEF7F1FA8420E8
:102CE000FEF7EEFA0020FEF7EBFA9320FEF7E8FA83
:102CF0000020FEF7E5FAA220FEF7E2FA0020FEF738
:102D0000DFFAB320FEF7DCFA0020FEF7D9FABE2086
:102D1000FEF7D6FA0020FEF7D3FAC420FEF7D0FA69
:102D20000020FEF7CDFACD20FEF7CAFA0020FEF70C
:102D3000C7FAD320FEF7C4FA0020FEF7C1FADD205F
:102D4000FEF7BEFA0020FEF7BBFAF320FEF7B8FA52
:102D50000020FEF7B5FAE520FEF7A0FA0020FEF706
:102D6000AFFA0020FEF7ACFA0020FEF7A9FA002027
:102D7000FEF7A6FA0220FEF7A3FA0020FEF7A0FA5B
:102D80002920FEF79DFA0020FEF79AFA3C20FEF774
:102D900097FA0020FEF794FA4B20FEF791FA0020F4
:102DA000FEF78EFA5D20FEF78BFA0020FEF788FA18
:102DB0007420FEF785FA0020FEF782FA8420FEF7E1
:102DC0007FFA0020FEF77CFA9320FEF779FA0020C4
:102DD000FEF776FAA220FEF773FA0020FEF770FAEB
:102DE000B320FEF76DFA0020FEF76AFABE20FEF768
:102DF00067FA0020FEF764FAC420FEF761FA0020AB
:102E0000FEF75EFACD20FEF75BFA0020FEF758FAD7
:102E1000D320FEF755FA0020FEF752FADC20FEF729
:102E20004FFA0020FEF74CFAF320FEF749FA002093
:102E3000FEF746FAE620FEF731FA1120FEF740FAD7
:102E40000020FEF73DFA3420FEF73AFA0020FEF7A4
:102E500037FA5620FEF734FA0020FEF731FA7620D2
:102E6000FEF72EFA0020FEF72BFA7720FEF728FA5D
:102E70000020FEF725FA6620FEF722FA0020FEF772
:102E80001FFA8820FEF71CFA0020FEF719FA992095
:102E9000FEF716FA0020FEF713FABB20FEF710FA31
:102EA0000020FEF70DFA9920FEF70AFA0020FEF73F
:102EB00007FA6620FEF704FA0020FEF701FA552013
:102EC000FEF7FEF90020FEF7FBF95520FEF7F8F9B2
:102ED0000020FEF7F5F94520FEF7F2F90020FEF795
:102EE000EFF94320FEF7ECF90020FEF7E9F9442062
:102EF000FEF7E6F90020FEF7E3F9E720FEF7CEF94A
:102F00003220FEF7DDF90020FEF7DAF95520FEF752
:102F1000D7F90020FEF7D4F97620FEF7D1F900208A
:102F2000FEF7CEF96620FEF7CBF90020FEF7C8F9D0
:102F30006720FEF7C5F90020FEF7C2F96720FEF70B
:102F4000BFF90020FEF7BCF98720FEF7B9F9002091
:102F5000FEF7B6F99920FEF7B3F90020FEF7B0F9B5
:102F6000BB20FEF7ADF90020FEF7AAF99920FEF785
:102F7000A7F90020FEF7A4F97720FEF7A1F90020B9
:102F8000FEF79EF94420FEF79BF90020FEF798F922
:102F90005620FEF795F90020FEF792F92320FEF760
:102FA0008FF90020FEF78CF93320FEF789F9002015
:102FB000FEF786F94520FEF783F90020FEF780F939
:102FC000E820FEF76BF90020FEF77AF90020FEF703
:102FD00077F99920FEF774F90020FEF771F9872040
:102FE000FEF76EF90020FEF76BF98820FEF768F90E
:102FF0000020FEF765F97720FEF762F90020FEF762
:103000005FF96620FEF75CF90020FEF759F9882089
:10301000FEF756F90020FEF753F9AA20FEF750F903
:103020000020FEF74DF9BB20FEF74AF90020FEF71D
:1030300047F99920FEF744F90020FEF741F9662090
:10304000FEF73EF90020FEF73BF95520FEF738F970
:103050000020FEF735F95520FEF732F90020FEF783
:103060002FF94420FEF72CF90020FEF729F944201F
:10307000FEF726F90020FEF723F95520FEF720F988
:103080000020FEF71DF9E920FEF708F9AA20FEF757
:1030900017F90020FEF714F90020FEF711F90020BF
:1030A000FEF70EF90020FEF7F9F8AA20FEF708F95E
:1030B000CF20FEF7F3F80020FEF702F90020FEF71C
:1030C000FFF80020FEF7FCF80020FEF7F9F80020DA
:1030D000FEF7F6F80020FEF7F3F80020FEF7F0F810
:1030E0000020FEF7EDF80020FEF7EAF80020FEF7DA
:1030F000E7F80020FEF7E4F80020FEF7E1F80020F2
:10310000FEF7DEF80020FEF7DBF80020FEF7D8F827
:103110000020FEF7D5F80020FEF7D2F8F020FEF7E9
:10312000BDF80020FEF7CCF85020FEF7C9F80020CB
:10313000FEF7C6F80020FEF7C3F80020FEF7C0F83F
:10314000F320FEF7ABF80020FEF7BAF8F920FEF7FF
:10315000A5F80620FEF7B4F81020FEF7B1F82920F4
:10316000FEF7AEF80020FEF7ABF83A20FEF796F82F
:103170005520FEF7A5F81120FEF790F8642001F025
:103180004BFB2920FEF78AF83520FEF787F8002050
:10319000FEF796F85120FEF781F8FF20FEF790F831
:1031A0005320FEF77BF82C20FEF78AF85520FEF717
:1031B00075F88220FEF784F82C20FEF76FF8FEF7F2
:1031C000FBBD55214FF47040FEF7B0F8AA214FF235
:1031D0000100FEF7ABF852214FF20200FEF7A6F80D
:1031E00008214FF20300FEF7A1F801214FF204007D
:1031F000FEF79CF80D214FF43040FEF797F80D21B3
:103200004BF20100FEF792F80D214BF20200FEF79F
:103210008DF834214FF43640FEF788F834214BF214
:103220000160FEF783F834214BF20260FEF77EF86E
:103230000D214FF43140FEF779F80D214BF20110CA
:10324000FEF774F80D214BF20210FEF76FF83421EF
:103250004FF43740FEF76AF834214BF20170FEF765
:1032600065F834214BF20270FEF760F800214FF44C
:103270003240FEF75BF800214BF20120FEF756F8D2
:1032800000214BF20220FEF751F824214FF4384080
:10329000FEF74CF824214BF60100FEF747F82421F5
:1032A0004BF60200FEF742F801214FF43F40FEF7D3
:1032B0003DF80F214FF43340FEF738F80F214BF261
:1032C0000130FEF733F80F214BF20230FEF72EF8F3
:1032D00034214FF43940FEF729F834214BF6011020
:1032E000FEF724F834214BF60210FEF71FF80821F0
:1032F0004FF43540FEF71AF808214BF20150FEF763
:1033000015F808214BF20250FEF710F803214FF494
:103310004240FEF70BF824214FF43A40FEF706F83E
:1033200024214BF60120FEF701F824214BF6022060
:10333000FDF7FCFF00214FF43C40FDF7F7FF78213B
:103340004BF60140FDF7F2FF00214BF60240FDF77E
:10335000EDFF00214FF43D40FDF7E8FF78214BF6EB
:103360000150FDF7E3FF00214BF60250FDF7DEFFB1
:1033700000214FF43E40FDF7D9FF64214BF6016078
:10338000FDF7D4FF00214FF45140FDF7CFFF33216B
:103390004DF20110FDF7CAFF00214DF20210FDF7BA
:1033A000C5FF34214DF20310FDF7C0FF00214DF29F
:1033B0000410FDF7BBFF3A214DF20510FDF7B6FFF3
:1033C00000214DF20610FDF7B1FF4A214DF2071022
:1033D000FDF7ACFF00214DF20810FDF7A7FF5C21BF
:1033E0004DF20910FDF7A2FF00214DF20A10FDF782
:1033F0009DFF81214DF20B10FDF798FF00214DF24A
:103400000C10FDF793FFA6214DF20D10FDF78EFF76
:1034100000214DF20E10FDF789FFE5214DF20F104E
:10342000FDF784FF01214DF21010FDF77FFF1321FE
:103430004DF21110FDF77AFF01214DF21210FDF748
:1034400075FF54214DF21310FDF770FF01214DF26D
:103450001410FDF76BFF82214DF21510FDF766FF8A
:1034600001214DF21610FDF761FFCA214DF2171030
:10347000FDF75CFF02214DF21810FDF757FF002108
:103480004DF21910FDF752FF02214DF21A10FDF70F
:103490004DFF01214DF21B10FDF748FF02214DF2B7
:1034A0001C10FDF743FF34214DF21D10FDF73EFFC8
:1034B00002214DF21E10FDF739FF67214DF21F105A
:1034C000FDF734FF02214DF22010FDF72FFF84217C
:1034D0004DF22110FDF72AFF02214DF22210FDF7D7
:1034E00025FFA4214DF22310FDF720FF02214DF20C
:1034F0002410FDF71BFFB7214DF22510FDF716FF35
:1035000002214DF22610FDF711FFCF214DF22710B9
:10351000FDF70CFF02214DF22810FDF707FFDE2119
:103520004DF22910FDF702FF02214DF22A10FDF79E
:10353000FDFEF2214DF22B10FDF7F8FE02214DF2B7
:103540002C10FDF7F3FEFE214DF22D10FDF7EEFEDF
:1035500003214DF22E10FDF7E9FE10214DF22F1040
:10356000FDF7E4FE03214DF23010FDF7DFFE3321BD
:103570004DF23110FDF7DAFE03214DF23210FDF766
:10358000D5FE6D214DF23310FDF7D0FE00214FF432
:103590005240FDF7CBFE33214DF20120FDF7C6FE70
:1035A00000214DF20220FDF7C1FE34214DF203202F
:1035B000FDF7BCFE00214DF20420FDF7B7FE3A21D5
:1035C0004DF20520FDF7B2FE00214DF20620FDF779
:1035D000ADFE4A214DF20720FDF7A8FE00214DF275
:1035E0000820FDF7A3FE5C214DF20920FDF79EFEA9
:1035F00000214DF20A20FDF799FE81214DF20B20AA
:10360000FDF794FE00214DF20C20FDF78FFEA62160
:103610004DF20D20FDF78AFE00214DF20E20FDF740
:1036200085FEE5214DF20F20FDF780FE01214DF2D0
:103630001020FDF77BFE13214DF21120FDF776FEE1
:1036400001214DF21220FDF771FE54214DF213209D
:10365000FDF76CFE01214DF21420FDF767FE82217B
:103660004DF21520FDF762FE01214DF21620FDF707
:103670005DFECA214DF21720FDF758FE02214DF2E2
:103680001820FDF753FE00214DF21920FDF74EFEE4
:1036900002214DF21A20FDF749FE01214DF21B20B7
:1036A000FDF744FE02214DF21C20FDF73FFE3421C0
:1036B0004DF21D20FDF73AFE02214DF21E20FDF7CE
:1036C00035FE67214DF21F20FDF730FE02214DF23D
:1036D0002020FDF72BFE84214DF22120FDF726FE50
:1036E00002214DF22220FDF721FEA4214DF22320DC
:1036F000FDF71CFE02214DF22420FDF717FEB72135
:103700004DF22520FDF712FE02214DF22620FDF795
:103710000DFECF214DF22720FDF708FE02214DF2CC
:103720002820FDF703FEDE214DF22920FDF7FEFDE6
:1037300002214DF22A20FDF7F9FDF2214DF22B2056
:10374000FDF7F4FD02214DF22C20FDF7EFFDFE21E7
:103750004DF22D20FDF7EAFD03214DF22E20FDF75D
:10376000E5FD10214DF22F20FDF7E0FD03214DF284
:103770003020FDF7DBFD33214DF23120FDF7D6FD82
:1037800003214DF23220FDF7D1FD6D214DF23320A2
:10379000FDF7CCFD00214FF45340FDF7C7FD332169
:1037A0004DF20130FDF7C2FD00214DF20230FDF770
:1037B000BDFD34214DF20330FDF7B8FD00214DF27F
:1037C0000430FDF7B3FD3A214DF20530FDF7AEFDB3
:1037D00000214DF20630FDF7A9FD4A214DF20730D8
:1037E000FDF7A4FD00214DF20830FDF79FFD5C219F
:1037F0004DF20930FDF79AFD00214DF20A30FDF738
:1038000095FD81214DF20B30FDF790FD00214DF229
:103810000C30FDF78BFDA6214DF20D30FDF786FD36
:1038200000214DF20E30FDF781FDE5214DF20F3004
:10383000FDF77CFD01214DF21030FDF777FD1321DE
:103840004DF21130FDF772FD01214DF21230FDF7FE
:103850006DFD54214DF21330FDF768FD01214DF24D
:103860001430FDF763FD82214DF21530FDF75EFD4A
:1038700001214DF21630FDF759FDCA214DF21730E6
:10388000FDF754FD02214DF21830FDF74FFD0021E8
:103890004DF21930FDF74AFD02214DF21A30FDF7C5
:1038A00045FD01214DF21B30FDF740FD02214DF297
:1038B0001C30FDF73BFD34214DF21D30FDF736FD88
:1038C00002214DF21E30FDF731FD67214DF21F3010
:1038D000FDF72CFD02214DF22030FDF727FD84215C
:1038E0004DF22130FDF722FD02214DF22230FDF78D
:1038F0001DFDA4214DF22330FDF718FD02214DF2EC
:103900002430FDF713FDB7214DF22530FDF70EFDF4
:1039100002214DF22630FDF709FDCF214DF227306F
:10392000FDF704FD02214DF22830FDF7FFFCDE21FA
:103930004DF22930FDF7FAFC02214DF22A30FDF755
:10394000F5FCF2214DF22B30FDF7F0FC02214DF297
:103950002C30FDF7EBFCFE214DF22D30FDF7E6FC9F
:1039600003214DF22E30FDF7E1FC10214DF22F30F6
:10397000FDF7DCFC03214DF23030FDF7D7FC33219D
:103980004DF23130FDF7D2FC03214DF23230FDF71C
:10399000CDFC6D214DF23330FDF7C8FC00214FF412
:1039A0005440FDF7C3FC33214DF20140FDF7BEFC4E
:1039B00000214DF20240FDF7B9FC34214DF20340E5
:1039C000FDF7B4FC00214DF20440FDF7AFFC3A21B5
:1039D0004DF20540FDF7AAFC00214DF20640FDF72F
:1039E000A5FC4A214DF20740FDF7A0FC00214DF255
:1039F0000840FDF79BFC5C214DF20940FDF796FC69
:103A000000214DF20A40FDF791FC81214DF20B405F
:103A1000FDF78CFC00214DF20C40FDF787FCA62140
:103A20004DF20D40FDF782FC00214DF20E40FDF7F6
:103A30007DFCE5214DF20F40FDF778FC01214DF2B0
:103A40001040FDF773FC13214DF21140FDF76EFCA1
:103A500001214DF21240FDF769FC54214DF2134053
:103A6000FDF764FC01214DF21440FDF75FFC82215B
:103A70004DF21540FDF75AFC01214DF21640FDF7BD
:103A800055FCCA214DF21740FDF750FC02214DF2C2
:103A90001840FDF74BFC00214DF21940FDF746FCA4
:103AA00002214DF21A40FDF741FC01214DF21B406D
:103AB000FDF73CFC02214DF21C40FDF737FC3421A0
:103AC0004DF21D40FDF732FC02214DF21E40FDF784
:103AD0002DFC67214DF21F40FDF728FC02214DF21D
:103AE0002040FDF723FC84214DF22140FDF71EFC10
:103AF00002214DF22240FDF719FCA4214DF2234092
:103B0000FDF714FC02214DF22440FDF70FFCB72114
:103B10004DF22540FDF70AFC02214DF22640FDF74B
:103B200005FCCF214DF22740FDF700FC02214DF2AC
:103B30002840FDF7FBFBDE214DF22940FDF7F6FBA7
:103B400002214DF22A40FDF7F1FBF2214DF22B400C
:103B5000FDF7ECFB02214DF22C40FDF7E7FBFE21C7
:103B60004DF22D40FDF7E2FB03214DF22E40FDF713
:103B7000DDFB10214DF22F40FDF7D8FB03214DF264
:103B80003040FDF7D3FB33214DF23140FDF7CEFB42
:103B900003214DF23240FDF7C9FB6D214DF2334058
:103BA000FDF7C4FB00214FF45540FDF7BFFB332167
:103BB0004DF20150FDF7BAFB00214DF20250FDF726
:103BC000B5FB34214DF20350FDF7B0FB00214DF25F
:103BD0000450FDF7ABFB3A214DF20550FDF7A6FB73
:103BE00000214DF20650FDF7A1FB4A214DF207508E
:103BF000FDF79CFB00214DF20850FDF797FB5C217F
:103C00004DF20950FDF792FB00214DF20A50FDF7ED
:103C10008DFB81214DF20B50FDF788FB00214DF209
:103C20000C50FDF783FBA6214DF20D50FDF77EFBF6
:103C300000214DF20E50FDF779FBE5214DF20F50BA
:103C4000FDF774FB01214DF21050FDF76FFB1321BE
:103C50004DF21150FDF76AFB01214DF21250FDF7B4
:103C600065FB54214DF21350FDF760FB01214DF22D
:103C70001450FDF75BFB82214DF21550FDF756FB0A
:103C800001214DF21650FDF751FBCA214DF217509C
:103C9000FDF74CFB02214DF21850FDF747FB0021C8
:103CA0004DF21950FDF742FB02214DF21A50FDF77B
:103CB0003DFB01214DF21B50FDF738FB02214DF277
:103CC0001C50FDF733FB34214DF21D50FDF72EFB48
:103CD00002214DF21E50FDF729FB67214DF21F50C6
:103CE000FDF724FB02214DF22050FDF71FFB84213C
:103CF0004DF22150FDF71AFB02214DF22250FDF743
:103D000015FBA4214DF22350FDF710FB02214DF2CB
:103D10002450FDF70BFBB7214DF22550FDF706FBB4
:103D200002214DF22650FDF701FBCF214DF2275025
:103D3000FDF7FCFA02214DF22850FDF7F7FADE21DB
:103D40004DF22950FDF7F2FA02214DF22A50FDF70B
:103D5000EDFAF2214DF22B50FDF7E8FA02214DF277
:103D60002C50FDF7E3FAFE214DF22D50FDF7DEFA5F
:103D700003214DF22E50FDF7D9FA10214DF22F50AC
:103D8000FDF7D4FA03214DF23050FDF7CFFA33217D
:103D90004DF23150FDF7CAFA03214DF23250FDF7D2
:103DA000C5FA6D214DF23350FDF7C0FA00214FF4F2
:103DB0005640FDF7BBFA33214DF20160FDF7B6FA2C
:103DC00000214DF20260FDF7B1FA34214DF203609B
:103DD000FDF7ACFA00214DF20460FDF7A7FA3A2195
:103DE0004DF20560FDF7A2FA00214DF20660FDF7E5
:103DF0009DFA4A214DF20760FDF798FA00214DF235
:103E00000860FDF793FA5C214DF20960FDF78EFA28
:103E100000214DF20A60FDF789FA81214DF20B6015
:103E2000FDF784FA00214DF20C60FDF77FFAA62120
:103E30004DF20D60FDF77AFA00214DF20E60FDF7AC
:103E400075FAE5214DF20F60FDF770FA01214DF290
:103E50001060FDF76BFA13214DF21160FDF766FA61
:103E600001214DF21260FDF761FA54214DF2136009
:103E7000FDF75CFA01214DF21460FDF757FA82213B
:103E80004DF21560FDF752FA01214DF21660FDF773
:103E90004DFACA214DF21760FDF748FA02214DF2A2
:103EA0001860FDF743FA00214DF21960FDF73EFA64
:103EB00002214DF21A60FDF739FA01214DF21B6023
:103EC000FDF734FA02214DF21C60FDF72FFA342180
:103ED0004DF21D60FDF72AFA02214DF21E60FDF73A
:103EE00025FA67214DF21F60FDF720FA02214DF2FD
:103EF0002060FDF71BFA84214DF22160FDF716FAD0
:103F000002214DF22260FDF711FAA4214DF2236047
:103F1000FDF70CFA02214DF22460FDF707FAB721F4
:103F20004DF22560FDF702FA02214DF22660FDF701
:103F3000FDF9CF214DF22760FDF7F8F902214DF28E
:103F40002860FDF7F3F9DE214DF22960FDF7EEF967
:103F500002214DF22A60FDF7E9F9F2214DF22B60C2
:103F6000FDF7E4F902214DF22C60FDF7DFF9FE21A7
:103F70004DF22D60FDF7DAF903214DF22E60FDF7C9
:103F8000D5F910214DF22F60FDF7D0F903214DF244
:103F90003060FDF7CBF933214DF23160FDF7C6F902
:103FA00003214DF23260FDF7C1F96D214DF233600E
:103FB000FDF7BCF955214FF47040FDF7B7F9AA2180
:103FC0004FF20100FDF7B2F952214FF20200FDF766
:103FD000ADF908214FF20300FDF7A8F900214FF2D7
:103FE0000400FDF7A3F9CC214FF43140FDF79EF911
:103FF00000214BF20110FDF799F905214FF43640ED
:10400000FDF794F970214FF43740FDF78FF97021D7
:104010004BF20170FDF78AF901214FF43840FDF7AA
:1040200085F903214BF60100FDF780F903214BF6DA
:104030000200FDF77BF903214BF60300FDF776F94B
:1040400002214FF43C40FDF771F900214BF601408D
:10405000FDF76CF900214BF60240FDF767F9D0211E
:104060004FF44940FDF762F902214CF60110FDF7CB
:104070005DF950214CF60210FDF758F950214CF62D
:104080000310FDF753F950214CF60410FDF74EF9DB
:1040900000214FF45450FDF749F955214FF4685071
:1040A000FDF744F94FF48850FDF7F8F8012000F0CF
:1040B000B3FB4FF42450FDF7F1F8FDF77DBEE2208D
:1040C000FDF7ECF8AD4C4FF48078C4F810804FF455
:1040D00000756561AA4F1D23FB608026666126611D
:1040E0002561C4F8108065610223FB60666126616A
:1040F0002561C4F8108065610422FA60666126615A
:104100002561012000F088FBE020FDF7C7F8C4F826
:10411000108065614FF0010AC7F80CA06661266146
:1041200025610A2000F078FBE020FDF7B7F8C4F81D
:10413000108065614FF0030BC7F80CB06661266113
:1041400025610C2000F068FB5046FDF7A7F80A2017
:1041500000F062FBE620FDF7A1F8C4F8108065616D
:104160002F23FB60666126612561C4F810806561BC
:10417000FF23FB60666126612561C4F810806561DC
:10418000FB60666126612561B020FDF787F8C4F801
:10419000108065612023FB60666126612561C4F89B
:1041A000108065614FF00009C7F80C9066612661C8
:1041B0002561C4F810806561C7F80CB0666126619E
:1041C0002561C4F81080656140F21F33FB606661B1
:1041D00026612561C4F810806561C7F80CA066618E
:1041E00026612561C4F81080656140F2DF13FB6031
:1041F000666126612561C4F810806561C7F80C907E
:10420000666126612561B420FDF748F8C4F8108086
:1042100065610422FA60666126612561C4F8108038
:10422000656140F21F43FB60666126612561C4F849
:1042300010806561C7F80C90666126612561C4F83D
:10424000108065612E23FB60666126612561C4F8DC
:1042500010806561C7F80C90666126612561C4F81D
:1042600010806561C7F80C90666126612561C4F80D
:1042700010806561C7F80C90666126612561C4F8FD
:1042800010806561C7F80C90666126612561B620D3
:10429000FDF704F8C4F8108065610223FB606661D5
:1042A00026612561C4F8108065614FF40373FB60DB
:1042B000666126612561C4F810806561C7F80C90BD
:1042C000666126612561C4F8108065611723FB6073
:1042D000666126612561C4F8108065611523FB6065
:1042E000666126612561C4F810806561C7F80C908D
:1042F000666126612561C4F810806561C7F80C907D
:10430000666126612561F020FCF7C8FFC4F81080C3
:104310006561C7F80CB06661266125612920FCF74C
:10432000BDFFD020FCF7BAFFC4F810806561C7F864
:104330000C90666126612561BE20FCF7AFFFC4F8D2
:10434000108065610523FB60666126612561C4F804
:1043500010806561FE23FB60666126612561C4F8FB
:1043600010806561C7F80CA0666126612561C4F8FC
:1043700010806561C7F80C9004E000BF0010014098
:10438000000C0140666126612561C4F810806561FA
:10439000C7F80C90666126612561C4F810806561DC
:1043A000C7F80C90666126612561B820FCF776FF9E
:1043B000C4F810806561C7F80CB06661266125619C
:1043C000C4F810806561C7F80CA06661266125619C
:1043D000BA20FCF763FFC4F810806561C7F80CA031
:1043E0006661266125616420FDF776FBFDF7E4BC7C
:1043F0002DE9F04F83B0824688461F469DF830B0C5
:1044000013F0070318BF012303EBD703790801FB5F
:1044100003F3DBB20093203AD3B2019344464FF04A
:1044200000093FE0019B03EB4303294A02EB8303AE
:1044300013F8095047E0274B019A03EB021313F8D6
:10444000095040E0244B1A8821465046FDF714FAE3
:104450006D00EDB20134A4B2204B5B88A34234D985
:10446000A4EB0803BB4210D00136F6B2072E15D8D4
:1044700015F0800FE6D1BBF1000FE9D1184B1A8877
:1044800021465046FDF7F8F9E2E70AF1010A1FFA62
:104490008AFA124B1B88534517D9444609F1010982
:1044A0005FFA89F9009B99450FD20C2FBAD0102FD3
:1044B000C1D0182F09D1019B03EBC303094A02EBBA
:1044C000830313F809500026D0E703B0BDE8F08F4E
:1044D00090DB000804E00008140A0020180A0020FD
:1044E00000000020F4E500082DE9F04782B0824684
:1044F0000D469DF828700B9E02441FFA82F90B446A
:104500001FFA83F804460CE0454517D200230093B8
:104510003B4629462046FFF76BFF04EB5704A4B245
:1045200001363278A2F12003DBB25E2B06D84C456F
:10453000EAD35FFA8AF43D44ADB2E5E702B0BDE8E4
:10454000F087000008B50268034B9A4200D008BD0E
:1045500000F050F9FBE700BF0010004072B6FEE724
:1045600000B597B0282200210CA803F0B7FA002369
:104570000793089309930A930B9301930293039370
:1045800004930593069301220C924FF480330D930C
:1045900010920222139214934FF4E01315930CA877
:1045A00000F0CCFDC8B90F23079302210891002326
:1045B00009934FF480620A920B9307A800F0FEFF64
:1045C00068B9022301934FF40043039301A801F05B
:1045D000EFF830B917B05DF804FBFFF7BFFFFFF746
:1045E000BDFFFFF7BBFF000000B583B000F0F0F89F
:1045F000FDF774FBFFF7B4FFFCF700FEFCF7C6FC09
:10460000094B1F221A80094B019310230093182392
:10461000C8220A210846FFF767FF01F059FBFCF7A3
:10462000D1FD01F077FBFEE7140A002050F30008EB
:1046300000B583B0114B9A6942F001029A619A6900
:1046400002F001020092009ADA6942F08052DA61C7
:10465000DB6903F080530193019B00220F216FF06F
:10466000010000F0DFFB064A536823F0E06343F0EB
:104670000073536003B05DF804FB00BF00100240FC
:104680000000014000B589B001460022362000F04C
:10469000C9FB362000F0FEFB154BDA6942F0100230
:1046A000DA61DB6903F010030193019B02A903A8FF
:1046B00001F060F801F03EF843000E48A0FB032330
:1046C0009B0C013B0C480D4A026040F2E732C2608D
:1046D000436000230361836001F0CCFA18B101202C
:1046E00009B05DF804FB044801F07AF9F8E700BF6F
:1046F0000010024083DE1B43280A00200010004007
:10470000FEE7FEE7FEE7FEE7FEE7704708B5024872
:1047100001F0A6F908BD00BF280A0020012070475B
:1047200008B503F0B1F9162303604FF0FF3008BD60
:1047300008B54FF0FF31FFF7F3FFFEE770B50C4609
:104740001646002506E0AFF30080214601F8010B74
:1047500001350C46B542F6DB304670BD70B50C46EF
:104760001646002504E014F8010BAFF30080013574
:10477000B542F8DB304670BD08B503460B4A1268F7
:1047800042B10A4A106803446A46934206D8074A6F
:10479000136008BD054A06491160F2E703F074F999
:1047A0000C2303604FF0FF30F3E700BF700A0020D6
:1047B000082400204FF0FF3070474FF400534B6047
:1047C00000207047012070470020704770470000AC
:1047D00008B5074A136843F010031360032000F084
:1047E0000FFB0F20FFF74EFFFFF722FF002008BD51
:1047F00000200240034A1168034B1B780B441360EE
:10480000704700BF740A002008000020014B1868A0
:10481000704700BF740A002038B50446FFF7F6FF62
:104820000546B4F1FF3F02D0044B1B781C44FFF750
:10483000EDFF401BA042FAD338BD00BF08000020A6
:10484000F0B583B005460C4600230193FFF7DEFF69
:104850002B689A6812F4807F23D107465A6812F4B5
:10486000807F03D1DB6A13F4700F29D0504B1E6890
:10487000022001F029F8B6FBF0F62B6819694D4AC1
:10488000114236D1D96802F15C42114231D1196925
:10489000494A114240D1DA68484B1A423ED0292099
:1048A00041E0AB6A43F02003AB62002385F824307B
:1048B000012003B0F0BD2B681B6813F0020F0FD06E
:1048C0002B681B6813F0020F4FD1B4F1FF3FF7D0F4
:1048D000002CF0D0FFF79AFFC31BA342F0D9EAE700
:1048E000AB6A43F00403AB62002385F82430032055
:1048F000DFE71969304A114204D1D96802F16E42EA
:1049000011420DD019692E4A0A405AB9DA682C4B67
:1049100013405BB1FC2006E0292004E0142002E0F3
:10492000542000E0FC2000FB06F607E05420FAE7E4
:10493000019BB34210D3019B01330193019BB3420E
:1049400013D2B4F1FF3FF6D0002CF1D0FFF75EFF99
:10495000C01BA042EFD9EBE7AB6A43F00403AB62A4
:10496000002385F824300320A3E72B686FF01202A0
:104970001A60AB6A43F40073AB622B689B6803F464
:104980006023B3F5602F01D0002092E7287B60B947
:10499000AB6A23F48073AB62AB6A13F4805F88D197
:1049A000AB6A43F00103AB6283E7002081E700BFFD
:1049B00004000020244992249224491292244900A0
:1049C000499224000368D86C7047000030B482B06C
:1049D0000022019290F82420012A00F091800346E1
:1049E000012280F824204A68062A2DD80468606BCA
:1049F00002EB8202053A4FF01F0C0CFA02FC20EA8F
:104A00000C000D6805FA02F2024362630A68092A83
:104A10003AD91C68E06802EB42021E3A4FF0070CDC
:104A20000CFA02FC20EA0C008D6805FA02F202433F
:104A3000E2600A68103A012A36D90020002283F881
:104A4000242002B030BC70470C2A0ED80568286BB1
:104A500002EB8202233A1F24944020EA04000C68EF
:104A600004FA02F202432A63D0E70568E86A02EB1F
:104A70008202413A1F24944020EA04000C6804FAA0
:104A800002F20243EA62C1E71C68206902EB4202BB
:104A90004FF0070C0CFA02FC20EA0C008D6805FAB6
:104AA00002F202432261C4E71A681648824205D026
:104AB0009A6A42F020029A620120BFE7906810F4DF
:104AC000000F1BD1906840F4000090600A68102A23
:104AD00001D00020B2E70C4A12680C49A1FB021277
:104AE000920C02EB82025200019202E0019A013A1A
:104AF0000192019A002AF9D100209FE700209DE74A
:104B000002209EE7002401400400002083DE1B43B6
:104B100030B583B00023019303689A6812F0010F47
:104B200033D104469A6842F001029A60184B1B6820
:104B3000184AA2FB03239B0C019302E0019B013B5B
:104B40000193019B002BF9D1FFF760FE0546236816
:104B50009B6813F0010F16D1FFF758FE431B022B81
:104B6000F5D923689B6813F0010FF0D1A36A43F0D5
:104B70001003A362E36A43F00103E362002384F8B5
:104B80002430012002E0002000E0002003B030BD0E
:104B90000400002083DE1B4390F82430012B68D0F2
:104BA00010B50446012380F82430FFF7B1FF002838
:104BB0005BD1A36A23F4407323F0010343F48073B1
:104BC000A36223682C4A934227D0A26A22F480125F
:104BD000A2625A6812F4806F05D0A26A22F4405291
:104BE00042F48052A262A26A12F4805F2BD0E26A81
:104BF00022F00602E262002284F824206FF0020212
:104C00001A6023689A6802F46022B2F5602F1DD002
:104C10009A6842F480129A602AE0A2F58062526893
:104C200012F4702FD1D0A26A42F48012A262134A09
:104C3000526812F4806FD6D0A26A22F4405242F435
:104C40008052A262CFE70022E262D4E70A4A93428E
:104C500004D09A6842F4A0029A6009E0A2F580624A
:104C6000526812F4702FD3D1F3E7002384F8243074
:104C700010BD0220704700BF002801400024014001
:104C800038B503689A6812F0010F01D1002038BDD1
:104C900004469A6822F001029A60FFF7B7FD0546C4
:104CA00023689B6813F0010F13D0FFF7AFFD431B80
:104CB000022BF5D923689B6813F0010FF0D0A36A8B
:104CC00043F01003A362E36A43F00103E3620120AF
:104CD000DDE70020DBE70000002800F0888070B5E9
:104CE0000446836A002B52D02046FFF7C9FFA36A0F
:104CF00013F0100375D1002873D1A26A22F48852F0
:104D000022F0020242F00202A26262682668394979
:104D10008E4242D0E1690A43217B42EA4102A56802
:104D2000B5F5807F02D0012D3ED01D4694F814C009
:104D3000BCF1010F3BD0716821F4694129437160D6
:104D40002568AE682C4931401143A960A168B1F5CE
:104D5000807F01D0012902D12369013B1B05256811
:104D6000E96A21F470010B43EB6223689968234BD5
:104D70000B409A422CD0A36A23F0120343F0100395
:104D8000A362E36A43F00103E36201202EE0C36201
:104D900080F82430FCF726F9A6E7E169B1F5402F49
:104DA000B9D14FF40021B6E74FF48075BEE731B9B1
:104DB000A169013945EA413141F40065BBE7A16AC7
:104DC00041F02001A162E16A41F00101E162B2E734
:104DD0000023E362A36A23F0030343F00103A36209
:104DE00004E0A36A43F01003A362012070BD012018
:104DF000704700BF003C0140FDF7E1FFFE0E1FFFC2
:104E0000074AD36823F4E0631B041B0C000200F480
:104E1000E060034343F0BF6343F40033D360704763
:104E200000ED00E000B5194BDB68C3F30223C3F1CA
:104E3000070CBCF1040F28BF4FF0040C03F1040E63
:104E4000BEF1060F18D9033B4FF0FF3E0EFA0CFCE3
:104E500021EA0C0199400EFA03F322EA03031943F5
:104E600000280BDB0901C9B200F1604000F5614088
:104E700080F800135DF804FB0023E5E700F00F0065
:104E80000901C9B2024B1954F4E700BF00ED00E07C
:104E900014ED00E0002807DB00F01F0240090123A9
:104EA0009340024A42F82030704700BF00E100E022
:104EB00070B582B00024A446B0E0874DAA4210D05D
:104EC00007D9864DAA420CD005F58035AA4208D0F4
:104ED00013E0A5F58015AA4203D005F57025AA4276
:104EE00007D18A68002A62D0012A5BD04361082476
:104EF00003E0A5F58015AA42F3D0BEF1FF0F58D804
:104F00000646BEF1FF0F56D84FEA8C0233680F25D4
:104F1000954023EA050304FA02F2134333604B6819
:104F200013F0805F78D06E4B9A6942F001029A616B
:104F30009B6903F001030193019B4FEA9C02951CBE
:104F4000684B53F825600CF003039D000F23AB4022
:104F500026EA0306644B984233D003F580639842F7
:104F600000F0988003F58063984200F0958003F587
:104F70008063984200F0928003F58063984200F0CD
:104F80008F8003F58063984219D006231AE0CC681D
:104F9000B3E7CC680434B0E7CC680834ADE7CC683C
:104FA0000C34AAE703610824A7E70024A5E704243A
:104FB000A3E7061DA5E7ACF108029200A6E70523CA
:104FC00000E00023AB4033430232464D45F8223027
:104FD0004B6813F4803F65D0444A136843EA0E03DC
:104FE00013604B6813F4003F62D0404A536843EAB1
:104FF0000E0353604B6813F4801F5FD03B4A9368E5
:1050000043EA0E0393604B6813F4001F5CD0374AE9
:10501000D36843EA0E03D3600CF1010C0A6832FA3C
:105020000CF357D0012303FA0CF302EA030E33EA20
:105030000202F1D14A68122A3FF63FAF122A3FF628
:105040005CAF01A555F822F0E34E00088F4F000831
:10505000994F0008AB4F0008FB4E0008FB4E0008BC
:10506000FB4E0008FB4E0008FB4E0008FB4E0008FC
:10507000FB4E0008FB4E0008FB4E0008FB4E0008EC
:10508000FB4E0008FB4E0008FB4E0008934F000843
:105090009F4F0008012395E7022393E7032391E73D
:1050A00004238FE7114A136823EA0E03136098E77D
:1050B0000E4A536823EA0E0353609BE70B4A93683A
:1050C00023EA0E0393609EE7084AD36823EA0E039F
:1050D000D360A1E702B070BD0000221000003110C3
:1050E000001002400000014000080140000401409F
:1050F0000AB101617047090401617047C36801EAA0
:10510000030221EA030141EA024101617047000004
:1051100082B0084B1B68084AA2FB03235B0A00FB12
:1051200003F3019300BF019B5A1E0192002BF9D19A
:1051300002B0704704000020D34D6210002800F038
:10514000F18170B582B00446036813F0010F2CD0D2
:10515000994B5B6803F00C03042B1DD0964B5B68E6
:1051600003F00C03082B12D06368B3F5803F41D0E5
:10517000002B55D103F1804303F504331A6822F460
:1051800080321A601A6822F480221A6037E08A4B53
:105190005B6813F4803FE7D0874B1B6813F4003F34
:1051A00003D06368002B00F0BF81236813F0020F67
:1051B00075D0814B5B6813F00C0F5FD07E4B5B6842
:1051C00003F00C03082B54D02369002B00F08A80D5
:1051D0007A4B01221A60FFF719FB0546764B1B68D4
:1051E00013F0020F75D1FFF711FB401B0228F5D910
:1051F00003209EE1704A136843F4803313606368B0
:1052000043B3FFF703FB05466B4B1B6813F4003FEA
:10521000CBD1FFF7FBFA401B6428F5D9032088E1C6
:10522000B3F5A02F09D0644B1A6822F480321A60BB
:105230001A6822F480221A60E1E703F18043A3F5A3
:105240003C331A6842F480221A601A6842F48032B1
:105250001A60D4E7FFF7DAFA0546574B1B6813F4D8
:10526000003FA2D0FFF7D2FA401B6428F5D90320F3
:105270005FE1514B5B6813F4803FA5D14E4B1B6837
:1052800013F0020F03D02369012B40F04F814A4AEB
:10529000136823F0F803616943EAC10313602368CC
:1052A00013F0080F33D0A369002B5CD0434B0122CD
:1052B000C3F88024FFF7AAFA05463F4B5B6A13F058
:1052C000020F21D1FFF7A2FA401B0228F5D90320D3
:1052D0002FE1394A136823F0F803616943EAC103F7
:1052E0001360DCE7354B00221A60FFF78FFA0546A2
:1052F000314B1B6813F0020FD1D0FFF787FA401B28
:105300000228F5D9032014E10120FFF701FF2368EB
:1053100013F0040F00F09680274BDB6913F0805FD9
:1053200034D1254BDA6942F08052DA61DB6903F04F
:1053300080530193019B0125214B1B6813F4807F4F
:1053400026D0E368012B3DD0002B53D103F18043DD
:1053500003F504331A6A22F001021A621A6A22F073
:1053600004021A6233E0154B0022C3F88024FFF7D1
:105370004DFA0546104B5B6A13F0020FC7D0FFF7DA
:1053800045FA401B0228F5D90320D2E00025D3E7D7
:105390000B4A136843F480731360FFF737FA06462D
:1053A000074B1B6813F4807FCBD1FFF72FFA801BCC
:1053B0006428F5D90320BCE00010024000004242FE
:1053C000007000405F4A136A43F001031362E36810
:1053D00033B3FFF71BFA06465A4B1B6A13F0020F52
:1053E0002FD1FFF713FA801B41F288339842F3D98B
:1053F00003209EE0052B09D0524B1A6A22F00102CD
:105400001A621A6A22F004021A62E0E74D4B1A6A25
:1054100042F004021A621A6A42F001021A62D6E7E6
:10542000FFF7F4F90646474B1B6A13F0020F08D04A
:10543000FFF7ECF9801B41F288339842F3D903203F
:1054400077E0E5B9E369002B72D03E4A526802F07A
:105450000C02082A56D0022B17D03B4B00221A66AA
:10546000FFF7D4F90446374B1B6813F0007F47D091
:10547000FFF7CCF9001B0228F5D9032059E0314A87
:10548000D36923F08053D361DCE72F4B00221A66E7
:10549000FFF7BCF905462B4B1B6813F0007F06D0C5
:1054A000FFF7B4F9401B0228F5D9032041E0236A35
:1054B000B3F5803F1AD023494B6823F47413226A52
:1054C000606A024313434B601F4B01221A66FFF7C9
:1054D0009DF904461B4B1B6813F0007F0ED1FFF7AC
:1054E00095F9001B0228F5D9032022E0154A5368DC
:1054F00023F40033A1680B435360DCE7002018E07D
:10550000002016E0012B16D00E4B5B6803F48031AF
:10551000226A914211D103F47013626A93420ED150
:10552000002006E001207047012002E0012000E099
:10553000002002B070BD0120FBE70120F9E7012047
:10554000F7E700BF001002400000424286B0174B50
:105550000FCB0DF1180C0CE90F0040F20123ADF850
:105560000430134B5B6803F00C02082A02D0114888
:1055700006B07047C3F3834218326A4412F8100C25
:1055800013F4803F0DD00A4B5B68C3F340431833DC
:105590006B4413F8143C074A02FB00F0B0FBF3F035
:1055A000E6E7054B03FB00F0E2E700BF80F30008ED
:1055B0000010024000127A0000093D00002800F0AF
:1055C000A08070B50D460446524B1B6803F00703DC
:1055D0008B420BD24F4A136823F007030B4313602F
:1055E000136803F007038B4240F08D80236813F0AB
:1055F000020F17D013F0040F04D0474A536843F446
:10560000E0635360236813F0080F04D0424A5368E4
:1056100043F460535360404A536823F0F003A16899
:105620000B435360236813F0010F31D06368012BE3
:1056300020D0022B25D0384A126812F0020F64D015
:1056400035494A6822F0030213434B60FFF7DEF846
:105650000646314B5B6803F00C036268B3EB820FC4
:1056600016D0FFF7D3F8801B41F288339842F0D967
:10567000032045E0284A126812F4003FE0D10120DF
:105680003EE0254A126812F0007FD9D1012037E0B0
:10569000204B1B6803F00703AB420AD91D4A13686D
:1056A00023F007032B431360136803F00703AB4297
:1056B0002DD1236813F0040F06D0174A536823F442
:1056C000E063E1680B435360236813F0080F07D0D1
:1056D000114A536823F46053216943EAC1035360BC
:1056E000FFF734FF0C4B5B68C3F303130B4AD35C27
:1056F000D8400B4B18600B4B1868FEF7C3FF002017
:1057000070BD012070470120FAE70120F8E7012071
:10571000F6E700BF002002400010024068F30008D6
:10572000040000200C000020014B1868704700BFE7
:105730000400002008B5FFF7F7FF044B5B68C3F3D4
:105740000223034AD35CD84008BD00BF00100240CA
:1057500078F3000808B5FFF7E7FF044B5B68C3F375
:10576000C223034AD35CD84008BD00BF00100240EA
:1057700078F300080F2303600B4B5A6802F0030212
:1057800042605A6802F0F00282605A6802F4E062F5
:10579000C2605B68DB0803F4E0630361034B1B68D2
:1057A00003F007030B607047001002400020024026
:1057B00070B582B00446036813F0010F36D03F4B3A
:1057C000DB6913F0805F49D13C4BDA6942F08052CB
:1057D000DA61DB6903F080530193019B0125384BAB
:1057E0001B6813F4807F3BD0344B1B6A13F4407367
:1057F00013D0626802F440729A420ED02F4A136AA4
:1058000023F440702F490126C1F840640026C1F8F6
:105810004064106213F0010F36D1284A136A23F452
:10582000407361680B431362002D3ED1236813F06F
:10583000020F06D0214A536823F44043A1680B436A
:105840005360236813F0100F34D01C4A536823F4BC
:10585000800361690B43536000202CE00025BEE704
:10586000174A136843F480731360FEF7CFFF0646B0
:10587000134B1B6813F4807FB6D1FEF7C7FF801B64
:105880006428F5D9032016E0FEF7C0FF06460B4B4F
:105890001B6A13F0020FC0D1FEF7B8FF801B41F264
:1058A00088339842F3D9032005E0D36923F080536D
:1058B000D361BBE7002002B070BD00BF0010024002
:1058C000007000400000424200B587B084463E4B65
:1058D0000FCB0DF1180E0EE90F0040F20123ADF8C9
:1058E00004300CF1FF300F2867D8DFE800F0395B97
:1058F0006633666666366666666666666608334B57
:105900005A68186810F0807058D0C2F38343183377
:105910006B4413F8100C12F4803F17D02B4B5B68CC
:10592000C3F3404318336B4413F8142C284BB3FBD8
:10593000F2F303FB00F0254B5B6813F4800F3DD1BD
:105940004000244BA3FB0030400837E0224B03FB10
:1059500000F0F0E7FFF7FAFD30E0FFF7F7FD2DE08C
:105960001A4B1B6A40F202321A40B2F5817F28D0EE
:1059700003F44073B3F5007F04D0B3F5407F09D042
:1059800000201BE0114A526A12F0020FF5D049F6CE
:10599000404013E00D4B186810F400300ED04FF269
:1059A00024400BE0FFF7D6FE084B5B68C3F381335E
:1059B00001335B00B0FBF3F000E0002007B05DF8BE
:1059C00004FB4FF40040F9E780F3000800100240A8
:1059D00000127A00ABAAAAAA00093D007047000095
:1059E00090F83D30DBB2012B2FD1022380F83D30FF
:1059F0000268D36843F00103D3600368154A9342F9
:105A000018D002F50062934214D0B3F1804F11D048
:105A1000A2F5983293420DD002F58062934209D0EC
:105A200002F58062934205D01A6842F001021A60C2
:105A3000002070479A6802F00702062A07D01A6809
:105A400042F001021A6000207047012070470020D8
:105A5000704700BF002C0140704770477047704787
:105A600010B5044603681A6912F0020F11D0DA6803
:105A700012F0020F0DD06FF002021A6101230377BA
:105A800003689B6913F0030F70D0FFF7E6FF002354
:105A9000237723681A6912F0040F12D0DA6812F023
:105AA000040F0ED06FF004021A61022323772368DB
:105AB0009B6913F4407F5FD02046FFF7CEFF0023A1
:105AC000237723681A6912F0080F12D0DA6812F0EF
:105AD000080F0ED06FF008021A61042323772368A1
