:020000040800F2
:1000000000C00020AD750008B9400008BB400008E2
:10001000BD400008BF400008C140000800000000CB
:10002000000000000000000000000000315800083F
:10003000C340000800000000D1580008155900080E
:10004000F5750008F5750008F5750008C54000084D
:10005000F5750008F5750008F5750008F5750008D8
:10006000F5750008F5750008F5750008F5750008C8
:10007000F5750008F5750008F5750008F5750008B8
:10008000F5750008F5750008F5750008F5750008A8
:10009000F5750008F5750008F5750008F575000898
:1000A000F5750008F5750008F5750008F575000888
:1000B000F5750008F5750008F5750008F575000878
:1000C000F5750008F5750008F5750008F575000868
:1000D000F5750008F5750008F5750008F575000858
:1000E000F5750008F5750008F5750008F575000848
:1000F000F5750008F5750008F5750008F575000838
:10010000F5750008F5750008F5750008F575000827
:10011000F5750008F5750008D5400008F57500086C
:10012000F5750008F5750008F5750008F575000807
:1001300000000000000000000000000000000000BF
:1001400000000000000000000000000000000000AF
:10015000000000000000000000000000000000009F
:10016000000000000000000000000000000000008F
:10017000000000000000000000000000000000007F
:10018000000000000000000000000000000000006F
:10019000000000000000000000000000000000005F
:1001A000000000000000000000000000000000004F
:1001B000000000000000000000000000000000003F
:1001C000000000000000000000000000000000002F
:1001D000000000000000000000000000000000001F
:0401E0005FF8E0F1F3
:1001F00010B5054C237833B9044B13B10448AFF361
:1002000000800123237010BD440400200000000082
:10021000C477000808B5034B1BB103490348AFF38B
:10022000008008BD0000000048040020C4770008DA
:1002300070B54FF0FF0C4CF4E06C1CEA11541DBF7C
:100240001CEA135594EA0C0F95EA0C0F00F0DEF847
:100250002C4481EA030621EA4C5123EA4C5350EA2C
:10026000013518BF52EA033541F4801143F480137D
:1002700038D0A0FB02CE4FF00005E1FB02E506F00E
:100280000042E0FB03E54FF00006E1FB03569CF063
:10029000000F18BF4EF0010EA4F1FF04B6F5007F69
:1002A00064F5407404D25FEA4E0E6D4146EB0606DB
:1002B00042EAC62141EA55514FEAC52040EA5E5064
:1002C0004FEACE2EB4F1FD0C88BFBCF5E06F1ED80E
:1002D000BEF1004F08BF5FEA500E50F1000041EB45
:1002E000045170BD06F0004646EA010140EA0200F2
:1002F00081EA0301B4EB5C04C2BFD4EB0C0541EA14
:10030000045170BD41F480114FF0000E013C00F328
:10031000AB8014F1360FDEBF002001F0004170BD4C
:10032000C4F10004203C35DA0C341BDC04F1140465
:10033000C4F1200500FA05F320FA04F001FA05F2F1
:1003400040EA020001F0004221F0004110EBD370BE
:1003500021FA04F642EB06015EEA430E08BF20EAEA
:10036000D37070BDC4F10C04C4F1200500FA04F38D
:1003700020FA05F001FA04F240EA020001F000411F
:1003800010EBD37041F100015EEA430E08BF20EA92
:10039000D37070BDC4F1200500FA05F24EEA020EDA
:1003A00020FA04F301FA05F243EA020321FA04F009
:1003B00001F0004121FA04F220EA020000EBD370C0
:1003C0005EEA430E08BF20EAD37070BD94F0000FC0
:1003D0000FD101F00046400041EB010111F4801FF4
:1003E00008BF013CF7D041EA060195F0000F18BFA5
:1003F000704703F00046520043EB030313F4801FE1
:1004000008BF013DF7D043EA0603704794EA0C0F9A
:100410000CEA135518BF95EA0C0F0CD050EA4106B0
:1004200018BF52EA4306D1D181EA030101F000412D
:100430004FF0000070BD50EA410606BF1046194655
:1004400052EA430619D094EA0C0F02D150EA013661
:1004500013D195EA0C0F05D152EA03361CBF1046A2
:1004600019460AD181EA030101F0004141F0FE4141
:1004700041F470014FF0000070BD41F0FE4141F4C5
:10048000780170BD81F0004102E000BF83F00043BD
:1004900030B54FEA41044FEA430594EA050F08BF1F
:1004A00090EA020F1FBF54EA000C55EA020C7FEAE3
:1004B000645C7FEA655C00F0E2804FEA5454D4EB60
:1004C0005555B8BF6D420CDD2C4480EA020281EA2A
:1004D000030382EA000083EA010180EA020281EA62
:1004E0000303362D88BF30BD11F0004F4FEA0131B4
:1004F0004FF4801C4CEA113102D0404261EB4101C3
:1005000013F0004F4FEA03334CEA133302D0524248
:1005100063EB430394EA050F00F0A780A4F1010404
:10052000D5F1200E0DDB02FA0EFC22FA05F280183E
:1005300041F1000103FA0EF2801843FA05F3594124
:100540000EE0A5F120050EF1200E012A03FA0EFCA3
:1005500028BF4CF0020C43FA05F3C01851EBE371CD
:1005600001F0004507D54FF0000EDCF1000C7EEBEA
:1005700000006EEB0101B1F5801F1BD3B1F5001F28
:100580000CD349085FEA30004FEA3C0C04F1010447
:100590004FEA445212F5800F80F09A80BCF1004F70
:1005A00008BF5FEA500C50F1000041EB045141EAF2
:1005B000050130BD5FEA4C0C404141EB0101013CBB
:1005C00028BFB1F5801FE9D291F0000F04BF0146AA
:1005D0000020B1FA81F308BF2033A3F10B03B3F17C
:1005E00020020CDA0C3208DD02F1140CC2F10C020C
:1005F00001FA0CF021FA02F10CE002F11402D8BF6A
:10060000C2F1200C01FA02F120FA0CFCDCBF41EA35
:100610000C019040E41AA2BF01EB0451294330BD04
:100620006FEA04041F3C1CDA0C340EDC04F11404E1
:10063000C4F1200220FA04F001FA02F340EA0300B8
:1006400021FA04F345EA030130BDC4F10C04C4F1FE
:10065000200220FA02F001FA04F340EA03002946DE
:1006600030BD21FA04F0294630BD94F0000F83F428
:10067000801306BF81F480110134013D4EE77FEA0B
:10068000645C18BF7FEA655C29D094EA050F08BF57
:1006900090EA020F05D054EA000C04BF1946104638
:1006A00030BD91EA030F1EBF0021002030BD5FEA7C
:1006B000545C05D14000494128BF41F0004130BDA4
:1006C00014F580043CBF01F5801130BD01F00045F8
:1006D00045F0FE4141F470014FF0000030BD7FEA6B
:1006E000645C1ABF194610467FEA655C1CBF0B4666
:1006F000024650EA013406BF52EA033591EA030F7D
:1007000041F4002130BD00BF90F0000F04BF002174
:10071000704730B54FF4806404F132044FF00005A7
:100720004FF0000150E700BF90F0000F04BF002120
:10073000704730B54FF4806404F1320410F0004586
:1007400048BF40424FF000013EE700BF42004FEA81
:10075000E2014FEA31014FEA02701FBF12F07F43FE
:1007600093F07F4F81F06051704732F07F4208BFB5
:10077000704793F07F4F04BF41F40021704730B5BC
:100780004FF4607401F0004521F000411CE700BF08
:1007900050EA010208BF704730B54FF000050AE08B
:1007A00050EA010208BF704730B511F0004502D58C
:1007B000404261EB41014FF4806404F132045FEA8E
:1007C000915C3FF4D8AE4FF003025FEADC0C18BF37
:1007D00003325FEADC0C18BF033202EBDC02C2F129
:1007E000200300FA03FC20FA02F001FA03FE40EABB
:1007F0000E0021FA02F11444BDE600BF4A0011D2F6
:1008000012F5001211D20DD56FF47873B3EB62526A
:100810000ED44FEAC12343F0004343EA505323FA76
:1008200002F070474FF00000704750EA013002D1EB
:100830004FF0FF3070474FF000007047844641EAA8
:10084000000313F0030349D1403A23D30B6803603C
:100850004B6843608B688360CB68C3600B6903613E
:100860004B6943618B698361CB69C3610B6A036226
:100870004B6A43628B6A8362CB6AC3620B6B03630E
:100880004B6B43638B6B8363CB6BC36340304031F3
:10089000403ADBD230320BD30B6803604B684360C5
:1008A0008B688360CB68C36010301031103AF3D28C
:1008B0000C3205D351F8043B40F8043B043AF9D21A
:1008C000043208D0D2071CBF11F8013B00F8013BED
:1008D00001D30B8803806046704700BF082A13D3FA
:1008E0008B07B1D010F00303AED0C3F10403D21ACA
:1008F000DB071CBF11F8013B00F8013BA4D331F822
:10090000023B20F8023B9FE7043AD9D3013A11F8A1
:10091000013B00F8013BF9D20B7803704B78437030
:100920008B7883706046704730B583B02A4B186867
:1009300005F012FE0546294B01931024009418235C
:10094000A0223221142003F041FA009402232A4607
:100950003221A02003F0F0F9214B019300941823D9
:10096000A0225021142003F031FA1CE01D4B01930A
:10097000102300931823A0226421142003F026FAE8
:100980004FF4967006F0BAF9134B186805F0E4FDC1
:1009900002461023009302235021A02003F0CCF93B
:1009A0000A2006F0ABF920210F4803F04DFD002886
:1009B000EAD16421084B186805F0FBFC0128D5D06A
:1009C0000A4B0193102300931823A02278211420AE
:1009D00003F0FCF9D4E700BF60040020DC770008D6
:1009E000EC7700080078000800100140107800083B
:1009F00008B5074A0521084604F00CFE054B1860AF
:100A0000054A0021054804F08FFD054B186008BD1C
:100A10003C780008600400204C7800082909000890
:100A2000640400202DE9F04188B00024049405946A
:100A300006940794244B9A6942F010029A619A69CD
:100A400002F010020192019A9A6942F020029A6122
:100A50009A6902F020020292029A9A6942F0040214
:100A60009A619B6903F004030393039BDFF85C80A6
:100A700022464FF48071404603F0EDFC144E2246AE
:100A80000421304603F0E7FC20230493059401255C
:100A9000069504A90F4803F0B7FB4FF48073049345
:100AA000059506940227079704A9404603F0ACFB7E
:100AB0000423049305950694079704A9304603F090
:100AC000A3FB08B0BDE8F08100100240000801401F
:100AD0000014014000100140064B4FF480725A612F
:100AE0004FF400725A610449C8608021596119614C
:100AF0001A61704700100140000C0140064B4FF492
:100B000080721A614FF400725A610449C8608021F2
:100B1000596119611A61704700100140000C0140D1
:100B200010B4104B4FF088321A605A600022DA601D
:100B300002F1804202F588324FF4807111614FF466
:100B400000715161402454619868146111614FF043
:100B500033321A605A604FF6FF72DA6080B210BC0E
:100B6000704700BF000C014010B50C46FFF7B4FF02
:100B7000064B4FF480721A614FF400725A610449B7
:100B8000CC608021596119611A6110BD00100140CB
:100B9000000C014008B5024B1889FFF79DFF08BD06
:100BA0006C0400202DE9F84F06460D468E4B9B88BD
:100BB00041F66312934245D045F21052934200F041
:100BC000C780DFF824B2BBF80A00FFF785FF874C27
:100BD0004FF4807AC4F810A04FF400776761330AAD
:100BE000DFF80C92C9F80C304FF08008C4F814807C
:100BF000C4F810802761C4F810A06761F6B2C9F884
:100C00000C60C4F81480C4F810802761BBF80C0095
:100C1000FFF762FFC4F810A067612B0AC9F80C3017
:100C2000C4F81480C4F810802761C4F810A067616C
:100C3000EDB2C9F80C50C4F81480C4F810802761D4
:100C4000BDE8F88F684B9B79002B54D1664B1C880C
:100C5000241AA4B2013CA4B25889FFF73DFF634BAC
:100C60004FF480761E614FF400725A61604800278D
:100C7000C7608021596119611A611E615A61C7609C
:100C8000596119611A611E615A61270AC760596169
:100C900019611A611E615A61E4B2C4605961196137
:100CA0001A61514FB889FFF717FF504B4FF4807608
:100CB0001E614FF400725A61290A4D4CE160802098
:100CC000586118611A611E615A61EDB2E5605861A0
:100CD00018611A611E615A61798801390D12E56047
:100CE000586118611A611E615A61C9B2E1605861A8
:100CF00018611A61A4E7DFF8F080B8F80A00FFF77E
:100D0000EBFE3A4B4FF480771F614FF400725A614B
:100D1000310A374CE1608021596119611A611F6104
:100D20005A61F6B2E660596119611A611F615A6130
:100D3000B8F8000001380612E660596119611A61BD
:100D40001F615A61C0B2E060596119611A61A8E778
:100D5000DFF894B0BBF80A00FFF7BEFE234C4FF457
:100D6000807AC4F810A04FF400776761330ADFF887
:100D70008090C9F80C304FF08008C4F81480C4F893
:100D800010802761BBF80A00013080B2FFF7A4FE93
:100D9000C4F810A06761F6B2C9F80C60C4F81480FA
:100DA000C4F810802761BBF80C00FFF795FEC4F86B
:100DB00010A067612B0AC9F80C30C4F81480C4F87D
:100DC00010802761BBF80C00013080B2FFF784FE71
:100DD000C4F810A06761EDB2C9F80C50C4F81480D3
:100DE000C4F8108027612BE76C040020001001403C
:100DF000000C01402DE9F0476A4B9B79012B10D084
:100E00002BB9684B9A8841F663139A420FD0013888
:100E1000062800F2B880DFE800F0A8A6A4A2A09EF1
:100E20001600604A918841F663129142E8D0072883
:100E3000EDD8DFE800F0A6A4A0A206049E9C002442
:100E400002E0802400E0E024564B9B8845F21052DB
:100E5000934200F09A80362049F24132934203D007
:100E600047F28972934201D144F008042146FFF70A
:100E70007BFE4C4B9B8841F6631293420BD014F0DF
:100E8000200F00F08580474A11885288914202D293
:100E900044480280418045F21052934200F088801D
:100EA000DFF80091B9F80A00FFF716FE3E4C4FF448
:100EB0008078C4F810804FF4007565613B4F4FF0A7
:100EC000000AC7F80CA08026666126612561C4F877
:100ED00010806561C7F80CA0666126612561C4F8C1
:100EE00010806561B9F80030013B1A12FA60666142
:100EF00026612561C4F810806561DBB2FB60666124
:100F000026612561B9F80C00FFF7E6FDC4F81080F2
:100F10006561C7F80CA0666126612561C4F8108080
:100F20006561C7F80CA0666126612561C4F8108070
:100F30006561B9F80230013B1A12FA6066612661F8
:100F40002561C4F810806561DBB2FB6066612661D3
:100F50002561BDE8F087A02476E7602474E72024AB
:100F600072E7C02470E740246EE780246CE74024D9
:100F70006AE7C02468E7202466E7602464E7E02489
:100F800062E7A02460E700245EE74FF4585063E76F
:100F9000044A1188528891427FF67DAF0148028051
:100FA000418078E76C04002000100140000C0140F3
:100FB0003D4F7889FFF790FD3C4C4FF48079C4F8A1
:100FC00010904FF400756561DFF8E4804FF0000A7F
:100FD000C8F80CA0802666612661256178890130F9
:100FE00080B2FFF779FDC4F810906561C8F80CA0D5
:100FF0006661266125617889023080B2FFF76CFD59
:10100000C4F8109065613B88013B1B12C8F80C3096
:101010006661266125617889033080B2FFF75CFD47
:10102000C4F8109065613B88013BDBB2C8F80C3016
:10103000666126612561B889FFF74EFDC4F81090FE
:101040006561C8F80CA0666126612561B889013028
:1010500080B2FFF741FDC4F810906561C8F80CA09C
:10106000666126612561B889023080B2FFF734FDE0
:10107000C4F8109065617B88013B1B12C8F80C30E6
:10108000666126612561B889033080B2FFF724FDCF
:10109000C4F8109065617B88013BDBB2C8F80C3066
:1010A00066612661256154E76C0400200010014050
:1010B000000C01402DE9F04F83B005460E46019229
:1010C000904B9B8845F21052934200F08E8041F67F
:1010D0006312934240F0D5808A4B9B792BB9894BA0
:1010E0001888451BADB2013DADB2DFF81892B9F8D2
:1010F0000A00FFF7F1FC844C4FF4807BC4F810B079
:101100004FF4007767612B0ADFF800A2CAF80C30B1
:101110004FF08008C4F81480C4F810802761C4F828
:1011200010B06761EDB2CAF80C50C4F81480C4F86E
:1011300010802761C4F810B06761CAF80C30C4F899
:101140001480C4F810802761C4F810B06761CAF831
:101150000C50C4F81480C4F810802761B9F80C0052
:10116000FFF7BAFCC4F810B06761330ACAF80C3054
:10117000C4F81480C4F810802761C4F810B0676107
:10118000F6B2CAF80C60C4F81480C4F81080276165
:10119000C4F810B06761CAF80C30C4F81480C4F801
:1011A00010802761C4F810B06761CAF80C60C4F8F9
:1011B0001480C4F810802761534B4FF480745C6135
:1011C0004FF400725A614F4909895048C16080212B
:1011D000596119611A611C615A61019CC4605961AD
:1011E00019611A6103B0BDE8F08FDFF818B1BBF8E0
:1011F0000A00FFF771FC444C4FF4807AC4F810A049
:101200004FF4007767612B0ADFF80091C9F80C30C2
:101210004FF08008C4F81480C4F810802761BBF830
:101220000A00013080B2FFF757FCC4F810A06761D4
:10123000EDB2C9F80C50C4F81480C4F810802761CE
:10124000BBF80C00FFF748FCC4F810A06761330A34
:10125000C9F80C30C4F81480C4F810802761BBF8BA
:101260000C00013080B2FFF737FCC4F810A06761B2
:10127000F6B2C9F80C60C4F81480C4F81080276175
:101280009AE7DFF88090B9F80A00FFF725FC1E4CBA
:101290004FF4807BC4F810B04FF4007767612B0ADD
:1012A000DFF868A0CAF80C304FF08008C4F814804A
:1012B000C4F810802761C4F810B06761EDB2CAF8B5
:1012C0000C50C4F81480C4F810802761B9F80C00E1
:1012D000FFF702FCC4F810B06761330ACAF80C309B
:1012E000C4F81480C4F810802761C4F810B0676196
:1012F000F6B2CAF80C60C4F81480C4F810802761F4
:101300005AE700BF6C04002000100140000C0140AF
:101310002DE9F8438146BE20FFF7DEFB224C4FF457
:101320008078C4F810804FF4007565611F4F052365
:10133000FB608026666126612561C4F810806561C6
:101340004846FFF7F1F916A3D3E90023FEF770FF33
:10135000FFF754FAF860666126612561C4F81080D1
:1013600065610123FB60666126612561C4F8108018
:101370006561FF23FB60666126612561C4F810800A
:1013800065610023FB60666126612561C4F81080F9
:101390006561FB60666126612561BDE8F88300BF79
:1013A000666666666666044000100140000C0140F7
:1013B00008B5444B9871002843D1F0221A804FF4AD
:1013C000A0725A809B8845F21052934212D041F687
:1013D000631293421FD03B4A2C2111812A21518153
:1013E0002B21918145F21032934222D00020FFF749
:1013F00001FD08BD334A4FF4305111814FF428519B
:1014000051814FF42C5191814FF4F07111804FF4C0
:1014100048715180E6E72B4A2C2111812B21518103
:101420002A2191814FF4F07111804FF4487151805D
:10143000D8E7244B4FF4A0721A804FF4F0725A8010
:10144000D4E7204B4FF4A0721A80F0225A809B8878
:1014500045F21052934216D041F66312934223D0C4
:10146000184A2C2111812A2151812B21918145F289
:1014700010329342BAD1134B4FF4F0721A804FF4EA
:10148000A0725A80B2E70F4A4FF4305111814FF4E5
:10149000285151814FF42C5191814FF448711180A2
:1014A0004FF4F0715180E2E7064A2C2111812A2184
:1014B00051812B2191814FF4487111804FF4F071CB
:1014C0005180D4E76C04002070B506460E4B1A8894
:1014D0005D8802FB05F500210846FFF763FBFFF777
:1014E00059FB00220DE0094B4FF4807119614FF454
:1014F00000715961064CE66080245C611C611961D1
:101500000132AA42EFD370BD6C04002000100140EC
:10151000000C01402DE9F04F87B0814B9A6942F0F1
:1015200008029A619A6902F008020092009A9A6988
:1015300042F010029A619B6903F010030193019B32
:101540004FF4F86302930124039404940323059356
:1015500002A9744802F058FE4FF6FF73029302A9E5
:10156000714802F051FE714A536823F0E06343F082
:1015700080635360322002F0DBFD21460020FFF73C
:10158000F3FA322002F0D4FDD320FFF7A5FAFFF7DB
:10159000C7FA674CA080FFF7C3FAA080FFF7C0FA34
:1015A000A0800002A080FFF7BBFAA388184380B296
:1015B000A08049F24133984228D15D4B9B8849F283
:1015C0004132934200F0B88047F28972934200F0B2
:1015D000C88145F21032934200F0968245F21052D3
:1015E000934201F00A8241F66312934202F0838132
:1015F0000020FFF7DDFE4F4B0122C3F8A8214FF674
:10160000FF70FFF761FF07B0BDE8F08F0420FFF720
:1016100063FAFFF785FAA080FFF782FAA080FFF750
:101620007FFAA0800002A080FFF77AFAA38818430F
:1016300080B2A08048F2525398426CD03C4B9A88BA
:1016400047F289739A42B8D0D420FFF745FAFFF7E2
:1016500067FA374CA080FFF763FAA080FFF760FAC3
:10166000A0800002A080FFF75BFAA388184380B235
:10167000A08045F2103398429FD055214FF470401E
:10168000FFF772FAAA214FF20100FFF76DFA52211B
:101690004FF20200FFF768FA08214FF20300FFF74C
:1016A00063FA01214FF20400FFF75EFA4FF4454060
:1016B000FFF712FAFFF734FAA0800002A0804CF284
:1016C0000150FFF709FAFFF72BFAA3881843A0800F
:1016D000052002F02DFDA28845F210539A423FF4F6
:1016E0006CAFA120FFF7F8F9FFF71AFAA080FFF717
:1016F00017FAA0800002A080FFF712FAA388034324
:101700009BB2A38045F2617293427FF456AF41F6DB
:101710006312A28051E747F28972A2808EE700BF70
:101720000010024000100140000C01400000014088
:101730006C04002000002242CF20FFF7CDF90020EA
:10174000FFF7DCF9C120FFF7D9F93020FFF7D6F910
:10175000ED20FFF7C1F96420FFF7D0F90320FFF770
:10176000CDF91220FFF7CAF98120FFF7C7F9E82069
:10177000FFF7B2F98520FFF7C1F91020FFF7BEF996
:101780007A20FFF7BBF9CB20FFF7A6F93920FFF746
:10179000B5F92C20FFF7B2F90020FFF7AFF934209C
:1017A000FFF7ACF90220FFF7A9F9F720FFF794F94A
:1017B0002020FFF7A3F9EA20FFF78EF90020FFF7BA
:1017C0009DF90020FFF79AF9C020FFF785F91B204B
:1017D000FFF794F9C120FFF77FF90120FFF78EF999
:1017E000C520FFF779F93020FFF788F93020FFF79F
:1017F00085F9C720FFF770F9B720FFF77FF936208A
:10180000FFF76AF94820FFF779F93A20FFF764F902
:101810005520FFF773F9B120FFF75EF90020FFF7BD
:101820006DF91A20FFF76AF9B620FFF755F90A207B
:10183000FFF764F9A220FFF761F9F220FFF74CF9F6
:101840000020FFF75BF92620FFF746F90120FFF79C
:1018500055F9E020FFF740F90F20FFF74FF92A2054
:10186000FFF74CF92820FFF749F90820FFF746F960
:101870000E20FFF743F90820FFF740F95420FFF747
:101880003DF9A920FFF73AF94320FFF737F90A207D
:10189000FFF734F90F20FFF731F90020FFF72EF999
:1018A0000020FFF72BF90020FFF728F90020FFF7B1
:1018B00025F9E120FFF710F90020FFF71FF91520A7
:1018C000FFF71CF91720FFF719F90720FFF716F9A2
:1018D0001120FFF713F90620FFF710F92B20FFF76F
:1018E0000DF95620FFF70AF93C20FFF707F905200C
:1018F000FFF704F91020FFF701F90F20FFF7FEF8BA
:101900003F20FFF7FBF83F20FFF7F8F80F20FFF725
:10191000F5F82B20FFF7E0F80020FFF7EFF80020A4
:10192000FFF7ECF80120FFF7E9F83F20FFF7E6F8B2
:101930002A20FFF7D1F80020FFF7E0F80020FFF79A
:10194000DDF80020FFF7DAF8EF20FFF7D7F81120D5
:10195000FFF7C2F8782002F0EBFB2920FFF7BCF874
:1019600046E61120FFF7B8F8782002F0E1FB3620B8
:10197000FFF7B2F80020FFF7C1F83A20FFF7ACF804
:101980000520FFF7BBF8B220FFF7A6F80C20FFF701
:10199000B5F80C20FFF7B2F80020FFF7AFF83320BE
:1019A000FFF7ACF83320FFF7A9F8B720FFF794F85A
:1019B0003520FFF7A3F8BB20FFF78EF83220FFF7A2
:1019C0009DF8C020FFF788F80C20FFF797F8C22099
:1019D000FFF782F80120FFF791F8C320FFF77CF8AA
:1019E0001020FFF78BF8C420FFF776F82020FFF7D0
:1019F00085F8C620FFF770F80F20FFF77FF8D0209A
:101A0000FFF76AF8A420FFF779F8A120FFF776F82E
:101A1000E020FFF761F8D020FFF770F80020FFF713
:101A20006DF80220FFF76AF80720FFF767F80A2031
:101A3000FFF764F82820FFF761F83220FFF75EF81F
:101A40004420FFF75BF84220FFF758F80620FFF725
:101A500055F80E20FFF752F81220FFF74FF8142028
:101A6000FFF74CF81720FFF749F8E120FFF734F8AB
:101A7000D020FFF743F80020FFF740F80220FFF7DF
:101A80003DF80720FFF73AF80A20FFF737F828203B
:101A9000FFF734F83120FFF731F85420FFF72EF824
:101AA0004720FFF72BF80E20FFF728F81C20FFF740
:101AB00025F81720FFF722F81B20FFF71FF81E203C
:101AC000FFF71CF82A20FFF707F80020FFF716F8A9
:101AD0000020FFF713F80020FFF710F8EF20FFF7C2
:101AE0000DF82B20FEF7F8FF0020FFF707F8002085
:101AF000FFF704F80120FFF701F83F20FEF7FEFF93
:101B00002920FEF7E9FF73E5ED20FEF7E5FF012050
:101B1000FEF7F4FFFE20FEF7F1FFEE20FEF7DCFFFC
:101B2000DE20FEF7EBFF2120FEF7E8FFF120FEF7B5
:101B3000D3FF0120FEF7E2FFDF20FEF7CDFF1020EC
:101B4000FEF7DCFFC420FEF7C7FF8F20FEF7D6FFAD
:101B5000C620FEF7C1FF0020FEF7D0FFE220FEF70F
:101B6000CDFFE220FEF7CAFFE220FEF7C7FFBF204D
:101B7000FEF7B2FFAA20FEF7C1FFB020FEF7ACFFD0
:101B80000D20FEF7BBFF0020FEF7B8FF0D20FEF78B
:101B9000B5FF0020FEF7B2FF1120FEF7AFFF0020D7
:101BA000FEF7ACFF1920FEF7A9FF0020FEF7A6FF05
:101BB0002120FEF7A3FF0020FEF7A0FF2D20FEF757
:101BC0009DFF0020FEF79AFF3D20FEF797FF0020C3
:101BD000FEF794FF5D20FEF791FF0020FEF78EFFD9
:101BE0005D20FEF78BFF0020FEF788FFB120FEF797
:101BF00073FF8020FEF782FF0020FEF77FFF8B201F
:101C0000FEF77CFF0020FEF779FF9620FEF776FFB7
:101C10000020FEF773FFB220FEF75EFF0020FEF704
:101C20006DFF0020FEF76AFF0220FEF767FF00202D
:101C3000FEF764FF0320FEF761FF0020FEF75EFF62
:101C4000B320FEF749FF0020FEF758FF0020FEF703
:101C500055FF0020FEF752FF0020FEF74FFF002047
:101C6000FEF74CFF0020FEF749FF0020FEF746FF7D
:101C70000020FEF743FF0020FEF740FF0020FEF7A4
:101C80003DFF0020FEF73AFF0020FEF737FF00205F
:101C9000FEF734FF0020FEF731FF0020FEF72EFF95
:101CA0000020FEF72BFF0020FEF728FF0020FEF7A4
:101CB00025FF0020FEF722FF0020FEF71FFF002077
:101CC000FEF71CFF0020FEF719FF0020FEF716FFAD
:101CD0000020FEF713FFB420FEF7FEFE8B20FEF778
:101CE0000DFF0020FEF70AFF9620FEF707FF0020F9
:101CF000FEF704FFA120FEF701FF0020FEF7FEFE25
:101D0000B520FEF7E9FE0220FEF7F8FE0020FEF700
:101D1000F5FE0320FEF7F2FE0020FEF7EFFE0420A2
:101D2000FEF7ECFE0020FEF7E9FEB620FEF7D4FE3B
:101D30000020FEF7E3FE0020FEF7E0FEB720FEF7EE
:101D4000CBFE0020FEF7DAFE0020FEF7D7FE3F2094
:101D5000FEF7D4FE0020FEF7D1FE5E20FEF7CEFE99
:101D60000020FEF7CBFE6420FEF7C8FE0020FEF741
:101D7000C5FE8C20FEF7C2FE0020FEF7BFFEAC20A1
:101D8000FEF7BCFE0020FEF7B9FEDC20FEF7B6FE33
:101D90000020FEF7B3FE7020FEF7B0FE0020FEF735
:101DA000ADFE9020FEF7AAFE0020FEF7A7FEEB2076
:101DB000FEF7A4FE0020FEF7A1FEDC20FEF79EFE4B
:101DC0000020FEF79BFEB820FEF786FE0020FEF7FF
:101DD00095FE0020FEF792FE0020FEF78FFE002009
:101DE000FEF78CFE0020FEF789FE0020FEF786FE3F
:101DF0000020FEF783FE0020FEF780FEBA20FEF7EB
:101E00006BFE2420FEF77AFE0020FEF777FE00200E
:101E1000FEF774FE0020FEF771FEC120FEF75CFEA7
:101E20002020FEF76BFE0020FEF768FE5420FEF730
:101E300065FE0020FEF762FEFF20FEF75FFE002039
:101E4000FEF75CFEC220FEF747FE0A20FEF756FEB4
:101E50000020FEF753FE0420FEF750FE0020FEF7A0
:101E60004DFEC320FEF738FE3C20FEF747FE002063
:101E7000FEF744FE3A20FEF741FE0020FEF73EFE4C
:101E80003920FEF73BFE0020FEF738FE3720FEF734
:101E900035FE0020FEF732FE3C20FEF72FFE00202C
:101EA000FEF72CFE3620FEF729FE0020FEF726FE68
:101EB0003220FEF723FE0020FEF720FE2F20FEF743
:101EC0001DFE0020FEF71AFE2C20FEF717FE002054
:101ED000FEF714FE2920FEF711FE0020FEF70EFE8D
:101EE0002620FEF70BFE0020FEF708FE2420FEF75A
:101EF00005FE0020FEF702FE2420FEF7FFFD002075
:101F0000FEF7FCFD2320FEF7F9FD0020FEF7F6FDAD
:101F10003C20FEF7F3FD0020FEF7F0FD3620FEF733
:101F2000EDFD0020FEF7EAFD3220FEF7E7FD002080
:101F3000FEF7E4FD2F20FEF7E1FD0020FEF7DEFDB9
:101F40002C20FEF7DBFD0020FEF7D8FD2920FEF750
:101F5000D5FD0020FEF7D2FD2620FEF7CFFD0020A4
:101F6000FEF7CCFD2420FEF7C9FD0020FEF7C6FDDC
:101F70002420FEF7C3FD0020FEF7C0FD2320FEF75E
:101F8000BDFD0020FEF7BAFDC420FEF7A5FD6220CE
:101F9000FEF7B4FD0020FEF7B1FD0520FEF7AEFD13
:101FA0000020FEF7ABFD8420FEF7A8FD0020FEF721
:101FB000A5FDF020FEF7A2FD0020FEF79FFD1820F2
:101FC000FEF79CFD0020FEF799FDA420FEF796FD8C
:101FD0000020FEF793FD1820FEF790FD0020FEF78D
:101FE0008DFD5020FEF78AFD0020FEF787FD0C20B6
:101FF000FEF784FD0020FEF781FD1720FEF77EFD31
:102000000020FEF77BFD9520FEF778FD0020FEF70F
:1020100075FDF320FEF772FD0020FEF76FFDE62050
:10202000FEF76CFD0020FEF769FDC520FEF754FDAC
:102030003220FEF763FD0020FEF760FD4420FEF72E
:102040005DFD0020FEF75AFD6520FEF757FD0020DC
:10205000FEF754FD7620FEF751FD0020FEF74EFD01
:102060008820FEF74BFD0020FEF748FDC620FEF756
:1020700033FD2020FEF742FD0020FEF73FFD172034
:10208000FEF73CFD0020FEF739FD0120FEF736FD8E
:102090000020FEF733FDC720FEF71EFD0020FEF7EF
:1020A0002DFD0020FEF72AFD0020FEF727FD002071
:1020B000FEF724FDC820FEF70FFD0020FEF71EFDF1
:1020C0000020FEF71BFD0020FEF718FD0020FEF7A4
:1020D00015FDC920FEF700FD0020FEF70FFD0020D2
:1020E000FEF70CFD0020FEF709FD0020FEF706FDBF
:1020F0000020FEF703FD0020FEF700FD0020FEF7A4
:10210000FDFC0020FEF7FAFC0020FEF7F7FC0020A3
:10211000FEF7F4FC0020FEF7F1FC0020FEF7EEFCD9
:102120000020FEF7EBFC0020FEF7E8FC0020FEF7A5
:10213000E5FC0020FEF7E2FCE020FEF7CDFC1620D7
:10214000FEF7DCFC0020FEF7D9FC1C20FEF7D6FCD5
:102150000020FEF7D3FC2120FEF7D0FC0020FEF784
:10216000CDFC3620FEF7CAFC0020FEF7C7FC462057
:10217000FEF7C4FC0020FEF7C1FC5220FEF7BEFCB7
:102180000020FEF7BBFC6420FEF7B8FC0020FEF741
:10219000B5FC7A20FEF7B2FC0020FEF7AFFC8B20E6
:1021A000FEF7ACFC0020FEF7A9FC9920FEF7A6FC88
:1021B0000020FEF7A3FCA820FEF7A0FC0020FEF7FD
:1021C0009DFCB920FEF79AFC0020FEF797FCC42086
:1021D000FEF794FC0020FEF791FCCA20FEF78EFC6F
:1021E0000020FEF78BFCD220FEF788FC0020FEF7D3
:1021F00085FCD920FEF782FC0020FEF77FFCE02062
:10220000FEF77CFC0020FEF779FCF320FEF776FC5D
:102210000020FEF773FCE120FEF75EFC1620FEF7BF
:102220006DFC0020FEF76AFC1C20FEF767FC002016
:10223000FEF764FC2220FEF761FC0020FEF75EFC46
:102240003620FEF75BFC0020FEF758FC4520FEF729
:1022500055FC0020FEF752FC5220FEF74FFC0020F8
:10226000FEF74CFC6420FEF749FC0020FEF746FC1C
:102270007A20FEF743FC0020FEF740FC8B20FEF79F
:102280003DFC0020FEF73AFC9920FEF737FC0020C9
:10229000FEF734FCA820FEF731FC0020FEF72EFCF0
:1022A000B920FEF72BFC0020FEF728FCC420FEF727
:1022B00025FC0020FEF722FCCA20FEF71FFC0020B0
:1022C000FEF71CFCD220FEF719FC0020FEF716FCDE
:1022D000D820FEF713FC0020FEF710FCE020FEF7EC
:1022E0000DFC0020FEF70AFCF320FEF707FC00209F
:1022F000FEF704FCE220FEF7EFFB0520FEF7FEFBF5
:102300000020FEF7FBFB0B20FEF7F8FB0020FEF79A
:10231000F5FB1B20FEF7F2FB0020FEF7EFFB34205D
:10232000FEF7ECFB0020FEF7E9FB4420FEF7E6FB9E
:102330000020FEF7E3FB4F20FEF7E0FB0020FEF756
:10234000DDFB6120FEF7DAFB0020FEF7D7FB7920EA
:10235000FEF7D4FB0020FEF7D1FB8820FEF7CEFB72
:102360000020FEF7CBFB9720FEF7C8FB0020FEF70E
:10237000C5FBA620FEF7C2FB0020FEF7BFFBB7207F
:10238000FEF7BCFB0020FEF7B9FBC220FEF7B6FB50
:102390000020FEF7B3FBC720FEF7B0FB0020FEF7DE
:1023A000ADFBD120FEF7AAFB0020FEF7A7FBD6204D
:1023B000FEF7A4FB0020FEF7A1FBDD20FEF79EFB4D
:1023C0000020FEF79BFBF320FEF798FB0020FEF7B2
:1023D00095FBE320FEF780FB0520FEF78FFB002036
:1023E000FEF78CFB0A20FEF789FB0020FEF786FB38
:1023F0001C20FEF783FB0020FEF780FB3320FEF756
:102400007DFB0020FEF77AFB4420FEF777FB0020DF
:10241000FEF774FB5020FEF771FB0020FEF76EFB09
:102420006220FEF76BFB0020FEF768FB7820FEF7CA
:1024300065FB0020FEF762FB8820FEF75FFB0020B3
:10244000FEF75CFB9720FEF759FB0020FEF756FBDA
:10245000A620FEF753FB0020FEF750FBB720FEF747
:102460004DFB0020FEF74AFBC220FEF747FB002091
:10247000FEF744FBC720FEF741FB0020FEF73EFBC2
:10248000D120FEF73BFB0020FEF738FBD520FEF7FE
:1024900035FB0020FEF732FBDD20FEF72FFB00208E
:1024A000FEF72CFBF320FEF729FB0020FEF726FBAE
:1024B000E420FEF711FB0120FEF720FB0020FEF7D1
:1024C0001DFB0120FEF71AFB0020FEF717FB022080
:1024D000FEF714FB0020FEF711FB2A20FEF70EFB8F
:1024E0000020FEF70BFB3C20FEF708FB0020FEF768
:1024F00005FB4B20FEF702FB0020FEF7FFFA5D20F4
:10250000FEF7FCFA0020FEF7F9FA7420FEF7F6FA5F
:102510000020FEF7F3FA8420FEF7F0FA0020FEF721
:10252000EDFA9320FEF7EAFA0020FEF7E7FAA22080
:10253000FEF7E4FA0020FEF7E1FAB320FEF7DEFA38
:102540000020FEF7DBFABE20FEF7D8FA0020FEF7E7
:10255000D5FAC420FEF7D2FA0020FEF7CFFACD203C
:10256000FEF7CCFA0020FEF7C9FAD320FEF7C6FA30
:102570000020FEF7C3FADD20FEF7C0FA0020FEF7C8
:10258000BDFAF320FEF7BAFA0020FEF7B7FAE5200D
:10259000FEF7A2FA0020FEF7B1FA0020FEF7AEFA2D
:1025A0000020FEF7ABFA0020FEF7A8FA0220FEF7A3
:1025B000A5FA0020FEF7A2FA2920FEF79FFA0020D4
:1025C000FEF79CFA3C20FEF799FA0020FEF796FAF7
:1025D0004B20FEF793FA0020FEF790FA5D20FEF7FD
:1025E0008DFA0020FEF78AFA7420FEF787FA0020A1
:1025F000FEF784FA8420FEF781FA0020FEF77EFAC7
:102600009320FEF77BFA0020FEF778FAA220FEF76F
:1026100075FA0020FEF772FAB320FEF76FFA002079
:10262000FEF76CFABE20FEF769FA0020FEF766FAA4
:10263000C420FEF763FA0020FEF760FACD20FEF713
:102640005DFA0020FEF75AFAD320FEF757FA002071
:10265000FEF754FADC20FEF751FA0020FEF74EFA9E
:10266000F320FEF74BFA0020FEF748FAE620FEF7CB
:1026700033FA1120FEF742FA0020FEF73FFA342029
:10268000FEF73CFA0020FEF739FA5620FEF736FA3C
:102690000020FEF733FA7620FEF730FA0020FEF72E
:1026A0002DFA7720FEF72AFA0020FEF727FA662097
:1026B000FEF724FA0020FEF721FA8820FEF71EFA22
:1026C0000020FEF71BFA9920FEF718FA0020FEF70B
:1026D00015FABB20FEF712FA0020FEF70FFA992038
:1026E000FEF70CFA0020FEF709FA6620FEF706FA5C
:1026F0000020FEF703FA5520FEF700FA0020FEF74F
:10270000FDF95520FEF7FAF90020FEF7F7F945200C
:10271000FEF7F4F90020FEF7F1F94320FEF7EEF999
:102720000020FEF7EBF94420FEF7E8F90020FEF761
:10273000E5F9E720FEF7D0F93220FEF7DFF90020B7
:10274000FEF7DCF95520FEF7D9F90020FEF7D6F99F
:102750007620FEF7D3F90020FEF7D0F96620FEF7C9
:10276000CDF90020FEF7CAF96720FEF7C7F900206F
:10277000FEF7C4F96720FEF7C1F90020FEF7BEF9A5
:102780008720FEF7BBF90020FEF7B8F99920FEF785
:10279000B5F90020FEF7B2F9BB20FEF7AFF9002033
:1027A000FEF7ACF99920FEF7A9F90020FEF7A6F98B
:1027B0007720FEF7A3F90020FEF7A0F94420FEF7EA
:1027C0009DF90020FEF79AF95620FEF797F90020B0
:1027D000FEF794F92320FEF791F90020FEF78EF919
:1027E0003320FEF78BF90020FEF788F94520FEF72D
:1027F00085F90020FEF782F9E820FEF76DF9002048
:10280000FEF77CF90020FEF779F99920FEF776F9BA
:102810000020FEF773F98720FEF770F90020FEF71D
:102820006DF98820FEF76AF90020FEF767F9772036
:10283000FEF764F90020FEF761F96620FEF75EF905
:102840000020FEF75BF98820FEF758F90020FEF71C
:1028500055F9AA20FEF752F90020FEF74FF9BB20E8
:10286000FEF74CF90020FEF749F99920FEF746F9EA
:102870000020FEF743F96620FEF740F90020FEF73E
:102880003DF95520FEF73AF90020FEF737F95520BB
:10289000FEF734F90020FEF731F94420FEF72EF957
:1028A0000020FEF72BF94420FEF728F90020FEF760
:1028B00025F95520FEF722F90020FEF71FF9E9203F
:1028C000FEF70AF9AA20FEF719F90020FEF716F91B
:1028D0000020FEF713F90020FEF710F90020FEF7A4
:1028E000FBF8AA20FEF70AF9CF20FEF7F5F8002042
:1028F000FEF704F90020FEF701F90020FEF7FEF8CC
:102900000020FEF7FBF80020FEF7F8F80020FEF7A5
:10291000F5F80020FEF7F2F80020FEF7EFF80020AF
:10292000FEF7ECF80020FEF7E9F80020FEF7E6F8E5
:102930000020FEF7E3F80020FEF7E0F80020FEF7A5
:10294000DDF80020FEF7DAF80020FEF7D7F80020C7
:10295000FEF7D4F8F020FEF7BFF80020FEF7CEF81F
:102960005020FEF7CBF80020FEF7C8F80020FEF755
:10297000C5F80020FEF7C2F8F320FEF7ADF80020FE
:10298000FEF7BCF8F920FEF7A7F80620FEF7B6F828
:102990001020FEF7B3F82920FEF7B0F80020FEF76C
:1029A000ADF83A20FEF798F85520FEF7A7F8112069
:1029B000FEF792F8642001F0BBFB2920FEF78CF8AB
:1029C0003520FEF789F80020FEF798F85120FEF731
:1029D00083F8FF20FEF792F85320FEF77DF82C20B5
:1029E000FEF78CF85520FEF777F88220FEF786F880
:1029F0002C20FEF771F8FEF7FBBD55214FF4704017
:102A0000FEF7B2F8AA214FF20100FEF7ADF852210D
:102A10004FF20200FEF7A8F808214FF20300FEF77C
:102A2000A3F801214FF20400FEF79EF80D214FF4A8
:102A30003040FEF799F80D214BF20100FEF794F8B3
:102A40000D214BF20200FEF78FF834214FF436408F
:102A5000FEF78AF834214BF20160FEF785F8342145
:102A60004BF20260FEF780F80D214FF43140FEF783
:102A70007BF80D214BF20110FEF776F80D214BF299
:102A80000210FEF771F834214FF43740FEF76CF86E
:102A900034214BF20170FEF767F834214BF20270DB
:102AA000FEF762F800214FF43240FEF75DF8002196
:102AB0004BF20120FEF758F800214BF20220FEF7FE
:102AC00053F824214FF43840FEF74EF824214BF6FA
:102AD0000100FEF749F824214BF60200FEF744F806
:102AE00001214FF43F40FEF73FF80F214FF43340F0
:102AF000FEF73AF80F214BF20130FEF735F80F21BF
:102B00004BF20230FEF730F834214FF43940FEF733
:102B10002BF834214BF60110FEF726F834214BF642
:102B20000210FEF721F808214FF43540FEF71CF89B
:102B300008214BF20150FEF717F808214BF2025022
:102B4000FEF712F803214FF44240FEF70DF824215E
:102B50004FF43A40FEF708F824214BF60120FEF727
:102B600003F824214BF60220FDF7FEFF00214FF46D
:102B70003C40FDF7F9FF78214BF60140FDF7F4FFEB
:102B800000214BF60240FDF7EFFF00214FF43D40DE
:102B9000FDF7EAFF78214BF60150FDF7E5FF002134
:102BA0004BF60250FDF7E0FF00214FF43E40FDF7E9
:102BB000DBFF64214BF60160FDF7D6FF00214FF4E7
:102BC0005140FDF7D1FF33214DF20110FDF7CCFF4D
:102BD00000214DF20210FDF7C7FF34214DF2031022
:102BE000FDF7C2FF00214DF20410FDF7BDFF3A21B1
:102BF0004DF20510FDF7B8FF00214DF20610FDF76C
:102C0000B3FF4A214DF20710FDF7AEFF00214DF250
:102C10000810FDF7A9FF5C214DF20910FDF7A4FF94
:102C200000214DF20A10FDF79FFF81214DF20B109C
:102C3000FDF79AFF00214DF20C10FDF795FFA6213C
:102C40004DF20D10FDF790FF00214DF20E10FDF733
:102C50008BFFE5214DF20F10FDF786FF01214DF2AC
:102C60001010FDF781FF13214DF21110FDF77CFFCD
:102C700001214DF21210FDF777FF54214DF2131090
:102C8000FDF772FF01214DF21410FDF76DFF822157
:102C90004DF21510FDF768FF01214DF21610FDF7FA
:102CA00063FFCA214DF21710FDF75EFF02214DF2BE
:102CB0001810FDF759FF00214DF21910FDF754FFD0
:102CC00002214DF21A10FDF74FFF01214DF21B10AA
:102CD000FDF74AFF02214DF21C10FDF745FF34219C
:102CE0004DF21D10FDF740FF02214DF21E10FDF7C1
:102CF0003BFF67214DF21F10FDF736FF02214DF219
:102D00002010FDF731FF84214DF22110FDF72CFF3B
:102D100002214DF22210FDF727FFA4214DF22310CE
:102D2000FDF722FF02214DF22410FDF71DFFB72110
:102D30004DF22510FDF718FF02214DF22610FDF788
:102D400013FFCF214DF22710FDF70EFF02214DF2A8
:102D50002810FDF709FFDE214DF22910FDF704FFD1
:102D600002214DF22A10FDF7FFFEF2214DF22B1049
:102D7000FDF7FAFE02214DF22C10FDF7F5FEFE21C3
:102D80004DF22D10FDF7F0FE03214DF22E10FDF750
:102D9000EBFE10214DF22F10FDF7E6FE03214DF260
:102DA0003010FDF7E1FE33214DF23110FDF7DCFE6E
:102DB00003214DF23210FDF7D7FE6D214DF2331095
:102DC000FDF7D2FE00214FF45240FDF7CDFE332136
:102DD0004DF20120FDF7C8FE00214DF20220FDF763
:102DE000C3FE34214DF20320FDF7BEFE00214DF25B
:102DF0000420FDF7B9FE3A214DF20520FDF7B4FE9F
:102E000000214DF20620FDF7AFFE4A214DF20720CA
:102E1000FDF7AAFE00214DF20820FDF7A5FE5C217A
:102E20004DF20920FDF7A0FE00214DF20A20FDF72A
:102E30009BFE81214DF20B20FDF796FE00214DF205
:102E40000C20FDF791FEA6214DF20D20FDF78CFE22
:102E500000214DF20E20FDF787FEE5214DF20F20F7
:102E6000FDF782FE01214DF21020FDF77DFE1321BA
:102E70004DF21120FDF778FE01214DF21220FDF7F1
:102E800073FE54214DF21320FDF76EFE01214DF229
:102E90001420FDF769FE82214DF21520FDF764FE36
:102EA00001214DF21620FDF75FFECA214DF21720D9
:102EB000FDF75AFE02214DF21820FDF755FE0021C4
:102EC0004DF21920FDF750FE02214DF21A20FDF7B8
:102ED0004BFE01214DF21B20FDF746FE02214DF273
:102EE0001C20FDF741FE34214DF21D20FDF73CFE74
:102EF00002214DF21E20FDF737FE67214DF21F2003
:102F0000FDF732FE02214DF22020FDF72DFE842137
:102F10004DF22120FDF728FE02214DF22220FDF77F
:102F200023FEA4214DF22320FDF71EFE02214DF2C7
:102F30002420FDF719FEB7214DF22520FDF714FEE0
:102F400002214DF22620FDF70FFECF214DF2272062
:102F5000FDF70AFE02214DF22820FDF705FEDE21D5
:102F60004DF22920FDF700FE02214DF22A20FDF747
:102F7000FBFDF2214DF22B20FDF7F6FD02214DF273
:102F80002C20FDF7F1FDFE214DF22D20FDF7ECFD8B
:102F900003214DF22E20FDF7E7FD10214DF22F20E9
:102FA000FDF7E2FD03214DF23020FDF7DDFD332179
:102FB0004DF23120FDF7D8FD03214DF23220FDF70F
:102FC000D3FD6D214DF23320FDF7CEFD00214FF4EE
:102FD0005340FDF7C9FD33214DF20130FDF7C4FD2B
:102FE00000214DF20230FDF7BFFD34214DF20330D8
:102FF000FDF7BAFD00214DF20430FDF7B5FD3A2191
:103000004DF20530FDF7B0FD00214DF20630FDF721
:10301000ABFD4A214DF20730FDF7A6FD00214DF230
:103020000830FDF7A1FD5C214DF20930FDF79CFD54
:1030300000214DF20A30FDF797FD81214DF20B3052
:10304000FDF792FD00214DF20C30FDF78DFDA6211C
:103050004DF20D30FDF788FD00214DF20E30FDF7E9
:1030600083FDE5214DF20F30FDF77EFD01214DF28C
:103070001030FDF779FD13214DF21130FDF774FD8D
:1030800001214DF21230FDF76FFD54214DF2133046
:10309000FDF76AFD01214DF21430FDF765FD822137
:1030A0004DF21530FDF760FD01214DF21630FDF7B0
:1030B0005BFDCA214DF21730FDF756FD02214DF29E
:1030C0001830FDF751FD00214DF21930FDF74CFD90
:1030D00002214DF21A30FDF747FD01214DF21B3060
:1030E000FDF742FD02214DF21C30FDF73DFD34217C
:1030F0004DF21D30FDF738FD02214DF21E30FDF777
:1031000033FD67214DF21F30FDF72EFD02214DF2F8
:103110002030FDF729FD84214DF22130FDF724FDFB
:1031200002214DF22230FDF71FFDA4214DF2233084
:10313000FDF71AFD02214DF22430FDF715FDB721F0
:103140004DF22530FDF710FD02214DF22630FDF73E
:103150000BFDCF214DF22730FDF706FD02214DF288
:103160002830FDF701FDDE214DF22930FDF7FCFC92
:1031700002214DF22A30FDF7F7FCF2214DF22B30FF
:10318000FDF7F2FC02214DF22C30FDF7EDFCFE21A3
:103190004DF22D30FDF7E8FC03214DF22E30FDF706
:1031A000E3FC10214DF22F30FDF7DEFC03214DF240
:1031B0003030FDF7D9FC33214DF23130FDF7D4FC2E
:1031C00003214DF23230FDF7CFFC6D214DF233304B
:1031D000FDF7CAFC00214FF45440FDF7C5FC332134
:1031E0004DF20140FDF7C0FC00214DF20240FDF719
:1031F000BBFC34214DF20340FDF7B6FC00214DF23B
:103200000440FDF7B1FC3A214DF20540FDF7ACFC5E
:1032100000214DF20640FDF7A7FC4A214DF2074080
:10322000FDF7A2FC00214DF20840FDF79DFC5C215A
:103230004DF20940FDF798FC00214DF20A40FDF7E0
:1032400093FC81214DF20B40FDF78EFC00214DF2E5
:103250000C40FDF789FCA6214DF20D40FDF784FCE2
:1032600000214DF20E40FDF77FFCE5214DF20F40AD
:10327000FDF77AFC01214DF21040FDF775FC13219A
:103280004DF21140FDF770FC01214DF21240FDF7A7
:103290006BFC54214DF21340FDF766FC01214DF209
:1032A0001440FDF761FC82214DF21540FDF75CFCF6
:1032B00001214DF21640FDF757FCCA214DF217408F
:1032C000FDF752FC02214DF21840FDF74DFC0021A4
:1032D0004DF21940FDF748FC02214DF21A40FDF76E
:1032E00043FC01214DF21B40FDF73EFC02214DF253
:1032F0001C40FDF739FC34214DF21D40FDF734FC34
:1033000002214DF21E40FDF72FFC67214DF21F40B8
:10331000FDF72AFC02214DF22040FDF725FC842117
:103320004DF22140FDF720FC02214DF22240FDF735
:103330001BFCA4214DF22340FDF716FC02214DF2A7
:103340002440FDF711FCB7214DF22540FDF70CFCA0
:1033500002214DF22640FDF707FCCF214DF2274018
:10336000FDF702FC02214DF22840FDF7FDFBDE21B6
:103370004DF22940FDF7F8FB02214DF22A40FDF7FE
:10338000F3FBF2214DF22B40FDF7EEFB02214DF253
:103390002C40FDF7E9FBFE214DF22D40FDF7E4FB4B
:1033A00003214DF22E40FDF7DFFB10214DF22F409F
:1033B000FDF7DAFB03214DF23040FDF7D5FB332159
:1033C0004DF23140FDF7D0FB03214DF23240FDF7C5
:1033D000CBFB6D214DF23340FDF7C6FB00214FF4CE
:1033E0005540FDF7C1FB33214DF20150FDF7BCFB09
:1033F00000214DF20250FDF7B7FB34214DF203508E
:10340000FDF7B2FB00214DF20450FDF7ADFB3A2170
:103410004DF20550FDF7A8FB00214DF20650FDF7D7
:10342000A3FB4A214DF20750FDF79EFB00214DF210
:103430000850FDF799FB5C214DF20950FDF794FB14
:1034400000214DF20A50FDF78FFB81214DF20B5008
:10345000FDF78AFB00214DF20C50FDF785FBA621FC
:103460004DF20D50FDF780FB00214DF20E50FDF79F
:103470007BFBE5214DF20F50FDF776FB01214DF26C
:103480001050FDF771FB13214DF21150FDF76CFB4D
:1034900001214DF21250FDF767FB54214DF21350FC
:1034A000FDF762FB01214DF21450FDF75DFB822117
:1034B0004DF21550FDF758FB01214DF21650FDF766
:1034C00053FBCA214DF21750FDF74EFB02214DF27E
:1034D0001850FDF749FB00214DF21950FDF744FB50
:1034E00002214DF21A50FDF73FFB01214DF21B5016
:1034F000FDF73AFB02214DF21C50FDF735FB34215C
:103500004DF21D50FDF730FB02214DF21E50FDF72C
:103510002BFB67214DF21F50FDF726FB02214DF2D8
:103520002050FDF721FB84214DF22150FDF71CFBBB
:1035300002214DF22250FDF717FBA4214DF223503A
:10354000FDF712FB02214DF22450FDF70DFBB721D0
:103550004DF22550FDF708FB02214DF22650FDF7F4
:1035600003FBCF214DF22750FDF7FEFA02214DF269
:103570002850FDF7F9FADE214DF22950FDF7F4FA53
:1035800002214DF22A50FDF7EFFAF2214DF22B50B5
:10359000FDF7EAFA02214DF22C50FDF7E5FAFE2183
:1035A0004DF22D50FDF7E0FA03214DF22E50FDF7BC
:1035B000DBFA10214DF22F50FDF7D6FA03214DF220
:1035C0003050FDF7D1FA33214DF23150FDF7CCFAEE
:1035D00003214DF23250FDF7C7FA6D214DF2335001
:1035E000FDF7C2FA00214FF45640FDF7BDFA332132
:1035F0004DF20160FDF7B8FA00214DF20260FDF7CF
:10360000B3FA34214DF20360FDF7AEFA00214DF21A
:103610000460FDF7A9FA3A214DF20560FDF7A4FA1E
:1036200000214DF20660FDF79FFA4A214DF2076036
:10363000FDF79AFA00214DF20860FDF795FA5C213A
:103640004DF20960FDF790FA00214DF20A60FDF796
:103650008BFA81214DF20B60FDF786FA00214DF2C5
:103660000C60FDF781FAA6214DF20D60FDF77CFAA2
:1036700000214DF20E60FDF777FAE5214DF20F6063
:10368000FDF772FA01214DF21060FDF76DFA13217A
:103690004DF21160FDF768FA01214DF21260FDF75D
:1036A00063FA54214DF21360FDF75EFA01214DF2E9
:1036B0001460FDF759FA82214DF21560FDF754FAB6
:1036C00001214DF21660FDF74FFACA214DF2176045
:1036D000FDF74AFA02214DF21860FDF745FA002184
:1036E0004DF21960FDF740FA02214DF21A60FDF724
:1036F0003BFA01214DF21B60FDF736FA02214DF233
:103700001C60FDF731FA34214DF21D60FDF72CFAF3
:1037100002214DF21E60FDF727FA67214DF21F606E
:10372000FDF722FA02214DF22060FDF71DFA8421F7
:103730004DF22160FDF718FA02214DF22260FDF7EB
:1037400013FAA4214DF22360FDF70EFA02214DF287
:103750002460FDF709FAB7214DF22560FDF704FA60
:1037600002214DF22660FDF7FFF9CF214DF22760CF
:10377000FDF7FAF902214DF22860FDF7F5F9DE2197
:103780004DF22960FDF7F0F902214DF22A60FDF7B4
:10379000EBF9F2214DF22B60FDF7E6F902214DF233
:1037A0002C60FDF7E1F9FE214DF22D60FDF7DCF90B
:1037B00003214DF22E60FDF7D7F910214DF22F6055
:1037C000FDF7D2F903214DF23060FDF7CDF9332139
:1037D0004DF23160FDF7C8F903214DF23260FDF77B
:1037E000C3F96D214DF23360FDF7BEF955214FF459
:1037F0007040FDF7B9F9AA214FF20100FDF7B4F9C5
:1038000052214FF20200FDF7AFF908214FF20300F9
:10381000FDF7AAF900214FF20400FDF7A5F9CC212C
:103820004FF43140FDF7A0F900214BF20110FDF7F4
:103830009BF905214FF43640FDF796F970214FF4BE
:103840003740FDF791F970214BF20170FDF78CF9CB
:1038500001214FF43840FDF787F903214BF60100B1
:10386000FDF782F903214BF60200FDF77DF90321F4
:103870004BF60300FDF778F902214FF43C40FDF7C9
:1038800073F900214BF60140FDF76EF900214BF66C
:103890000240FDF769F9D0214FF44940FDF764F982
:1038A00002214CF60110FDF75FF950214CF6021091
:1038B000FDF75AF950214CF60310FDF755F9502148
:1038C0004CF60410FDF750F900214FF45450FDF769
:1038D0004BF955214FF46850FDF746F94FF48850E5
:1038E000FDF7FAF8012000F023FC4FF42450FDF717
:1038F000F3F8FDF77DBEE220FDF7EEF8AD4C4FF496
:103900008078C4F810804FF400756561AA4F1D23BC
:10391000FB608026666126612561C4F810806561C0
:103920000223FB60666126612561C4F81080656131
:103930000422FA60666126612561012000F0F8FB2F
:10394000E020FDF7C9F8C4F8108065614FF0010A66
:10395000C7F80CA06661266125610A2000F0E8FB2B
:10396000E020FDF7B9F8C4F8108065614FF0030B53
:10397000C7F80CB06661266125610C2000F0D8FB09
:103980005046FDF7A9F80A2000F0D2FBE620FDF72B
:10399000A3F8C4F8108065612F23FB60666126617F
:1039A0002561C4F810806561FF23FB6066612661B4
:1039B0002561C4F810806561FB6066612661256140
:1039C000B020FDF789F8C4F8108065612023FB6002
:1039D000666126612561C4F8108065614FF00009B9
:1039E000C7F80C90666126612561C4F81080656196
:1039F000C7F80CB0666126612561C4F81080656166
:103A000040F21F33FB60666126612561C4F81080B7
:103A10006561C7F80CA0666126612561C4F8108055
:103A2000656140F2DF13FB60666126612561C4F8C1
:103A300010806561C7F80C90666126612561B4202D
:103A4000FDF74AF8C4F8108065610422FA606661E7
:103A500026612561C4F81080656140F21F43FB6058
:103A6000666126612561C4F810806561C7F80C9015
:103A7000666126612561C4F8108065612E23FB60B4
:103A8000666126612561C4F810806561C7F80C90F5
:103A9000666126612561C4F810806561C7F80C90E5
:103AA000666126612561C4F810806561C7F80C90D5
:103AB000666126612561C4F810806561C7F80C90C5
:103AC000666126612561B620FDF706F8C4F810800E
:103AD00065610223FB60666126612561C4F8108080
:103AE00065614FF40373FB60666126612561C4F86C
:103AF00010806561C7F80C90666126612561C4F885
:103B0000108065611723FB60666126612561C4F83A
:103B1000108065611523FB60666126612561C4F82C
:103B200010806561C7F80C90666126612561C4F854
:103B300010806561C7F80C90666126612561F020F0
:103B4000FCF7CAFFC4F810806561C7F80CB0666165
:103B5000266125612920FCF7BFFFD020FCF7BCFFC0
:103B6000C4F810806561C7F80C9066612661256114
:103B7000BE20FCF7B1FFC4F8108065610523FB602F
:103B8000666126612561C4F810806561FE23FB60D3
:103B9000666126612561C4F810806561C7F80CA0D4
:103BA000666126612561C4F810806561C7F80C90D4
:103BB00004E000BF00100140000C01406661266176
:103BC0002561C4F810806561C7F80C9066612661B4
:103BD0002561C4F810806561C7F80C9066612661A4
:103BE0002561B820FCF778FFC4F810806561C7F83C
:103BF0000CB0666126612561C4F810806561C7F864
:103C00000CA0666126612561BA20FCF765FFC4F847
:103C100010806561C7F80CA066612661256164208B
:103C2000FDF776FBFDF7E4BC2DE9F04F83B082464B
:103C300088461F469DF830B013F0070318BF0123D4
:103C400003EBD703790801FB03F3DBB20093203ABF
:103C5000D3B2019344464FF000093FE0019B03EBD0
:103C60004303294A02EB830313F8095047E0274B2B
:103C7000019A03EB021313F8095040E0244B1A8811
:103C800021465046FDF716FA6D00EDB20134A4B29C
:103C9000204B5B88A34234D9A4EB0803BB4210D06D
:103CA0000136F6B2072E15D815F0800FE6D1BBF11C
:103CB000000FE9D1184B1A8821465046FDF7FAF952
:103CC000E2E70AF1010A1FFA8AFA124B1B885345F0
:103CD00017D9444609F101095FFA89F9009B994512
:103CE0000FD20C2FBAD0102FC1D0182F09D1019BA1
:103CF00003EBC303094A02EB830313F809500026C0
:103D0000D0E703B0BDE8F08F70780008E47C0008CD
:103D1000680400206C04002000000020D482000809
:103D20000246012002E002FB00F019464B1EDBB206
:103D30000029F8D1704700002DE9F04782B0824693
:103D4000894690461D469DF8286000273C4619E0AC
:103D5000700800FB04A0002300933346202249464C
:103D600080B2FFF761FF0BE07008303200FB04A067
:103D7000002300933346D2B2494680B2FFF754FF86
:103D80000134E4B2AC421CD2291BC9B20139C9B218
:103D90000A20FFF7C5FFB8FBF0F00B4AA2FB003C7E
:103DA0004FEADC0C0CEB8C0CA0EB4C0C5FFA8CF2A9
:103DB000002FD9D16B1E9C42D6DA002AC8D0012729
:103DC000D2E702B0BDE8F087CDCCCCCC2DE9F047EE
:103DD00082B082460D469DF828700B9E02441FFA61
:103DE00082F90B441FFA83F804460CE0454517D2CC
:103DF000002300933B4629462046FFF715FF04EBBE
:103E00005704A4B201363278A2F12003DBB25E2B54
:103E100006D84C45EAD35FFA8AF43D44ADB2E5E7F3
:103E200002B0BDE8F087000008B50268034B9A4273
:103E300000D008BD00F06AF9FBE700BF00100040A9
:103E400072B6FEE700B597B0282200210CA803F057
:103E5000F7FB00230793089309930A930B930193AD
:103E60000293039304930593069309230C934FF451
:103E700080330D9301221092129202221392149316
:103E80004FF4E01315930CA800F008FBC8B90F23FA
:103E9000079302210891002309934FF480620A924C
:103EA0000B9307A800F03AFD68B9012301934FF482
:103EB0000073029301A800F02BFE30B917B05DF833
:103EC00004FBFFF7BDFFFFF7BBFFFFF7B9FF0000E3
:103ED00000B583B000F008F9FDF71CFBFFF7B2FF57
:103EE000FCF7A0FD00F018F8094B1F221A80094BBF
:103EF0000193102300931823A02214210846FFF7F2
:103F000065FF01F0C9FAFCF773FD01F0E7FAFEE77F
:103F1000680400203090000800B583B00023ADF89D
:103F200004308DF80630009319481A4B03604FF0A7
:103F3000FF3343604FF48073836001F0B1F8F0B950
:103F400000238DF804308DF805308DF806300122FD
:103F500001A90F4800F0BDFFA0B901228DF8002093
:103F60008DF801208DF8022000238DF8033069467A
:103F7000074801F00FF840B903B05DF804FBFFF704
:103F80005FFFDDE7FFF75CFFE7E7FFF759FFF3E7C8
:103F90007C040020002800400268104B9A4200D0A8
:103FA000704700B583B000F05DFA0D4BDA6942F05E
:103FB0000062DA61DB6903F000630193019B094B46
:103FC0000122C3F83C2400220521032000F0D6F88A
:103FD000032000F00BF903B05DF804FB002800405B
:103FE000001002400000424200B583B0114B9A69B4
:103FF00042F001029A619A6902F001020092009A6D
:10400000DA6942F08052DA61DB6903F08053019390
:10401000019B00220F216FF0010000F0AFF8064A6B
:10402000536823F0E06343F00073536003B05DF81E
:1040300004FB00BF001002400000014000B589B041
:1040400001460022362000F099F8362000F0CEF824
:10405000154BDA6942F01002DA61DB6903F01003F4
:104060000193019B02A903A800F034FD00F012FDAA
:1040700043000E48A0FB03239B0C013B0C480D4A58
:10408000026040F2E732C260436000230361836054
:1040900001F0D4F918B1012009B05DF804FB04481F
:1040A00001F082F8F8E700BF0010024083DE1B43F6
:1040B0009004002000100040FEE7FEE7FEE7FEE768
:1040C000FEE7704708B5024801F04AF808BD00BF96
:1040D0007C04002008B5024801F0A6F808BD00BF26
:1040E000900400207047000008B5074A136843F0A9
:1040F00010031360032000F02FF80F20FFF79EFF3E
:10410000FFF772FF002008BD00200240034A11683B
:10411000034B1B780B441360704700BFD80400208A
:1041200008000020014B1868704700BFD804002029
:1041300038B50446FFF7F6FF0546B4F1FF3F02D05D
:10414000044B1B781C44FFF7EDFF401BA042FAD341
:1041500038BD00BF08000020074AD36823F4E0639D
:104160001B041B0C000200F4E060034343F0BF6338
:1041700043F40033D360704700ED00E000B5194B05
:10418000DB68C3F30223C3F1070CBCF1040F28BFA3
:104190004FF0040C03F1040EBEF1060F18D9033BD7
:1041A0004FF0FF3E0EFA0CFC21EA0C0199400EFA8A
:1041B00003F322EA0303194300280BDB0901C9B208
:1041C00000F1604000F5614080F800135DF804FBE9
:1041D0000023E5E700F00F000901C9B2024B1954B2
:1041E000F4E700BF00ED00E014ED00E0002807DB7D
:1041F00000F01F02400901239340024A42F8203098
:10420000704700BF00E100E070B582B00024A44612
:10421000B0E0874DAA4210D007D9864DAA420CD0F3
:1042200005F58035AA4208D013E0A5F58015AA420D
:1042300003D005F57025AA4207D18A68002A62D00A
:10424000012A5BD04361082403E0A5F58015AA424A
:10425000F3D0BEF1FF0F58D80646BEF1FF0F56D877
:104260004FEA8C0233680F25954023EA050304FAD0
:1042700002F2134333604B6813F0805F78D06E4BCB
:104280009A6942F001029A619B6903F0010301936C
:10429000019B4FEA9C02951C684B53F825600CF07B
:1042A00003039D000F23AB4026EA0306644B9842AC
:1042B00033D003F58063984200F0988003F5806363
:1042C000984200F0958003F58063984200F0928058
:1042D00003F58063984200F08F8003F58063984275
:1042E00019D006231AE0CC68B3E7CC680434B0E7F1
:1042F000CC680834ADE7CC680C34AAE70361082425
:10430000A7E70024A5E70424A3E7061DA5E7ACF171
:1043100008029200A6E7052300E00023AB403343E8
:104320000232464D45F822304B6813F4803F65D089
:10433000444A136843EA0E0313604B6813F4003FCA
:1043400062D0404A536843EA0E0353604B6813F44B
:10435000801F5FD03B4A936843EA0E0393604B682B
:1043600013F4001F5CD0374AD36843EA0E03D360CE
:104370000CF1010C0A6832FA0CF357D0012303FA4E
:104380000CF302EA030E33EA0202F1D14A68122A60
:104390003FF63FAF122A3FF65CAF01A555F822F079
:1043A0003B420008E7420008F142000803430008CE
:1043B0005342000853420008534200085342000889
:1043C0005342000853420008534200085342000879
:1043D0005342000853420008534200085342000869
:1043E00053420008EB420008F7420008012395E71A
:1043F000022393E7032391E704238FE7114A13680D
:1044000023EA0E03136098E70E4A536823EA0E036B
:1044100053609BE70B4A936823EA0E0393609EE781
:10442000084AD36823EA0E03D360A1E702B070BD47
:104430000000221000003110001002400000014076
:1044400000080140000401408368194201D00120A6
:104450007047002070470AB101617047090401618B
:1044600070470000014B01221A62704700000E42A3
:1044700082B0084B1B68084AA2FB03235B0A00FBBF
:1044800003F3019300BF019B5A1E0192002BF9D147
:1044900002B0704704000020D34D6210002800F0E5
:1044A000F18170B582B00446036813F0010F2CD07F
:1044B000994B5B6803F00C03042B1DD0964B5B6893
:1044C00003F00C03082B12D06368B3F5803F41D092
:1044D000002B55D103F1804303F504331A6822F40D
:1044E00080321A601A6822F480221A6037E08A4B00
:1044F0005B6813F4803FE7D0874B1B6813F4003FE1
:1045000003D06368002B00F0BF81236813F0020F13
:1045100075D0814B5B6813F00C0F5FD07E4B5B68EE
:1045200003F00C03082B54D02369002B00F08A8081
:104530007A4B01221A60FFF7F5FD0546764B1B68A2
:1045400013F0020F75D1FFF7EDFD401B0228F5D9DE
:1045500003209EE1704A136843F48033136063685C
:1045600043B3FFF7DFFD05466B4B1B6813F4003FB9
:10457000CBD1FFF7D7FD401B6428F5D9032088E194
:10458000B3F5A02F09D0644B1A6822F480321A6068
:104590001A6822F480221A60E1E703F18043A3F550
:1045A0003C331A6842F480221A601A6842F480325E
:1045B0001A60D4E7FFF7B6FD0546574B1B6813F4A6
:1045C000003FA2D0FFF7AEFD401B6428F5D90320C1
:1045D0005FE1514B5B6813F4803FA5D14E4B1B68E4
:1045E00013F0020F03D02369012B40F04F814A4A98
:1045F000136823F0F803616943EAC1031360236879
:1046000013F0080F33D0A369002B5CD0434B012279
:10461000C3F88024FFF786FD05463F4B5B6A13F025
:10462000020F21D1FFF77EFD401B0228F5D90320A0
:104630002FE1394A136823F0F803616943EAC103A3
:104640001360DCE7354B00221A60FFF76BFD05466F
:10465000314B1B6813F0020FD1D0FFF763FD401BF5
:104660000228F5D9032014E10120FFF701FF236898
:1046700013F0040F00F09680274BDB6913F0805F86
:1046800034D1254BDA6942F08052DA61DB6903F0FC
:1046900080530193019B0125214B1B6813F4807FFC
:1046A00026D0E368012B3DD0002B53D103F180438A
:1046B00003F504331A6A22F001021A621A6A22F020
:1046C00004021A6233E0154B0022C3F88024FFF77E
:1046D00029FD0546104B5B6A13F0020FC7D0FFF7A8
:1046E00021FD401B0228F5D90320D2E00025D3E7A5
:1046F0000B4A136843F480731360FFF713FD0646FB
:10470000074B1B6813F4807FCBD1FFF70BFD801B99
:104710006428F5D90320BCE00010024000004242AA
:10472000007000405F4A136A43F001031362E368BC
:1047300033B3FFF7F7FC06465A4B1B6A13F0020F20
:104740002FD1FFF7EFFC801B41F288339842F3D959
:1047500003209EE0052B09D0524B1A6A22F0010279
:104760001A621A6A22F004021A62E0E74D4B1A6AD2
:1047700042F004021A621A6A42F001021A62D6E793
:10478000FFF7D0FC0646474B1B6A13F0020F08D018
:10479000FFF7C8FC801B41F288339842F3D903200D
:1047A00077E0E5B9E369002B72D03E4A526802F027
:1047B0000C02082A56D0022B17D03B4B00221A6657
:1047C000FFF7B0FC0446374B1B6813F0007F47D05F
:1047D000FFF7A8FC001B0228F5D9032059E0314A55
:1047E000D36923F08053D361DCE72F4B00221A6694
:1047F000FFF798FC05462B4B1B6813F0007F06D093
:10480000FFF790FC401B0228F5D9032041E0236A02
:10481000B3F5803F1AD023494B6823F47413226AFE
:10482000606A024313434B601F4B01221A66FFF775
:1048300079FC04461B4B1B6813F0007F0ED1FFF779
:1048400071FC001B0228F5D9032022E0154A5368A9
:1048500023F40033A1680B435360DCE7002018E029
:10486000002016E0012B16D00E4B5B6803F480315C
:10487000226A914211D103F47013626A93420ED1FD
:10488000002006E001207047012002E0012000E046
:10489000002002B070BD0120FBE70120F9E70120F4
:1048A000F7E700BF001002400000424286B0174BFD
:1048B0000FCB0DF1180C0CE90F0040F20123ADF8FD
:1048C0000430134B5B6803F00C02082A02D0114835
:1048D00006B07047C3F3834218326A4412F8100CD2
:1048E00013F4803F0DD00A4B5B68C3F34043183389
:1048F0006B4413F8143C074A02FB00F0B0FBF3F0E2
:10490000E6E7054B03FB00F0E2E700BF5890000824
:104910000010024000127A0000093D00002800F05B
:10492000A08070B50D460446524B1B6803F0070388
:104930008B420BD24F4A136823F007030B431360DB
:10494000136803F007038B4240F08D80236813F057
:10495000020F17D013F0040F04D0474A536843F4F2
:10496000E0635360236813F0080F04D0424A536891
:1049700043F460535360404A536823F0F003A16846
:104980000B435360236813F0010F31D06368012B90
:1049900020D0022B25D0384A126812F0020F64D0C2
:1049A00035494A6822F0030213434B60FFF7BAFB14
:1049B0000646314B5B6803F00C036268B3EB820F71
:1049C00016D0FFF7AFFB801B41F288339842F0D935
:1049D000032045E0284A126812F4003FE0D101208C
:1049E0003EE0254A126812F0007FD9D1012037E05D
:1049F000204B1B6803F00703AB420AD91D4A13681A
:104A000023F007032B431360136803F00703AB4243
:104A10002DD1236813F0040F06D0174A536823F4EE
:104A2000E063E1680B435360236813F0080F07D07D
:104A3000114A536823F46053216943EAC103536068
:104A4000FFF734FF0C4B5B68C3F303130B4AD35CD3
:104A5000D8400B4B18600B4B1868FFF7EFFA00209B
:104A600070BD012070470120FAE70120F8E701201E
:104A7000F6E700BF0020024000100240409000080E
:104A8000040000200C000020014B1868704700BF94
:104A90000400002008B5FFF7F7FF044B5B68C3F381
:104AA0000223034AD35CD84008BD00BF0010024077
:104AB0005090000808B5FFF7E7FF044B5B68C3F3AD
:104AC000C223034AD35CD84008BD00BF0010024097
:104AD000509000080F2303600B4B5A6802F003024A
:104AE00042605A6802F0F00282605A6802F4E062A2
:104AF000C2605B68DB0803F4E0630361034B1B687F
:104B000003F007030B6070470010024000200240D2
:104B100070B582B00446036813F0010F36D03F4BE6
:104B2000DB6913F0805F49D13C4BDA6942F0805277
:104B3000DA61DB6903F080530193019B0125384B57
:104B40001B6813F4807F3BD0344B1B6A13F4407313
:104B500013D0626802F440729A420ED02F4A136A50
:104B600023F440702F490126C1F840640026C1F8A3
:104B70004064106213F0010F36D1284A136A23F4FF
:104B8000407361680B431362002D3ED1236813F01C
:104B9000020F06D0214A536823F44043A1680B4317
:104BA0005360236813F0100F34D01C4A536823F469
:104BB000800361690B43536000202CE00025BEE7B1
:104BC000174A136843F480731360FFF7ABFA064685
:104BD000134B1B6813F4807FB6D1FFF7A3FA801B39
:104BE0006428F5D9032016E0FFF79CFA06460B4B24
:104BF0001B6A13F0020FC0D1FFF794FA801B41F239
:104C000088339842F3D9032005E0D36923F0805319
:104C1000D361BBE7002002B070BD00BF00100240AE
:104C2000007000400000424200B587B084463E4B11
:104C30000FCB0DF1180E0EE90F0040F20123ADF875
:104C400004300CF1FF300F2867D8DFE800F0395B43
:104C50006633666666366666666666666608334B03
:104C60005A68186810F0807058D0C2F38343183324
:104C70006B4413F8100C12F4803F17D02B4B5B6879
:104C8000C3F3404318336B4413F8142C284BB3FB85
:104C9000F2F303FB00F0254B5B6813F4800F3DD16A
:104CA0004000244BA3FB0030400837E0224B03FBBD
:104CB00000F0F0E7FFF7FAFD30E0FFF7F7FD2DE039
:104CC0001A4B1B6A40F202321A40B2F5817F28D09B
:104CD00003F44073B3F5007F04D0B3F5407F09D0EF
:104CE00000201BE0114A526A12F0020FF5D049F67B
:104CF000404013E00D4B186810F400300ED04FF216
:104D000024400BE0FFF7D6FE084B5B68C3F381330A
:104D100001335B00B0FBF3F000E0002007B05DF86A
:104D200004FB4FF40040F9E75890000800100240DF
:104D300000127A00ABAAAAAA00093D0010B40268CA
:104D400094691FFA84FCD369916988B2844505D0BF
:104D5000D06980B240EA014010BC704798B240EA86
:104D60000440F9E70368186A5B6A9BB243EA0040B3
:104D70007047030903EB830300F00F0000EB4300CF
:104D8000C0B2704700F5FA6C022921D801EB41034B
:104D9000C1EBC3011E4BA3FB011302EB530363449E
:104DA00000F2CF7003EB90031A4AA2FB0020A3EBA2
:104DB000501303EBD01304331748A0FB03201A1A37
:104DC00000EB52008008C0EBC000181AC0B2704758
:104DD00001EB4103C1EBC3010D4BA3FB011302EB3C
:104DE0005303634403EB9C030A4AA2FB0C2CA3EB82
:104DF0005C1303EBDC1302330748A0FB03201A1AF1
:104E000000EB52008008C0EBC000181ADEE700BFBC
:104E1000398EE3381F85EB512549922438B5044675
:104E2000FFF780F9054623685A6812F0200F07D172
:104E3000FFF778F9401BB0F57A7FF4D9032004E03E
:104E40005A6842F010025A60002038BD38B5044656
:104E50000268536823F010035360FFF763F90546B7
:104E600023685B6813F0200F07D1FFF75BF9401B45
:104E7000B0F57A7FF4D9032000E0002038BD38B5C2
:104E800005460C46FFF7CAFF08B1012038BD2B6864
:104E9000220C9A612B68A4B2DC612846FFF7D6FF8A
:104EA0000028F3D00120F1E738B505460C46FFF79E
:104EB000B5FF08B1012038BD2B68220C1A622B689F
:104EC000A4B25C622846FFF7C1FF0028F3D001209E
:104ED000F1E770B5002857D00D460646002955D099
:104EE000037C012B54D00123037402234374BAB909
:104EF00008784B78C3EB03139C004FF4616303FB0A
:104F000000448878044421463046FFF7B8FF054640
:104F1000C8B104237374002333740125284670BD7F
:104F20000878FFF726FF4FF4616400FB04F468780B
:104F3000FFF71FFFC0EB001004EB8004A878FFF719
:104F400018FF0444DFE73268536823F00503536019
:104F50003046FFF707FFB0F1FF3F01D0844204D88D
:104F60000123737400233374D8E700F5A83101F5E9
:104F7000C0713046FFF798FF0028F1D00423737406
:104F8000002333740125C9E70125C7E70125C5E7DB
:104F90000225C3E700285AD038B50D46044600293B
:104FA00057D0037C012B56D0012303740223437492
:104FB000BAB9CB78C3734B7843738B788373A27B76
:104FC000617BE07BFFF7DEFE207328702046FFF751
:104FD000B5FE224B984211D801236374002020743F
:104FE00038BDC878FFF7C5FEE0736878FFF7C1FEEB
:104FF0006073A878FFF7BDFEA073E0E7184DA5FB2E
:1050000000352D0C174B03FB150529462046FFF7ED
:1050100036FF28B104236374002323740120DFE7E3
:105020002046FFF79FFEB0F1FF3FD5D08542D3D990
:1050300000F5A83101F5C0712046FFF735FF0028C3
:10504000CAD004236374002323740120C8E701201D
:1050500070470120C4E70220C2E700BF8F5F010054
:1050600007452EC280510100C0B138B5054602681F
:10507000536823F008035360FFF754F804462B6885
:105080005B6813F0080F07D1FFF74CF8001BB0F571
:105090007A7FF4D9032000E0002038BD012070475A
:1050A000002857D010B50446437C4BB102236374EB
:1050B0002046FFF7D9FF38B104236374012010BDE7
:1050C0000374FEF769FFF1E72046FFF7A7FE60BB18
:1050D0002268536823F007035360A36823B11E4A74
:1050E000136B23F0010313631B4AD36A23F4607329
:1050F000A1680B43D3626268B2F1FF3F19D0216807
:105100008B6823F00F0343EA12438B602168CB685E
:105110001B0C1B0492B21343CB602046FFF796FE94
:1051200088B1042363740120C9E704236374012058
:10513000C5E70120FFF778FD08B1421EDFE7042331
:1051400063740120BBE70023E37301236373A3733C
:105150006374B4E701207047006C004070477047EB
:1051600003681A6812F0010F1CD010B504465A6883
:1051700012F0010F10D05B6813F0040F0DD0FFF791
:10518000EEFF23686FF004025A6004236374226800
:10519000536823F00103536010BDFFF7DFFF0123C5
:1051A0006374F4E77047704790F83D30DBB2012B31
:1051B0002FD1022380F83D300268D36843F0010309
:1051C000D3600368154A934218D002F500629342F7
:1051D00014D0B3F1804F11D0A2F5983293420DD084
:1051E00002F58062934209D002F58062934205D0B5
:1051F0001A6842F001021A60002070479A6802F0B3
:105200000702062A07D01A6842F001021A6000203D
:105210007047012070470020704700BF002C0140FC
:10522000704770477047704710B5044603681A69A5
:1052300012F0020F11D0DA6812F0020F0DD06FF0E9
:1052400002021A610123037703689B6913F0030FBD
:1052500070D0FFF7E6FF0023237723681A6912F066
:10526000040F12D0DA6812F0040F0ED06FF00402AF
:105270001A610223237723689B6913F4407F5FD070
:105280002046FFF7CEFF0023237723681A6912F028
:10529000080F12D0DA6812F0080F0ED06FF0080273
:1052A0001A61042323772368DB6913F0030F4ED0C0
:1052B0002046FFF7B6FF0023237723681A6912F010
:1052C000100F12D0DA6812F0100F0ED06FF010022B
:1052D0001A61082323772368DB6913F4407F3DD0EC
:1052E0002046FFF79EFF0023237723681A6912F0F8
:1052F000010F03D0DA6812F0010F36D123681A6962
:1053000012F0800F03D0DA6812F0800F34D12368D6
:105310001A6912F0400F03D0DA6812F0400F32D150
:1053200023681A6912F0200F03D0DA6812F0200FF8
:1053300030D110BDFFF774FF2046FFF773FF8AE7F7
:105340002046FFF76DFF2046FFF76CFF9BE72046E6
:10535000FFF766FF2046FFF765FFACE72046FFF743
:105360005FFF2046FFF75EFFBDE76FF001021A61A5
:105370002046FEF759FDC1E76FF080021A61204612
:1053800000F089F8C3E76FF040021A612046FFF78A
:105390004AFFC5E76FF020021A61204600F07AF854
:1053A000C7E700000368244A904212D002F5006269
:1053B00090420ED0B0F1804F0BD0A2F598329042BF
:1053C00007D002F58062904203D002F580629042DD
:1053D00003D123F070034A681343174A904212D056
:1053E00002F5006290420ED0B0F1804F0BD0A2F5D2
:1053F0009832904207D002F58062904203D002F5C5
:105400008062904203D123F44073CA68134323F0AF
:1054100080034A69134303608B68C3620B6883622D
:10542000054B984203D003F50063984201D10B6904
:105430000363012343617047002C014040B310B562
:10544000044690F83D30F3B1022384F83D30214604
:1054500051F8040BFFF7A6FF012384F8463084F8C7
:105460003E3084F83F3084F8403084F8413084F88E
:10547000423084F8433084F8443084F8453084F86E
:105480003D30002010BD80F83C30FFF78CFEDBE79C
:105490000120704770477047EFF3058393B9EFF32E
:1054A000108393B90C4B1868022804D080B90A4BBA
:1054B00001221A607047EFF31183002BF6D06FF0D2
:1054C000050070476FF0050070476FF005007047EA
:1054D0004FF0FF30704700BF3807002008B5EFF3EA
:1054E0000583B3B9EFF31083B3B90E4B1B68022BDE
:1054F00008D0012B13D10B4B02221A6001F09AFA4B
:10550000002008BDEFF31182002AF2D06FF00500F1
:10551000F7E76FF00500F4E76FF00500F1E74FF0F3
:10552000FF30EEE738070020F0B587B00024049480
:10553000EFF30584002C43D1EFF31083002B3FD110
:10554000334B1B68022B16D0002839D000238DF86E
:10555000173062B3156895B1936903B918235C1EBF
:10556000372C51D8546814F0010F4FD156694EB101
:105570004FEA960C08E0EFF311830BBBE4E70DF163
:105580001705E9E74FF0800C94682CB1D7685B2FC2
:1055900002D9176907B1B6B914B14FF0FF340CE066
:1055A000D46894B914699CB14FF0FF3405E000242D
:1055B00018234FF0800C0DF11705012C0AD0ACB167
:1055C000049807B0F0BD0124F7E74FF0FF34F4E78B
:1055D0000024F2E7146992680292019400930B464A
:1055E0006246294601F0B8F90490E9E704AA01925D
:1055F00000930B461FFA8CF2294601F0E7F90128C7
:10560000DED000230493DBE70020DAE70020D8E7B0
:105610003807002070B582B0EFF30583002B57D117
:105620000E461546EFF31083002B55D12E4B1B6809
:10563000022B0ED0002851D0B04251D37DB1AC68BE
:1056400014B1EB684F2B1AD8002C4BD1EB683BB14F
:105650003FE0EFF31183002BECD0002439E000236E
:1056600001280ED073BB314600F0ACFC044684B375
:1056700005B12D682946204600F082FF29E001236C
:10568000EEE7B3B903220021012000F051FC0446EB
:10569000002CECD0002EEAD000231A4619462046F2
:1056A00000F0AEFC0128E2D0204600F093FF002479
:1056B0000FE0AB68032200920022114600F0EFFBDE
:1056C0000446E5E7AA68314600F059FC0446CEE7F7
:1056D0000024204602B070BD0024FAE70024F8E759
:1056E0000024F6E70024F4E738070020034B0360AA
:1056F000034B0B6080231360704700BFDC06002063
:10570000DC040020034B0360034B0B604FF48073F9
:10571000136070473C0B00203C07002000F1080399
:1057200043604FF0FF328260C36003610023036077
:10573000704700230361704743684B609A688A6032
:10574000516099600861036801330360704730B4A9
:105750000D68B5F1FF3F11D000F108031C465B68EE
:105760001A68AA42FAD963684B6099608C606160DC
:10577000086103680133036030BC70470469F2E7D5
:105780000369416882688A60416851605A68824250
:1057900006D0002202611A68013A1A601868704740
:1057A00082685A60F5E7000082B0002301930D4B38
:1057B0001B68B3F1FF3F08D04FF0500383F311880B
:1057C000BFF36F8FBFF34F8FFEE74FF0500383F3AC
:1057D0001188BFF36F8FBFF34F8F019B002BFCD05D
:1057E00002B070471000002006480068006880F38F
:1057F000088862B661B6BFF34F8FBFF36F8F00DFCB
:1058000000BF000008ED00E04FF0807340F8043C5A
:1058100021F0010140F8081C034B40F80C3C40F813
:10582000202C4038704700BFA95700080000000036
:10583000074B19680868B0E8F00F80F30988BFF3D8
:105840006F8F4FF0000080F311884EF00D0E7047FF
:10585000F81700204FF0500383F31188BFF36F8FC8
:10586000BFF34F8F0B4A136801331360012B00D035
:1058700070474FF0E023D3F8043D13F0FF0FF7D04B
:105880004FF0500383F31188BFF36F8FBFF34F8F37
:10589000FEE700BF10000020094B1B6843B94FF022
:1058A000500383F31188BFF36F8FBFF34F8FFEE771
:1058B000013B034A13600BB983F31188704700BFA3
:1058C00010000020000000000000000000000000A8
:1058D000EFF30980BFF36F8F0D4B1A6820E9F00FCB
:1058E00010602DE908404FF0500080F3118801F05E
:1058F0002BFA4FF0000080F31188BDE808401968CA
:105900000868B0E8F00F80F30988BFF36F8F704725
:10591000F817002008B54FF0500383F31188BFF348
:105920006F8FBFF34F8F01F0E1F828B14FF0E02304
:105930004FF08052C3F8042D002383F3118808BD73
:105940004FF0E022002313619361054B1B6805496A
:10595000A1FB03139B09013B5361072313617047AC
:1059600004000020D34D621010B582B02A4B1A7883
:10597000D2B20192FF221A701B78DBB28DF803308D
:105980009DF8033003F05003244A1370244B072280
:105990001A6009E0224A1368013B13609DF8033046
:1059A0005B00DBB28DF803309DF8033013F0800FFD
:1059B000F0D11B4B1B68032B08D04FF0500383F32F
:1059C0001188BFF36F8FBFF34F8FFEE71B02144A9E
:1059D000136003F4E0631360019BDBB20E4A1370A3
:1059E0004FF0E023D3F8202D42F47002C3F8202DAD
:1059F000D3F8202D42F07042C3F8202DFFF7A0FF0E
:105A00000024084B1C60FFF7EFFE01F09DF9FFF743
:105A1000CBFE204602B010BD00E400E0980B002051
:105A20009C0B002010000020EFF305830F2B0FD9F3
:105A3000114A9B5CDBB2114A12789A4208D94FF0A6
:105A4000500383F31188BFF36F8FBFF34F8FFEE7CF
:105A50004FF0E023D3F80C3D03F4E063084A1268EA
:105A6000934208D94FF0500383F31188BFF36F8F2F
:105A7000BFF34F8FFEE77047F0E300E0980B002084
:105A80009C0B0020124A12F0070F1ED0D11D21F0EE
:105A90000701C1F5406313440A460E480260002125
:105AA00041601344083B23F007030B48036059602F
:105AB0001960991A51601360084B1960084B1960FE
:105AC000084B4FF000421A6070474FF44063E4E720
:105AD000A40B0020B0170020A00B0020AC17002062
