:020000040800F2
:1000000000C00020596C0008E5410008E7410008E5
:10001000E9410008EB410008ED4100080000000044
:100020000000000000000000000000007152000805
:10003000EF4100080000000011530008555300086C
:10004000A16C0008A16C0008A16C0008A16C00085C
:10005000A16C0008A16C0008A16C0008A16C00084C
:10006000A16C0008A16C0008A16C0008A16C00083C
:10007000A16C0008A16C0008A16C0008A16C00082C
:10008000A16C0008A16C0008A16C0008A16C00081C
:10009000A16C0008A16C0008A16C0008A16C00080C
:1000A000A16C0008A16C0008A16C0008A16C0008FC
:1000B000A16C0008A16C0008A16C0008A16C0008EC
:1000C000A16C0008A16C0008A16C0008A16C0008DC
:1000D000A16C0008A16C0008A16C0008A16C0008CC
:1000E000A16C0008A16C0008A16C0008A16C0008BC
:1000F000A16C0008A16C0008A16C0008A16C0008AC
:10010000A16C0008A16C0008A16C0008A16C00089B
:10011000A16C0008A16C0008F1410008A16C000866
:10012000A16C0008A16C0008A16C0008A16C00087B
:1001300000000000000000000000000000000000BF
:1001400000000000000000000000000000000000AF
:10015000000000000000000000000000000000009F
:10016000000000000000000000000000000000008F
:10017000000000000000000000000000000000007F
:10018000000000000000000000000000000000006F
:10019000000000000000000000000000000000005F
:1001A000000000000000000000000000000000004F
:1001B000000000000000000000000000000000003F
:1001C000000000000000000000000000000000002F
:1001D000000000000000000000000000000000001F
:0401E0005FF8E0F1F3
:1001F00010B5054C237833B9044B13B10448AFF361
:1002000000800123237010BD4C040020000000007A
:10021000706E000808B5034B1BB103490348AFF3E8
:10022000008008BD0000000050040020706E00082F
:1002300070B54FF0FF0C4CF4E06C1CEA11541DBF7C
:100240001CEA135594EA0C0F95EA0C0F00F0DEF847
:100250002C4481EA030621EA4C5123EA4C5350EA2C
:10026000013518BF52EA033541F4801143F480137D
:1002700038D0A0FB02CE4FF00005E1FB02E506F00E
:100280000042E0FB03E54FF00006E1FB03569CF063
:10029000000F18BF4EF0010EA4F1FF04B6F5007F69
:1002A00064F5407404D25FEA4E0E6D4146EB0606DB
:1002B00042EAC62141EA55514FEAC52040EA5E5064
:1002C0004FEACE2EB4F1FD0C88BFBCF5E06F1ED80E
:1002D000BEF1004F08BF5FEA500E50F1000041EB45
:1002E000045170BD06F0004646EA010140EA0200F2
:1002F00081EA0301B4EB5C04C2BFD4EB0C0541EA14
:10030000045170BD41F480114FF0000E013C00F328
:10031000AB8014F1360FDEBF002001F0004170BD4C
:10032000C4F10004203C35DA0C341BDC04F1140465
:10033000C4F1200500FA05F320FA04F001FA05F2F1
:1003400040EA020001F0004221F0004110EBD370BE
:1003500021FA04F642EB06015EEA430E08BF20EAEA
:10036000D37070BDC4F10C04C4F1200500FA04F38D
:1003700020FA05F001FA04F240EA020001F000411F
:1003800010EBD37041F100015EEA430E08BF20EA92
:10039000D37070BDC4F1200500FA05F24EEA020EDA
:1003A00020FA04F301FA05F243EA020321FA04F009
:1003B00001F0004121FA04F220EA020000EBD370C0
:1003C0005EEA430E08BF20EAD37070BD94F0000FC0
:1003D0000FD101F00046400041EB010111F4801FF4
:1003E00008BF013CF7D041EA060195F0000F18BFA5
:1003F000704703F00046520043EB030313F4801FE1
:1004000008BF013DF7D043EA0603704794EA0C0F9A
:100410000CEA135518BF95EA0C0F0CD050EA4106B0
:1004200018BF52EA4306D1D181EA030101F000412D
:100430004FF0000070BD50EA410606BF1046194655
:1004400052EA430619D094EA0C0F02D150EA013661
:1004500013D195EA0C0F05D152EA03361CBF1046A2
:1004600019460AD181EA030101F0004141F0FE4141
:1004700041F470014FF0000070BD41F0FE4141F4C5
:10048000780170BD81F0004102E000BF83F00043BD
:1004900030B54FEA41044FEA430594EA050F08BF1F
:1004A00090EA020F1FBF54EA000C55EA020C7FEAE3
:1004B000645C7FEA655C00F0E2804FEA5454D4EB60
:1004C0005555B8BF6D420CDD2C4480EA020281EA2A
:1004D000030382EA000083EA010180EA020281EA62
:1004E0000303362D88BF30BD11F0004F4FEA0131B4
:1004F0004FF4801C4CEA113102D0404261EB4101C3
:1005000013F0004F4FEA03334CEA133302D0524248
:1005100063EB430394EA050F00F0A780A4F1010404
:10052000D5F1200E0DDB02FA0EFC22FA05F280183E
:1005300041F1000103FA0EF2801843FA05F3594124
:100540000EE0A5F120050EF1200E012A03FA0EFCA3
:1005500028BF4CF0020C43FA05F3C01851EBE371CD
:1005600001F0004507D54FF0000EDCF1000C7EEBEA
:1005700000006EEB0101B1F5801F1BD3B1F5001F28
:100580000CD349085FEA30004FEA3C0C04F1010447
:100590004FEA445212F5800F80F09A80BCF1004F70
:1005A00008BF5FEA500C50F1000041EB045141EAF2
:1005B000050130BD5FEA4C0C404141EB0101013CBB
:1005C00028BFB1F5801FE9D291F0000F04BF0146AA
:1005D0000020B1FA81F308BF2033A3F10B03B3F17C
:1005E00020020CDA0C3208DD02F1140CC2F10C020C
:1005F00001FA0CF021FA02F10CE002F11402D8BF6A
:10060000C2F1200C01FA02F120FA0CFCDCBF41EA35
:100610000C019040E41AA2BF01EB0451294330BD04
:100620006FEA04041F3C1CDA0C340EDC04F11404E1
:10063000C4F1200220FA04F001FA02F340EA0300B8
:1006400021FA04F345EA030130BDC4F10C04C4F1FE
:10065000200220FA02F001FA04F340EA03002946DE
:1006600030BD21FA04F0294630BD94F0000F83F428
:10067000801306BF81F480110134013D4EE77FEA0B
:10068000645C18BF7FEA655C29D094EA050F08BF57
:1006900090EA020F05D054EA000C04BF1946104638
:1006A00030BD91EA030F1EBF0021002030BD5FEA7C
:1006B000545C05D14000494128BF41F0004130BDA4
:1006C00014F580043CBF01F5801130BD01F00045F8
:1006D00045F0FE4141F470014FF0000030BD7FEA6B
:1006E000645C1ABF194610467FEA655C1CBF0B4666
:1006F000024650EA013406BF52EA033591EA030F7D
:1007000041F4002130BD00BF90F0000F04BF002174
:10071000704730B54FF4806404F132044FF00005A7
:100720004FF0000150E700BF90F0000F04BF002120
:10073000704730B54FF4806404F1320410F0004586
:1007400048BF40424FF000013EE700BF42004FEA81
:10075000E2014FEA31014FEA02701FBF12F07F43FE
:1007600093F07F4F81F06051704732F07F4208BFB5
:10077000704793F07F4F04BF41F40021704730B5BC
:100780004FF4607401F0004521F000411CE700BF08
:1007900050EA010208BF704730B54FF000050AE08B
:1007A00050EA010208BF704730B511F0004502D58C
:1007B000404261EB41014FF4806404F132045FEA8E
:1007C000915C3FF4D8AE4FF003025FEADC0C18BF37
:1007D00003325FEADC0C18BF033202EBDC02C2F129
:1007E000200300FA03FC20FA02F001FA03FE40EABB
:1007F0000E0021FA02F11444BDE600BF4A0011D2F6
:1008000012F5001211D20DD56FF47873B3EB62526A
:100810000ED44FEAC12343F0004343EA505323FA76
:1008200002F070474FF00000704750EA013002D1EB
:100830004FF0FF3070474FF000007047844641EAA8
:10084000000313F0030349D1403A23D30B6803603C
:100850004B6843608B688360CB68C3600B6903613E
:100860004B6943618B698361CB69C3610B6A036226
:100870004B6A43628B6A8362CB6AC3620B6B03630E
:100880004B6B43638B6B8363CB6BC36340304031F3
:10089000403ADBD230320BD30B6803604B684360C5
:1008A0008B688360CB68C36010301031103AF3D28C
:1008B0000C3205D351F8043B40F8043B043AF9D21A
:1008C000043208D0D2071CBF11F8013B00F8013BED
:1008D00001D30B8803806046704700BF082A13D3FA
:1008E0008B07B1D010F00303AED0C3F10403D21ACA
:1008F000DB071CBF11F8013B00F8013BA4D331F822
:10090000023B20F8023B9FE7043AD9D3013A11F8A1
:10091000013B00F8013BF9D20B7803704B78437030
:100920008B7883706046704700B583B000238DF8E4
:10093000073007E003238DF8073015E04FF4967079
:1009400005F0DCFD00238DF807304FF40041164818
:1009500003F008FE10B902238DF807300121124878
:1009600003F000FE0128E5D02021104803F0FAFD35
:1009700010B901238DF807309DF807307BB10023B3
:1009800032220DF107010A48006805F010F800282E
:10099000D4D10021064B186804F046FFCEE70520AD
:1009A00005F0ACFDCEE700BF00080140001001409B
:1009B00068040020F0B585B0494E306805F00CFAA7
:1009C0000546484B0193102400941823C82228217F
:1009D0000A2003F013FB019500941823C822282154
:1009E000782003F00BFB306805F0CDF905463E4B4F
:1009F000019300941823C82246210A2003F0FEFA2E
:100A0000009402232A464621642003F0ADFA374BB6
:100A1000019300941823C8226E210A2003F0EEFAF5
:100A2000334B019300941823C82296210A2003F027
:100A3000E5FA24E02F4A13880A3B13802E4B1B88CB
:100A40002C4A1288934201D22A4A13802A4B5B888F
:100A50002A4A1288934201D2284A1380274D254FF3
:100A6000274C284E2B883A882188308803F0A4F937
:100A70003B8833802B8823800A2005F03FFD184CEB
:100A8000206805F06DF902461025009502236E21BD
:100A9000C82003F069FA206805F075F90246009550
:100AA00002239621C82003F05FFA32220DF10F01D4
:100AB000206805F0A6F80128E1D19DF80F30012B40
:100AC000B8D0022B06D0032BB8D10C4A13880A33B6
:100AD0001380B3E7074A13880A331380AEE700BFD9
:100AE00068040020886E0008986E0008A86E000850
:100AF000C46E0008000000207804002002000020DE
:100B0000060000200400002008B50B4A01210A203D
:100B100004F0AEFA094B1860094A0021094804F0B4
:100B200031FA094B1860094A0021094804F02AFAF1
:100B3000084B186008BD00BF086F0008680400205B
:100B4000446F00082909000870040020206F000885
:100B5000B50900086C0400202DE9F04188B000249C
:100B600004940594069407942C4B9A6942F0100261
:100B70009A619A6902F010020192019A9A6942F010
:100B800020029A619A6902F020020292029A9A69FE
:100B900042F004029A619B6903F004030393039BF0
:100BA0001F4E22464FF48071304603F0E2FCDFF81E
:100BB000748022460421404603F0DBFC01250495A5
:100BC00005940227069704A9304603F0ABFB2023C7
:100BD00004930594069504A9134803F0A3FB4FF46E
:100BE0008073049305950694079704A9304603F093
:100BF00099FB4FF4004304930594069504A93046ED
:100C000003F090FB0423049305950694079704A929
:100C1000404603F087FB08B0BDE8F08100100240B9
:100C2000000801400014014000100140064B4FF441
:100C300080725A614FF400725A610449C860802181
:100C4000596119611A61704700100140000C0140A0
:100C5000064B4FF480721A614FF400725A610449D6
:100C6000C8608021596119611A6170470010014004
:100C7000000C014010B4104B4FF088321A605A60DB
:100C80000022DA6002F1804202F588324FF480716E
:100C900011614FF4007151614024546198681461EE
:100CA00011614FF033321A605A604FF6FF72DA600A
:100CB00080B210BC704700BF000C014010B50C465C
:100CC000FFF7B4FF064B4FF480721A614FF40072C5
:100CD0005A610449CC608021596119611A6110BDC3
:100CE00000100140000C014008B5024B1889FFF7C5
:100CF0009DFF08BD780400202DE9F84F06460D46FB
:100D00008E4B9B8841F66312934245D045F21052B8
:100D1000934200F0C780DFF824B2BBF80A00FFF767
:100D200085FF874C4FF4807AC4F810A04FF4007709
:100D30006761330ADFF80C92C9F80C304FF0800875
:100D4000C4F81480C4F810802761C4F810A067614B
:100D5000F6B2C9F80C60C4F81480C4F8108027619A
:100D6000BBF80C00FFF762FFC4F810A067612B0A04
:100D7000C9F80C30C4F81480C4F810802761C4F896
:100D800010A06761EDB2C9F80C50C4F81480C4F823
:100D900010802761BDE8F88F684B9B79002B54D1F8
:100DA000664B1C88241AA4B2013CA4B25889FFF7F0
:100DB0003DFF634B4FF480761E614FF400725A6121
:100DC00060480027C7608021596119611A611E615E
:100DD0005A61C760596119611A611E615A61270A17
:100DE000C760596119611A611E615A61E4B2C46039
:100DF000596119611A61514FB889FFF717FF504BBC
:100E00004FF480761E614FF400725A61290A4D4CEE
:100E1000E1608020586118611A611E615A61EDB26B
:100E2000E560586118611A611E615A61798801395B
:100E30000D12E560586118611A611E615A61C9B2EC
:100E4000E160586118611A61A4E7DFF8F080B8F832
:100E50000A00FFF7EBFE3A4B4FF480771F614FF427
:100E600000725A61310A374CE16080215961196181
:100E70001A611F615A61F6B2E660596119611A611F
:100E80001F615A61B8F8000001380612E660596126
:100E900019611A611F615A61C0B2E060596119613C
:100EA0001A61A8E7DFF894B0BBF80A00FFF7BEFEAE
:100EB000234C4FF4807AC4F810A04FF40077676198
:100EC000330ADFF88090C9F80C304FF08008C4F87E
:100ED0001480C4F810802761BBF80A00013080B28A
:100EE000FFF7A4FEC4F810A06761F6B2C9F80C6061
:100EF000C4F81480C4F810802761BBF80C00FFF719
:100F000095FEC4F810A067612B0AC9F80C30C4F82C
:100F10001480C4F810802761BBF80C00013080B247
:100F2000FFF784FEC4F810A06761EDB2C9F80C5059
:100F3000C4F81480C4F8108027612BE778040020DF
:100F400000100140000C01402DE9F0476A4B9B79ED
:100F5000012B10D02BB9684B9A8841F663139A4243
:100F60000FD00138062800F2B880DFE800F0A8A60C
:100F7000A4A2A09E1600604A918841F66312914295
:100F8000E8D00728EDD8DFE800F0A6A4A0A2060468
:100F90009E9C002402E0802400E0E024564B9B88C5
:100FA00045F21052934200F09A80362049F24132C5
:100FB000934203D047F28972934201D144F008046E
:100FC0002146FFF77BFE4C4B9B8841F66312934210
:100FD0000BD014F0200F00F08580474A118852880A
:100FE000914202D244480280418045F2105293421D
:100FF00000F08880DFF80091B9F80A00FFF716FECC
:101000003E4C4FF48078C4F810804FF40075656151
:101010003B4F4FF0000AC7F80CA08026666126619E
:101020002561C4F810806561C7F80CA0666126616F
:101030002561C4F810806561B9F80030013B1A12CF
:10104000FA60666126612561C4F810806561DBB2D3
:10105000FB60666126612561B9F80C00FFF7E6FDCB
:10106000C4F810806561C7F80CA06661266125612F
:10107000C4F810806561C7F80CA06661266125611F
:10108000C4F810806561B9F80230013B1A12FA60A9
:10109000666126612561C4F810806561DBB2FB6082
:1010A000666126612561BDE8F087A02476E76024AB
:1010B00074E7202472E7C02470E740246EE78024A0
:1010C0006CE740246AE7C02468E7202466E76024D0
:1010D00064E7E02462E7A02460E700245EE74FF4C1
:1010E000585063E7044A1188528891427FF67DAFD9
:1010F00001480280418078E7780400200010014018
:10110000000C01403D4F7889FFF790FD3C4C4FF4B7
:101110008079C4F810904FF400756561DFF8E480C1
:101120004FF0000AC8F80CA0802666612661256190
:101130007889013080B2FFF779FDC4F810906561BD
:10114000C8F80CA06661266125617889023080B2FA
:10115000FFF76CFDC4F8109065613B88013B1B12E2
:10116000C8F80C306661266125617889033080B249
:10117000FFF75CFDC4F8109065613B88013BDBB272
:10118000C8F80C30666126612561B889FFF74EFD0D
:10119000C4F810906561C8F80CA0666126612561ED
:1011A000B889013080B2FFF741FDC4F81090656145
:1011B000C8F80CA0666126612561B889023080B24A
:1011C000FFF734FDC4F8109065617B88013B1B126A
:1011D000C8F80C30666126612561B889033080B299
:1011E000FFF724FDC4F8109065617B88013BDBB2FA
:1011F000C8F80C3066612661256154E77804002048
:1012000000100140000C014008B5FFF775FDFFF725
:101210006BFD084B4FF480721A614FF400725A61F3
:10122000054908880549C8608021596119611A611A
:1012300008BD00BF0010014074040020000C0140F4
:101240002DE9F04F83B005460E460192904B9B88E6
:1012500045F21052934200F08E8041F663129342A1
:1012600040F0D5808A4B9B792BB9894B1888451B58
:10127000ADB2013DADB2DFF81892B9F80A00FFF740
:10128000D5FC844C4FF4807BC4F810B04FF4007749
:1012900067612B0ADFF800A2CAF80C304FF0800813
:1012A000C4F81480C4F810802761C4F810B06761D6
:1012B000EDB2CAF80C50C4F81480C4F8108027614D
:1012C000C4F810B06761CAF80C30C4F81480C4F8D0
:1012D00010802761C4F810B06761CAF80C50C4F8D8
:1012E0001480C4F810802761B9F80C00FFF79EFC49
:1012F000C4F810B06761330ACAF80C30C4F814801F
:10130000C4F810802761C4F810B06761F6B2CAF85B
:101310000C60C4F81480C4F810802761C4F810B0C1
:101320006761CAF80C30C4F81480C4F810802761D3
:10133000C4F810B06761CAF80C60C4F81480C4F82F
:1013400010802761534B4FF480745C614FF400723E
:101350005A614F4909895048C1608021596119611A
:101360001A611C615A61019CC460596119611A615A
:1013700003B0BDE8F08FDFF818B1BBF80A00FFF743
:1013800055FC444C4FF4807AC4F810A04FF4007719
:1013900067612B0ADFF80091C9F80C304FF0800824
:1013A000C4F81480C4F810802761BBF80A0001302B
:1013B00080B2FFF73BFCC4F810A06761EDB2C9F83A
:1013C0000C50C4F81480C4F810802761BBF80C00DE
:1013D000FFF72CFCC4F810A06761330AC9F80C3081
:1013E000C4F81480C4F810802761BBF80C000130E9
:1013F00080B2FFF71BFCC4F810A06761F6B2C9F811
:101400000C60C4F81480C4F8108027619AE7DFF8F4
:101410008090B9F80A00FFF709FC1E4C4FF4807B5E
:10142000C4F810B04FF4007767612B0ADFF868A0AA
:10143000CAF80C304FF08008C4F81480C4F810804B
:101440002761C4F810B06761EDB2CAF80C50C4F857
:101450001480C4F810802761B9F80C00FFF7E6FB90
:10146000C4F810B06761330ACAF80C30C4F81480AD
:10147000C4F810802761C4F810B06761F6B2CAF8EA
:101480000C60C4F81480C4F8108027615AE700BFCC
:101490007804002000100140000C01400000000012
:1014A0002DE9F8438146BE20FFF7C0FB224C4FF4E4
:1014B0008078C4F810804FF4007565611F4F0523D4
:1014C000FB608026666126612561C4F81080656135
:1014D0004846FFF729F916A3D3E90023FEF7A8FE33
:1014E000FFF78CF9F860666126612561C4F8108009
:1014F00065610123FB60666126612561C4F8108087
:101500006561FF23FB60666126612561C4F8108078
:1015100065610023FB60666126612561C4F8108067
:101520006561FB60666126612561BDE8F88300BFE7
:10153000666666666666044000100140000C014065
:1015400008B5444B9871002843D1F0221A804FF41B
:10155000A0725A809B8845F21052934212D041F6F5
:10156000631293421FD03B4A2C2111812A215181C1
:101570002B21918145F21032934222D00020FFF7B7
:10158000E3FC08BD334A4FF4305111814FF4285128
:1015900051814FF42C5191814FF4F07111804FF42F
:1015A00048715180E6E72B4A2C2111812B21518172
:1015B0002A2191814FF4F07111804FF448715180CC
:1015C000D8E7244B4FF4A0721A804FF4F0725A807F
:1015D000D4E7204B4FF4A0721A80F0225A809B88E7
:1015E00045F21052934216D041F66312934223D033
:1015F000184A2C2111812A2151812B21918145F2F8
:1016000010329342BAD1134B4FF4F0721A804FF458
:10161000A0725A80B2E70F4A4FF4305111814FF453
:10162000285151814FF42C5191814FF44871118010
:101630004FF4F0715180E2E7064A2C2111812A21F2
:1016400051812B2191814FF4487111804FF4F07139
:101650005180D4E77804002070B506460E4B1A88F6
:101660005D8802FB05F500210846FFF745FBFFF703
:101670003BFB00220DE0094B4FF4807119614FF4E0
:1016800000715961064CE66080245C611C6119613F
:101690000132AA42EFD370BD78040020001001404F
:1016A000000C01402DE9F04F87B0814B9A6942F060
:1016B00008029A619A6902F008020092009A9A69F7
:1016C00042F010029A619B6903F010030193019BA1
:1016D0004FF4F863029301240394049403230593C5
:1016E00002A9744802F01EFE4FF6FF73029302A98E
:1016F000714802F017FE714A536823F0E06343F02B
:1017000080635360322002F0A1FD21460020FFF7E4
:10171000D5FA322002F09AFDD320FFF787FAFFF7BF
:10172000A9FA674CA080FFF7A5FAA080FFF7A2FAFC
:10173000A0800002A080FFF79DFAA388184380B222
:10174000A08049F24133984228D15D4B9B8849F2F1
:101750004132934200F0B88047F28972934200F020
:10176000C88145F21032934200F0968245F2105241
:10177000934201F00A8241F66312934202F08381A0
:101780000020FFF7DDFE4F4B0122C3F8A8214FF6E2
:10179000FF70FFF761FF07B0BDE8F08F0420FFF78F
:1017A00045FAFFF767FAA080FFF764FAA080FFF719
:1017B00061FAA0800002A080FFF75CFAA3881843BA
:1017C00080B2A08048F2525398426CD03C4B9A8829
:1017D00047F289739A42B8D0D420FFF727FAFFF76F
:1017E00049FA374CA080FFF745FAA080FFF742FA8C
:1017F000A0800002A080FFF73DFAA388184380B2C2
:10180000A08045F2103398429FD055214FF470408C
:10181000FFF754FAAA214FF20100FFF74FFA5221C5
:101820004FF20200FFF74AFA08214FF20300FFF7D8
:1018300045FA01214FF20400FFF740FA4FF445400A
:10184000FFF7F4F9FFF716FAA0800002A0804CF22F
:101850000150FFF7EBF9FFF70DFAA3881843A080BA
:10186000052002F0F3FCA28845F210539A423FF49F
:101870006CAFA120FFF7DAF9FFF7FCF9A080FFF7C2
:10188000F9F9A0800002A080FFF7F4F9A3880343D0
:101890009BB2A38045F2617293427FF456AF41F64A
:1018A0006312A28051E747F28972A2808EE700BFDF
:1018B0000010024000100140000C014000000140F7
:1018C0007804002000002242CF20FFF7AFF900206B
:1018D000FFF7BEF9C120FFF7BBF93020FFF7B8F9D9
:1018E000ED20FFF7A3F96420FFF7B2F90320FFF71B
:1018F000AFF91220FFF7ACF98120FFF7A9F9E82032
:10190000FFF794F98520FFF7A3F91020FFF7A0F95E
:101910007A20FFF79DF9CB20FFF788F93920FFF7F0
:1019200097F92C20FFF794F90020FFF791F9342064
:10193000FFF78EF90220FFF78BF9F720FFF776F912
:101940002020FFF785F9EA20FFF770F90020FFF764
:101950007FF90020FFF77CF9C020FFF767F91B2013
:10196000FFF776F9C120FFF761F90120FFF770F961
:10197000C520FFF75BF93020FFF76AF93020FFF749
:1019800067F9C720FFF752F9B720FFF761F9362052
:10199000FFF74CF94820FFF75BF93A20FFF746F9CB
:1019A0005520FFF755F9B120FFF740F90020FFF768
:1019B0004FF91A20FFF74CF9B620FFF737F90A2044
:1019C000FFF746F9A220FFF743F9F220FFF72EF9BF
:1019D0000020FFF73DF92620FFF728F90120FFF747
:1019E00037F9E020FFF722F90F20FFF731F92A201D
:1019F000FFF72EF92820FFF72BF90820FFF728F929
:101A00000E20FFF725F90820FFF722F95420FFF7F1
:101A10001FF9A920FFF71CF94320FFF719F90A2045
:101A2000FFF716F90F20FFF713F90020FFF710F961
:101A30000020FFF70DF90020FFF70AF90020FFF75B
:101A400007F9E120FFF7F2F80020FFF701F9152070
:101A5000FFF7FEF81720FFF7FBF80720FFF7F8F86D
:101A60001120FFF7F5F80620FFF7F2F82B20FFF71B
:101A7000EFF85620FFF7ECF83C20FFF7E9F80520D7
:101A8000FFF7E6F81020FFF7E3F80F20FFF7E0F884
:101A90003F20FFF7DDF83F20FFF7DAF80F20FFF7D0
:101AA000D7F82B20FFF7C2F80020FFF7D1F800206D
:101AB000FFF7CEF80120FFF7CBF83F20FFF7C8F87B
:101AC0002A20FFF7B3F80020FFF7C2F80020FFF745
:101AD000BFF80020FFF7BCF8EF20FFF7B9F811209E
:101AE000FFF7A4F8782002F0B1FB2920FFF79EF859
:101AF00046E61120FFF79AF8782002F0A7FB36207F
:101B0000FFF794F80020FFF7A3F83A20FFF78EF8CC
:101B10000520FFF79DF8B220FFF788F80C20FFF7AB
:101B200097F80C20FFF794F80020FFF791F8332086
:101B3000FFF78EF83320FFF78BF8B720FFF776F822
:101B40003520FFF785F8BB20FFF770F83220FFF74C
:101B50007FF8C020FFF76AF80C20FFF779F8C22061
:101B6000FFF764F80120FFF773F8C320FFF75EF872
:101B70001020FFF76DF8C420FFF758F82020FFF77A
:101B800067F8C620FFF752F80F20FFF761F8D02062
:101B9000FFF74CF8A420FFF75BF8A120FFF758F8F7
:101BA000E020FFF743F8D020FFF752F80020FFF7BE
:101BB0004FF80220FFF74CF80720FFF749F80A20FA
:101BC000FFF746F82820FFF743F83220FFF740F8E8
:101BD0004420FFF73DF84220FFF73AF80620FFF7D0
:101BE00037F80E20FFF734F81220FFF731F81420F1
:101BF000FFF72EF81720FFF72BF8E120FFF716F874
:101C0000D020FFF725F80020FFF722F80220FFF789
:101C10001FF80720FFF71CF80A20FFF719F8282003
:101C2000FFF716F83120FFF713F85420FFF710F8EC
:101C30004720FFF70DF80E20FFF70AF81C20FFF7EA
:101C400007F81720FFF704F81B20FFF701F81E2004
:101C5000FEF7FEFF2A20FEF7E9FF0020FEF7F8FF5F
:101C60000020FEF7F5FF0020FEF7F2FFEF20FEF761
:101C7000EFFF2B20FEF7DAFF0020FEF7E9FF002040
:101C8000FEF7E6FF0120FEF7E3FF3F20FEF7E0FF4F
:101C90002920FEF7CBFF73E5ED20FEF7C7FF0120FB
:101CA000FEF7D6FFFE20FEF7D3FFEE20FEF7BEFFC5
:101CB000DE20FEF7CDFF2120FEF7CAFFF120FEF760
:101CC000B5FF0120FEF7C4FFDF20FEF7AFFF1020B5
:101CD000FEF7BEFFC420FEF7A9FF8F20FEF7B8FF76
:101CE000C620FEF7A3FF0020FEF7B2FFE220FEF7BA
:101CF000AFFFE220FEF7ACFFE220FEF7A9FFBF2016
:101D0000FEF794FFAA20FEF7A3FFB020FEF78EFF98
:101D10000D20FEF79DFF0020FEF79AFF0D20FEF735
:101D200097FF0020FEF794FF1120FEF791FF00209F
:101D3000FEF78EFF1920FEF78BFF0020FEF788FFCD
:101D40002120FEF785FF0020FEF782FF2D20FEF701
:101D50007FFF0020FEF77CFF3D20FEF779FF00208B
:101D6000FEF776FF5D20FEF773FF0020FEF770FFA1
:101D70005D20FEF76DFF0020FEF76AFFB120FEF741
:101D800055FF8020FEF764FF0020FEF761FF8B20E7
:101D9000FEF75EFF0020FEF75BFF9620FEF758FF80
:101DA0000020FEF755FFB220FEF740FF0020FEF7AF
:101DB0004FFF0020FEF74CFF0220FEF749FF0020F6
:101DC000FEF746FF0320FEF743FF0020FEF740FF2B
:101DD000B320FEF72BFF0020FEF73AFF0020FEF7AE
:101DE00037FF0020FEF734FF0020FEF731FF002010
:101DF000FEF72EFF0020FEF72BFF0020FEF728FF46
:101E00000020FEF725FF0020FEF722FF0020FEF74E
:101E10001FFF0020FEF71CFF0020FEF719FF002027
:101E2000FEF716FF0020FEF713FF0020FEF710FF5D
:101E30000020FEF70DFF0020FEF70AFF0020FEF74E
:101E400007FF0020FEF704FF0020FEF701FF00203F
:101E5000FEF7FEFE0020FEF7FBFE0020FEF7F8FE78
:101E60000020FEF7F5FEB420FEF7E0FE8B20FEF723
:101E7000EFFE0020FEF7ECFE9620FEF7E9FE0020C4
:101E8000FEF7E6FEA120FEF7E3FE0020FEF7E0FEEF
:101E9000B520FEF7CBFE0220FEF7DAFE0020FEF7AB
:101EA000D7FE0320FEF7D4FE0020FEF7D1FE04206B
:101EB000FEF7CEFE0020FEF7CBFEB620FEF7B6FE04
:101EC0000020FEF7C5FE0020FEF7C2FEB720FEF799
:101ED000ADFE0020FEF7BCFE0020FEF7B9FE3F205D
:101EE000FEF7B6FE0020FEF7B3FE5E20FEF7B0FE62
:101EF0000020FEF7ADFE6420FEF7AAFE0020FEF7EC
:101F0000A7FE8C20FEF7A4FE0020FEF7A1FEAC2069
:101F1000FEF79EFE0020FEF79BFEDC20FEF798FEFB
:101F20000020FEF795FE7020FEF792FE0020FEF7DF
:101F30008FFE9020FEF78CFE0020FEF789FEEB203E
:101F4000FEF786FE0020FEF783FEDC20FEF780FE13
:101F50000020FEF77DFEB820FEF768FE0020FEF7A9
:101F600077FE0020FEF774FE0020FEF771FE0020D1
:101F7000FEF76EFE0020FEF76BFE0020FEF768FE07
:101F80000020FEF765FE0020FEF762FEBA20FEF795
:101F90004DFE2420FEF75CFE0020FEF759FE0020D7
:101FA000FEF756FE0020FEF753FEC120FEF73EFE70
:101FB0002020FEF74DFE0020FEF74AFE5420FEF7DB
:101FC00047FE0020FEF744FEFF20FEF741FE002002
:101FD000FEF73EFEC220FEF729FE0A20FEF738FE7D
:101FE0000020FEF735FE0420FEF732FE0020FEF74B
:101FF0002FFEC320FEF71AFE3C20FEF729FE00202C
:10200000FEF726FE3A20FEF723FE0020FEF720FE14
:102010003920FEF71DFE0020FEF71AFE3720FEF7DE
:1020200017FE0020FEF714FE3C20FEF711FE0020F4
:10203000FEF70EFE3620FEF70BFE0020FEF708FE30
:102040003220FEF705FE0020FEF702FE2F20FEF7ED
:10205000FFFD0020FEF7FCFD2C20FEF7F9FD00201F
:10206000FEF7F6FD2920FEF7F3FD0020FEF7F0FD58
:102070002620FEF7EDFD0020FEF7EAFD2420FEF706
:10208000E7FD0020FEF7E4FD2420FEF7E1FD00203F
:10209000FEF7DEFD2320FEF7DBFD0020FEF7D8FD76
:1020A0003C20FEF7D5FD0020FEF7D2FD3620FEF7DE
:1020B000CFFD0020FEF7CCFD3220FEF7C9FD002049
:1020C000FEF7C6FD2F20FEF7C3FD0020FEF7C0FD82
:1020D0002C20FEF7BDFD0020FEF7BAFD2920FEF7FB
:1020E000B7FD0020FEF7B4FD2620FEF7B1FD00206D
:1020F000FEF7AEFD2420FEF7ABFD0020FEF7A8FDA5
:102100002420FEF7A5FD0020FEF7A2FD2320FEF708
:102110009FFD0020FEF79CFDC420FEF787FD622096
:10212000FEF796FD0020FEF793FD0520FEF790FDDB
:102130000020FEF78DFD8420FEF78AFD0020FEF7CB
:1021400087FDF020FEF784FD0020FEF781FD1820BA
:10215000FEF77EFD0020FEF77BFDA420FEF778FD54
:102160000020FEF775FD1820FEF772FD0020FEF737
:102170006FFD5020FEF76CFD0020FEF769FD0C207E
:10218000FEF766FD0020FEF763FD1720FEF760FDF9
:102190000020FEF75DFD9520FEF75AFD0020FEF7BA
:1021A00057FDF320FEF754FD0020FEF751FDE62019
:1021B000FEF74EFD0020FEF74BFDC520FEF736FD75
:1021C0003220FEF745FD0020FEF742FD4420FEF7D9
:1021D0003FFD0020FEF73CFD6520FEF739FD0020A5
:1021E000FEF736FD7620FEF733FD0020FEF730FDCA
:1021F0008820FEF72DFD0020FEF72AFDC620FEF701
:1022000015FD2020FEF724FD0020FEF721FD1720FC
:10221000FEF71EFD0020FEF71BFD0120FEF718FD56
:102220000020FEF715FDC720FEF700FD0020FEF799
:102230000FFD0020FEF70CFD0020FEF709FD002039
:10224000FEF706FDC820FEF7F1FC0020FEF700FDBA
:102250000020FEF7FDFC0020FEF7FAFC0020FEF750
:10226000F7FCC920FEF7E2FC0020FEF7F1FC00209D
:10227000FEF7EEFC0020FEF7EBFC0020FEF7E8FC8A
:102280000020FEF7E5FC0020FEF7E2FC0020FEF750
:10229000DFFC0020FEF7DCFC0020FEF7D9FC00206C
:1022A000FEF7D6FC0020FEF7D3FC0020FEF7D0FCA2
:1022B0000020FEF7CDFC0020FEF7CAFC0020FEF750
:1022C000C7FC0020FEF7C4FCE020FEF7AFFC1620A0
:1022D000FEF7BEFC0020FEF7BBFC1C20FEF7B8FC9E
:1022E0000020FEF7B5FC2120FEF7B2FC0020FEF72F
:1022F000AFFC3620FEF7ACFC0020FEF7A9FC462020
:10230000FEF7A6FC0020FEF7A3FC5220FEF7A0FC7F
:102310000020FEF79DFC6420FEF79AFC0020FEF7EB
:1023200097FC7A20FEF794FC0020FEF791FC8B20AE
:10233000FEF78EFC0020FEF78BFC9920FEF788FC50
:102340000020FEF785FCA820FEF782FC0020FEF7A7
:102350007FFCB920FEF77CFC0020FEF779FCC4204E
:10236000FEF776FC0020FEF773FCCA20FEF770FC37
:102370000020FEF76DFCD220FEF76AFC0020FEF77D
:1023800067FCD920FEF764FC0020FEF761FCE0202A
:10239000FEF75EFC0020FEF75BFCF320FEF758FC26
:1023A0000020FEF755FCE120FEF740FC1620FEF76A
:1023B0004FFC0020FEF74CFC1C20FEF749FC0020DF
:1023C000FEF746FC2220FEF743FC0020FEF740FC0F
:1023D0003620FEF73DFC0020FEF73AFC4520FEF7D4
:1023E00037FC0020FEF734FC5220FEF731FC0020C1
:1023F000FEF72EFC6420FEF72BFC0020FEF728FCE5
:102400007A20FEF725FC0020FEF722FC8B20FEF749
:102410001FFC0020FEF71CFC9920FEF719FC002091
:10242000FEF716FCA820FEF713FC0020FEF710FCB8
:10243000B920FEF70DFC0020FEF70AFCC420FEF7D1
:1024400007FC0020FEF704FCCA20FEF701FC002078
:10245000FEF7FEFBD220FEF7FBFB0020FEF7F8FBA9
:10246000D820FEF7F5FB0020FEF7F2FBE020FEF798
:10247000EFFB0020FEF7ECFBF320FEF7E9FB00206A
:10248000FEF7E6FBE220FEF7D1FB0520FEF7E0FBBE
:102490000020FEF7DDFB0B20FEF7DAFB0020FEF745
:1024A000D7FB1B20FEF7D4FB0020FEF7D1FB342026
:1024B000FEF7CEFB0020FEF7CBFB4420FEF7C8FB67
:1024C0000020FEF7C5FB4F20FEF7C2FB0020FEF701
:1024D000BFFB6120FEF7BCFB0020FEF7B9FB7920B3
:1024E000FEF7B6FB0020FEF7B3FB8820FEF7B0FB3B
:1024F0000020FEF7ADFB9720FEF7AAFB0020FEF7B9
:10250000A7FBA620FEF7A4FB0020FEF7A1FBB72047
:10251000FEF79EFB0020FEF79BFBC220FEF798FB18
:102520000020FEF795FBC720FEF792FB0020FEF788
:102530008FFBD120FEF78CFB0020FEF789FBD62015
:10254000FEF786FB0020FEF783FBDD20FEF780FB15
:102550000020FEF77DFBF320FEF77AFB0020FEF75C
:1025600077FBE320FEF762FB0520FEF771FB0020FE
:10257000FEF76EFB0A20FEF76BFB0020FEF768FB00
:102580001C20FEF765FB0020FEF762FB3320FEF700
:102590005FFB0020FEF75CFB4420FEF759FB0020A8
:1025A000FEF756FB5020FEF753FB0020FEF750FBD2
:1025B0006220FEF74DFB0020FEF74AFB7820FEF775
:1025C00047FB0020FEF744FB8820FEF741FB00207C
:1025D000FEF73EFB9720FEF73BFB0020FEF738FBA3
:1025E000A620FEF735FB0020FEF732FBB720FEF7F2
:1025F0002FFB0020FEF72CFBC220FEF729FB00205A
:10260000FEF726FBC720FEF723FB0020FEF720FB8A
:10261000D120FEF71DFB0020FEF71AFBD520FEF7A8
:1026200017FB0020FEF714FBDD20FEF711FB002056
:10263000FEF70EFBF320FEF70BFB0020FEF708FB76
:10264000E420FEF7F3FA0120FEF702FB0020FEF77C
:10265000FFFA0120FEF7FCFA0020FEF7F9FA02204B
:10266000FEF7F6FA0020FEF7F3FA2A20FEF7F0FA5A
:102670000020FEF7EDFA3C20FEF7EAFA0020FEF714
:10268000E7FA4B20FEF7E4FA0020FEF7E1FA5D20BE
:10269000FEF7DEFA0020FEF7DBFA7420FEF7D8FA28
:1026A0000020FEF7D5FA8420FEF7D2FA0020FEF7CC
:1026B000CFFA9320FEF7CCFA0020FEF7C9FAA22049
:1026C000FEF7C6FA0020FEF7C3FAB320FEF7C0FA01
:1026D0000020FEF7BDFABE20FEF7BAFA0020FEF792
:1026E000B7FAC420FEF7B4FA0020FEF7B1FACD2005
:1026F000FEF7AEFA0020FEF7ABFAD320FEF7A8FAF9
:102700000020FEF7A5FADD20FEF7A2FA0020FEF772
:102710009FFAF320FEF79CFA0020FEF799FAE520D5
:10272000FEF784FA0020FEF793FA0020FEF790FAF5
:102730000020FEF78DFA0020FEF78AFA0220FEF74D
:1027400087FA0020FEF784FA2920FEF781FA00209C
:10275000FEF77EFA3C20FEF77BFA0020FEF778FABF
:102760004B20FEF775FA0020FEF772FA5D20FEF7A7
:102770006FFA0020FEF76CFA7420FEF769FA002069
:10278000FEF766FA8420FEF763FA0020FEF760FA8F
:102790009320FEF75DFA0020FEF75AFAA220FEF71A
:1027A00057FA0020FEF754FAB320FEF751FA002042
:1027B000FEF74EFABE20FEF74BFA0020FEF748FA6D
:1027C000C420FEF745FA0020FEF742FACD20FEF7BE
:1027D0003FFA0020FEF73CFAD320FEF739FA00203A
:1027E000FEF736FADC20FEF733FA0020FEF730FA67
:1027F000F320FEF72DFA0020FEF72AFAE620FEF776
:1028000015FA1120FEF724FA0020FEF721FA3420F1
:10281000FEF71EFA0020FEF71BFA5620FEF718FA04
:102820000020FEF715FA7620FEF712FA0020FEF7D8
:102830000FFA7720FEF70CFA0020FEF709FA66205F
:10284000FEF706FA0020FEF703FA8820FEF700FAEA
:102850000020FEF7FDF99920FEF7FAF90020FEF7B7
:10286000F7F9BB20FEF7F4F90020FEF7F1F9992003
:10287000FEF7EEF90020FEF7EBF96620FEF7E8F927
:102880000020FEF7E5F95520FEF7E2F90020FEF7FB
:10289000DFF95520FEF7DCF90020FEF7D9F94520D5
:1028A000FEF7D6F90020FEF7D3F94320FEF7D0F962
:1028B0000020FEF7CDF94420FEF7CAF90020FEF70C
:1028C000C7F9E720FEF7B2F93220FEF7C1F9002080
:1028D000FEF7BEF95520FEF7BBF90020FEF7B8F968
:1028E0007620FEF7B5F90020FEF7B2F96620FEF774
:1028F000AFF90020FEF7ACF96720FEF7A9F9002038
:10290000FEF7A6F96720FEF7A3F90020FEF7A0F96D
:102910008720FEF79DF90020FEF79AF99920FEF72F
:1029200097F90020FEF794F9BB20FEF791F90020FB
:10293000FEF78EF99920FEF78BF90020FEF788F953
:102940007720FEF785F90020FEF782F94420FEF794
:102950007FF90020FEF77CF95620FEF779F9002078
:10296000FEF776F92320FEF773F90020FEF770F9E1
:102970003320FEF76DF90020FEF76AF94520FEF7D7
:1029800067F90020FEF764F9E820FEF74FF9002010
:10299000FEF75EF90020FEF75BF99920FEF758F983
:1029A0000020FEF755F98720FEF752F90020FEF7C8
:1029B0004FF98820FEF74CF90020FEF749F97720FF
:1029C000FEF746F90020FEF743F96620FEF740F9CE
:1029D0000020FEF73DF98820FEF73AF90020FEF7C7
:1029E00037F9AA20FEF734F90020FEF731F9BB20B1
:1029F000FEF72EF90020FEF72BF99920FEF728F9B3
:102A00000020FEF725F96620FEF722F90020FEF7E8
:102A10001FF95520FEF71CF90020FEF719F9552083
:102A2000FEF716F90020FEF713F94420FEF710F91F
:102A30000020FEF70DF94420FEF70AF90020FEF70A
:102A400007F95520FEF704F90020FEF701F9E92007
:102A5000FEF7ECF8AA20FEF7FBF80020FEF7F8F8E6
:102A60000020FEF7F5F80020FEF7F2F80020FEF750
:102A7000DDF8AA20FEF7ECF8CF20FEF7D7F800200B
:102A8000FEF7E6F80020FEF7E3F80020FEF7E0F896
:102A90000020FEF7DDF80020FEF7DAF80020FEF750
:102AA000D7F80020FEF7D4F80020FEF7D1F8002078
:102AB000FEF7CEF80020FEF7CBF80020FEF7C8F8AE
:102AC0000020FEF7C5F80020FEF7C2F80020FEF750
:102AD000BFF80020FEF7BCF80020FEF7B9F8002090
:102AE000FEF7B6F8F020FEF7A1F80020FEF7B0F8E8
:102AF0005020FEF7ADF80020FEF7AAF80020FEF700
:102B0000A7F80020FEF7A4F8F320FEF78FF80020C6
:102B1000FEF79EF8F920FEF789F80620FEF798F8F0
:102B20001020FEF795F82920FEF792F80020FEF716
:102B30008FF83A20FEF77AF85520FEF789F8112031
:102B4000FEF774F8642001F081FB2920FEF76EF88F
:102B50003520FEF76BF80020FEF77AF85120FEF7DB
:102B600065F8FF20FEF774F85320FEF75FF82C207D
:102B7000FEF76EF85520FEF759F88220FEF768F848
:102B80002C20FEF753F8FEF7FBBD55214FF47040A3
:102B9000FEF794F8AA214FF20100FEF78FF85221B8
:102BA0004FF20200FEF78AF808214FF20300FEF709
:102BB00085F801214FF20400FEF780F80D214FF453
:102BC0003040FEF77BF80D214BF20100FEF776F85E
:102BD0000D214BF20200FEF771F834214FF436401C
:102BE000FEF76CF834214BF20160FEF767F83421F0
:102BF0004BF20260FEF762F80D214FF43140FEF710
:102C00005DF80D214BF20110FEF758F80D214BF243
:102C10000210FEF753F834214FF43740FEF74EF818
:102C200034214BF20170FEF749F834214BF2027067
:102C3000FEF744F800214FF43240FEF73FF8002140
:102C40004BF20120FEF73AF800214BF20220FEF78A
:102C500035F824214FF43840FEF730F824214BF6A4
:102C60000100FEF72BF824214BF60200FEF726F8B0
:102C700001214FF43F40FEF721F80F214FF433407C
:102C8000FEF71CF80F214BF20130FEF717F80F2169
:102C90004BF20230FEF712F834214FF43940FEF7C0
:102CA0000DF834214BF60110FEF708F834214BF6ED
:102CB0000210FEF703F808214FF43540FDF7FEFF40
:102CC00008214BF20150FDF7F9FF08214BF20250A9
:102CD000FDF7F4FF03214FF44240FDF7EFFF2421FD
:102CE0004FF43A40FDF7EAFF24214BF60120FDF7AF
:102CF000E5FF24214BF60220FDF7E0FF00214FF411
:102D00003C40FDF7DBFF78214BF60140FDF7D6FF95
:102D100000214BF60240FDF7D1FF00214FF43D406A
:102D2000FDF7CCFF78214BF60150FDF7C7FF0021DE
:102D30004BF60250FDF7C2FF00214FF43E40FDF775
:102D4000BDFF64214BF60160FDF7B8FF00214FF491
:102D50005140FDF7B3FF33214DF20110FDF7AEFFF7
:102D600000214DF20210FDF7A9FF34214DF20310AE
:102D7000FDF7A4FF00214DF20410FDF79FFF3A215B
:102D80004DF20510FDF79AFF00214DF20610FDF7F8
:102D900095FF4A214DF20710FDF790FF00214DF2FB
:102DA0000810FDF78BFF5C214DF20910FDF786FF3F
:102DB00000214DF20A10FDF781FF81214DF20B1029
:102DC000FDF77CFF00214DF20C10FDF777FFA621E7
:102DD0004DF20D10FDF772FF00214DF20E10FDF7C0
:102DE0006DFFE5214DF20F10FDF768FF01214DF257
:102DF0001010FDF763FF13214DF21110FDF75EFF78
:102E000001214DF21210FDF759FF54214DF213101C
:102E1000FDF754FF01214DF21410FDF74FFF822101
:102E20004DF21510FDF74AFF01214DF21610FDF786
:102E300045FFCA214DF21710FDF740FF02214DF268
:102E40001810FDF73BFF00214DF21910FDF736FF7A
:102E500002214DF21A10FDF731FF01214DF21B1036
:102E6000FDF72CFF02214DF21C10FDF727FF342146
:102E70004DF21D10FDF722FF02214DF21E10FDF74D
:102E80001DFF67214DF21F10FDF718FF02214DF2C3
:102E90002010FDF713FF84214DF22110FDF70EFFE6
:102EA00002214DF22210FDF709FFA4214DF223105B
:102EB000FDF704FF02214DF22410FDF7FFFEB721BC
:102EC0004DF22510FDF7FAFE02214DF22610FDF716
:102ED000F5FECF214DF22710FDF7F0FE02214DF255
:102EE0002810FDF7EBFEDE214DF22910FDF7E6FE7E
:102EF00002214DF22A10FDF7E1FEF2214DF22B10D6
:102F0000FDF7DCFE02214DF22C10FDF7D7FEFE216D
:102F10004DF22D10FDF7D2FE03214DF22E10FDF7DC
:102F2000CDFE10214DF22F10FDF7C8FE03214DF20A
:102F30003010FDF7C3FE33214DF23110FDF7BEFE18
:102F400003214DF23210FDF7B9FE6D214DF2331021
:102F5000FDF7B4FE00214FF45240FDF7AFFE3321E0
:102F60004DF20120FDF7AAFE00214DF20220FDF7EF
:102F7000A5FE34214DF20320FDF7A0FE00214DF205
:102F80000420FDF79BFE3A214DF20520FDF796FE49
:102F900000214DF20620FDF791FE4A214DF2072057
:102FA000FDF78CFE00214DF20820FDF787FE5C2125
:102FB0004DF20920FDF782FE00214DF20A20FDF7B7
:102FC0007DFE81214DF20B20FDF778FE00214DF2B0
:102FD0000C20FDF773FEA6214DF20D20FDF76EFECD
:102FE00000214DF20E20FDF769FEE5214DF20F2084
:102FF000FDF764FE01214DF21020FDF75FFE132165
:103000004DF21120FDF75AFE01214DF21220FDF77D
:1030100055FE54214DF21320FDF750FE01214DF2D3
:103020001420FDF74BFE82214DF21520FDF746FEE0
:1030300001214DF21620FDF741FECA214DF2172065
:10304000FDF73CFE02214DF21820FDF737FE00216E
:103050004DF21920FDF732FE02214DF21A20FDF744
:103060002DFE01214DF21B20FDF728FE02214DF21D
:103070001C20FDF723FE34214DF21D20FDF71EFE1E
:1030800002214DF21E20FDF719FE67214DF21F208F
:10309000FDF714FE02214DF22020FDF70FFE8421E2
:1030A0004DF22120FDF70AFE02214DF22220FDF70C
:1030B00005FEA4214DF22320FDF700FE02214DF272
:1030C0002420FDF7FBFDB7214DF22520FDF7F6FD8D
:1030D00002214DF22620FDF7F1FDCF214DF22720F0
:1030E000FDF7ECFD02214DF22820FDF7E7FDDE2182
:1030F0004DF22920FDF7E2FD02214DF22A20FDF7D5
:10310000DDFDF2214DF22B20FDF7D8FD02214DF21D
:103110002C20FDF7D3FDFE214DF22D20FDF7CEFD35
:1031200003214DF22E20FDF7C9FD10214DF22F2075
:10313000FDF7C4FD03214DF23020FDF7BFFD332123
:103140004DF23120FDF7BAFD03214DF23220FDF79B
:10315000B5FD6D214DF23320FDF7B0FD00214FF498
:103160005340FDF7ABFD33214DF20130FDF7A6FDD5
:1031700000214DF20230FDF7A1FD34214DF2033064
:10318000FDF79CFD00214DF20430FDF797FD3A213B
:103190004DF20530FDF792FD00214DF20630FDF7AE
:1031A0008DFD4A214DF20730FDF788FD00214DF2DB
:1031B0000830FDF783FD5C214DF20930FDF77EFDFF
:1031C00000214DF20A30FDF779FD81214DF20B30DF
:1031D000FDF774FD00214DF20C30FDF76FFDA621C7
:1031E0004DF20D30FDF76AFD00214DF20E30FDF776
:1031F00065FDE5214DF20F30FDF760FD01214DF237
:103200001030FDF75BFD13214DF21130FDF756FD37
:1032100001214DF21230FDF751FD54214DF21330D2
:10322000FDF74CFD01214DF21430FDF747FD8221E1
:103230004DF21530FDF742FD01214DF21630FDF73C
:103240003DFDCA214DF21730FDF738FD02214DF248
:103250001830FDF733FD00214DF21930FDF72EFD3A
:1032600002214DF21A30FDF729FD01214DF21B30EC
:10327000FDF724FD02214DF21C30FDF71FFD342126
:103280004DF21D30FDF71AFD02214DF21E30FDF703
:1032900015FD67214DF21F30FDF710FD02214DF2A3
:1032A0002030FDF70BFD84214DF22130FDF706FDA6
:1032B00002214DF22230FDF701FDA4214DF2233011
:1032C000FDF7FCFC02214DF22430FDF7F7FCB7219D
:1032D0004DF22530FDF7F2FC02214DF22630FDF7CC
:1032E000EDFCCF214DF22730FDF7E8FC02214DF235
:1032F0002830FDF7E3FCDE214DF22930FDF7DEFC3E
:1033000002214DF22A30FDF7D9FCF2214DF22B308B
:10331000FDF7D4FC02214DF22C30FDF7CFFCFE214D
:103320004DF22D30FDF7CAFC03214DF22E30FDF792
:10333000C5FC10214DF22F30FDF7C0FC03214DF2EA
:103340003030FDF7BBFC33214DF23130FDF7B6FCD8
:1033500003214DF23230FDF7B1FC6D214DF23330D7
:10336000FDF7ACFC00214FF45440FDF7A7FC3321DE
:103370004DF20140FDF7A2FC00214DF20240FDF7A5
:103380009DFC34214DF20340FDF798FC00214DF2E5
:103390000440FDF793FC3A214DF20540FDF78EFC09
:1033A00000214DF20640FDF789FC4A214DF207400D
:1033B000FDF784FC00214DF20840FDF77FFC5C2105
:1033C0004DF20940FDF77AFC00214DF20A40FDF76D
:1033D00075FC81214DF20B40FDF770FC00214DF290
:1033E0000C40FDF76BFCA6214DF20D40FDF766FC8D
:1033F00000214DF20E40FDF761FCE5214DF20F403A
:10340000FDF75CFC01214DF21040FDF757FC132144
:103410004DF21140FDF752FC01214DF21240FDF733
:103420004DFC54214DF21340FDF748FC01214DF2B3
:103430001440FDF743FC82214DF21540FDF73EFCA0
:1034400001214DF21640FDF739FCCA214DF217401B
:10345000FDF734FC02214DF21840FDF72FFC00214E
:103460004DF21940FDF72AFC02214DF21A40FDF7FA
:1034700025FC01214DF21B40FDF720FC02214DF2FD
:103480001C40FDF71BFC34214DF21D40FDF716FCDE
:1034900002214DF21E40FDF711FC67214DF21F4045
:1034A000FDF70CFC02214DF22040FDF707FC8421C2
:1034B0004DF22140FDF702FC02214DF22240FDF7C2
:1034C000FDFBA4214DF22340FDF7F8FB02214DF254
:1034D0002440FDF7F3FBB7214DF22540FDF7EEFB4D
:1034E00002214DF22640FDF7E9FBCF214DF22740A6
:1034F000FDF7E4FB02214DF22840FDF7DFFBDE2162
:103500004DF22940FDF7DAFB02214DF22A40FDF78A
:10351000D5FBF2214DF22B40FDF7D0FB02214DF2FD
:103520002C40FDF7CBFBFE214DF22D40FDF7C6FBF5
:1035300003214DF22E40FDF7C1FB10214DF22F402B
:10354000FDF7BCFB03214DF23040FDF7B7FB332103
:103550004DF23140FDF7B2FB03214DF23240FDF751
:10356000ADFB6D214DF23340FDF7A8FB00214FF478
:103570005540FDF7A3FB33214DF20150FDF79EFBB3
:1035800000214DF20250FDF799FB34214DF203501A
:10359000FDF794FB00214DF20450FDF78FFB3A211B
:1035A0004DF20550FDF78AFB00214DF20650FDF764
:1035B00085FB4A214DF20750FDF780FB00214DF2BB
:1035C0000850FDF77BFB5C214DF20950FDF776FBBF
:1035D00000214DF20A50FDF771FB81214DF20B5095
:1035E000FDF76CFB00214DF20C50FDF767FBA621A7
:1035F0004DF20D50FDF762FB00214DF20E50FDF72C
:103600005DFBE5214DF20F50FDF758FB01214DF216
:103610001050FDF753FB13214DF21150FDF74EFBF7
:1036200001214DF21250FDF749FB54214DF2135088
:10363000FDF744FB01214DF21450FDF73FFB8221C1
:103640004DF21550FDF73AFB01214DF21650FDF7F2
:1036500035FBCA214DF21750FDF730FB02214DF228
:103660001850FDF72BFB00214DF21950FDF726FBFA
:1036700002214DF21A50FDF721FB01214DF21B50A2
:10368000FDF71CFB02214DF21C50FDF717FB342106
:103690004DF21D50FDF712FB02214DF21E50FDF7B9
:1036A0000DFB67214DF21F50FDF708FB02214DF283
:1036B0002050FDF703FB84214DF22150FDF7FEFA67
:1036C00002214DF22250FDF7F9FAA4214DF22350C8
:1036D000FDF7F4FA02214DF22450FDF7EFFAB7217D
:1036E0004DF22550FDF7EAFA02214DF22650FDF782
:1036F000E5FACF214DF22750FDF7E0FA02214DF215
:103700002850FDF7DBFADE214DF22950FDF7D6FAFD
:1037100002214DF22A50FDF7D1FAF2214DF22B5041
:10372000FDF7CCFA02214DF22C50FDF7C7FAFE212D
:103730004DF22D50FDF7C2FA03214DF22E50FDF748
:10374000BDFA10214DF22F50FDF7B8FA03214DF2CA
:103750003050FDF7B3FA33214DF23150FDF7AEFA98
:1037600003214DF23250FDF7A9FA6D214DF233508D
:10377000FDF7A4FA00214FF45640FDF79FFA3321DC
:103780004DF20160FDF79AFA00214DF20260FDF75B
:1037900095FA34214DF20360FDF790FA00214DF2C5
:1037A0000460FDF78BFA3A214DF20560FDF786FAC9
:1037B00000214DF20660FDF781FA4A214DF20760C3
:1037C000FDF77CFA00214DF20860FDF777FA5C21E5
:1037D0004DF20960FDF772FA00214DF20A60FDF723
:1037E0006DFA81214DF20B60FDF768FA00214DF270
:1037F0000C60FDF763FAA6214DF20D60FDF75EFA4D
:1038000000214DF20E60FDF759FAE5214DF20F60EF
:10381000FDF754FA01214DF21060FDF74FFA132124
:103820004DF21160FDF74AFA01214DF21260FDF7E9
:1038300045FA54214DF21360FDF740FA01214DF293
:103840001460FDF73BFA82214DF21560FDF736FA60
:1038500001214DF21660FDF731FACA214DF21760D1
:10386000FDF72CFA02214DF21860FDF727FA00212E
:103870004DF21960FDF722FA02214DF21A60FDF7B0
:103880001DFA01214DF21B60FDF718FA02214DF2DD
:103890001C60FDF713FA34214DF21D60FDF70EFA9E
:1038A00002214DF21E60FDF709FA67214DF21F60FB
:1038B000FDF704FA02214DF22060FDF7FFF98421A3
:1038C0004DF22160FDF7FAF902214DF22260FDF779
:1038D000F5F9A4214DF22360FDF7F0F902214DF234
:1038E0002460FDF7EBF9B7214DF22560FDF7E6F90D
:1038F00002214DF22660FDF7E1F9CF214DF227605C
:10390000FDF7DCF902214DF22860FDF7D7F9DE2141
:103910004DF22960FDF7D2F902214DF22A60FDF740
:10392000CDF9F2214DF22B60FDF7C8F902214DF2DD
:103930002C60FDF7C3F9FE214DF22D60FDF7BEF9B5
:1039400003214DF22E60FDF7B9F910214DF22F60E1
:10395000FDF7B4F903214DF23060FDF7AFF93321E3
:103960004DF23160FDF7AAF903214DF23260FDF707
:10397000A5F96D214DF23360FDF7A0F955214FF403
:103980007040FDF79BF9AA214FF20100FDF796F96F
:1039900052214FF20200FDF791F908214FF2030086
:1039A000FDF78CF900214FF20400FDF787F9CC21D7
:1039B0004FF43140FDF782F900214BF20110FDF781
:1039C0007DF905214FF43640FDF778F970214FF469
:1039D0003740FDF773F970214BF20170FDF76EF976
:1039E00001214FF43840FDF769F903214BF601003E
:1039F000FDF764F903214BF60200FDF75FF903219F
:103A00004BF60300FDF75AF902214FF43C40FDF755
:103A100055F900214BF60140FDF750F900214BF616
:103A20000240FDF74BF9D0214FF44940FDF746F92C
:103A300002214CF60110FDF741F950214CF602101D
:103A4000FDF73CF950214CF60310FDF737F95021F2
:103A50004CF60410FDF732F900214FF45450FDF7F5
:103A60002DF955214FF46850FDF728F94FF488508F
:103A7000FDF7DCF8012000F0E9FB4FF42450FDF7DE
:103A8000D5F8FDF77DBEE220FDF7D0F8AD4C4FF440
:103A90008078C4F810804FF400756561AA4F1D232B
:103AA000FB608026666126612561C4F8108065612F
:103AB0000223FB60666126612561C4F810806561A0
:103AC0000422FA60666126612561012000F0BEFBD8
:103AD000E020FDF7ABF8C4F8108065614FF0010AF3
:103AE000C7F80CA06661266125610A2000F0AEFBD4
:103AF000E020FDF79BF8C4F8108065614FF0030BE0
:103B0000C7F80CB06661266125610C2000F09EFBB1
:103B10005046FDF78BF80A2000F098FBE620FDF7F1
:103B200085F8C4F8108065612F23FB60666126610B
:103B30002561C4F810806561FF23FB606661266122
:103B40002561C4F810806561FB60666126612561AE
:103B5000B020FDF76BF8C4F8108065612023FB608E
:103B6000666126612561C4F8108065614FF0000927
:103B7000C7F80C90666126612561C4F81080656104
:103B8000C7F80CB0666126612561C4F810806561D4
:103B900040F21F33FB60666126612561C4F8108026
:103BA0006561C7F80CA0666126612561C4F81080C4
:103BB000656140F2DF13FB60666126612561C4F830
:103BC00010806561C7F80C90666126612561B4209C
:103BD000FDF72CF8C4F8108065610422FA60666174
:103BE00026612561C4F81080656140F21F43FB60C7
:103BF000666126612561C4F810806561C7F80C9084
:103C0000666126612561C4F8108065612E23FB6022
:103C1000666126612561C4F810806561C7F80C9063
:103C2000666126612561C4F810806561C7F80C9053
:103C3000666126612561C4F810806561C7F80C9043
:103C4000666126612561C4F810806561C7F80C9033
:103C5000666126612561B620FCF7E8FFC4F8108094
:103C600065610223FB60666126612561C4F81080EE
:103C700065614FF40373FB60666126612561C4F8DA
:103C800010806561C7F80C90666126612561C4F8F3
:103C9000108065611723FB60666126612561C4F8A9
:103CA000108065611523FB60666126612561C4F89B
:103CB00010806561C7F80C90666126612561C4F8C3
:103CC00010806561C7F80C90666126612561F0205F
:103CD000FCF7ACFFC4F810806561C7F80CB06661F2
:103CE000266125612920FCF7A1FFD020FCF79EFF6B
:103CF000C4F810806561C7F80C9066612661256183
:103D0000BE20FCF793FFC4F8108065610523FB60BB
:103D1000666126612561C4F810806561FE23FB6041
:103D2000666126612561C4F810806561C7F80CA042
:103D3000666126612561C4F810806561C7F80C9042
:103D400004E000BF00100140000C014066612661E4
:103D50002561C4F810806561C7F80C906661266122
:103D60002561C4F810806561C7F80C906661266112
:103D70002561B820FCF75AFFC4F810806561C7F8C8
:103D80000CB0666126612561C4F810806561C7F8D2
:103D90000CA0666126612561BA20FCF747FFC4F8D4
:103DA00010806561C7F80CA06661266125616420FA
:103DB000FDF776FBFDF7E4BC2DE9F04F83B08046BC
:103DC000A2EB000A8946A3EB010BBAF1000F0DDD4F
:103DD00001220092BBF1000F14DD01230193DA45AB
:103DE0001CDD564600252F462C461BE0BAF1000F7D
:103DF00005D0A0EB020A4FF0FF320092EAE7CDF8BF
:103E000000A0E7E7BBF1000F05D0A1EB030B4FF0DB
:103E1000FF330193E3E7CDF804B0E0E75E46E1E766
:103E20000134A4B2731C9C4212DC1FFA89F11FFA00
:103E300088F0FDF7E9F957445D44BE4202DABF1B42
:103E4000009B9844AE42EBDAAD1B019B9944E7E737
:103E500003B0BDE8F08F00002DE9F04F83B082463B
:103E600088461F469DF830B013F0070318BF0123A2
:103E700003EBD703790801FB03F3DBB20093203A8D
:103E8000D3B2019344464FF000093FE0019B03EB9E
:103E90004303294A02EB830313F8095047E0274BF9
:103EA000019A03EB021313F8095040E0244B1A88DF
:103EB00021465046FDF7C4F96D00EDB20134A4B2BD
:103EC000204B5B88A34234D9A4EB0803BB4210D03B
:103ED0000136F6B2072E15D815F0800FE6D1BBF1EA
:103EE000000FE9D1184B1A8821465046FDF7A8F972
:103EF000E2E70AF1010A1FFA8AFA124B1B885345BE
:103F000017D9444609F101095FFA89F9009B9945DF
:103F10000FD20C2FBAD0102FC1D0182F09D1019B6E
:103F200003EBC303094A02EB830313F8095000268D
:103F3000D0E703B0BDE8F08F686F0008DC730008BD
:103F4000740400207804002008000020CC790008C8
:103F50000246012002E002FB00F019464B1EDBB2D4
:103F60000029F8D1704700002DE9F04782B0824661
:103F7000894690461D469DF8286000273C4619E07A
:103F8000700800FB04A0002300933346202249461A
:103F900080B2FFF761FF0BE07008303200FB04A035
:103FA000002300933346D2B2494680B2FFF754FF54
:103FB0000134E4B2AC421CD2291BC9B20139C9B2E6
:103FC0000A20FFF7C5FFB8FBF0F00B4AA2FB003C4C
:103FD0004FEADC0C0CEB8C0CA0EB4C0C5FFA8CF277
:103FE000002FD9D16B1E9C42D6DA002AC8D00127F7
:103FF000D2E702B0BDE8F087CDCCCCCC2DE9F047BC
:1040000082B082460D469DF828700B9E02441FFA2E
:1040100082F90B441FFA83F804460CE0454517D299
:10402000002300933B4629462046FFF715FF04EB8B
:104030005704A4B201363278A2F12003DBB25E2B22
:1040400006D84C45EAD35FFA8AF43D44ADB2E5E7C1
:1040500002B0BDE8F087000008B50268034B9A4241
:1040600000D008BD00F0E0F8FBE700BF0010004002
:1040700072B6FEE700B591B02822002106A802F032
:1040800035FE0023019302930393049305930122C9
:1040900006924FF4803307930A9202220D920E93F8
:1040A0004FF4E0130F9306A800F080FA80B90F23B5
:1040B000019302210291002303934FF48062049242
:1040C000059301A800F0B2FC20B911B05DF804FB23
:1040D000FFF7CEFFFFF7CCFF00B583B000F092F8FA
:1040E000FDF7E0FAFFF7C6FFFCF736FD084B01933A
:1040F000102300931823C82214210846FFF77EFFDF
:1041000000F0F8FEFCF700FD00F016FFFEE700BF30
:104110002887000800B583B0114B9A6942F001026C
:104120009A619A6902F001020092009ADA6942F0FB
:104130008052DA61DB6903F080530193019B002216
:104140000F216FF0010000F0A7F8064A536823F032
:10415000E06343F00073536003B05DF804FB00BFFD
:10416000001002400000014000B589B00146002265
:10417000362000F091F8362000F0C6F8154BDA69C9
:1041800042F01002DA61DB6903F010030193019B36
:1041900002A903A800F016FD00F004FD43000E483C
:1041A000A0FB03239B0C013B0C480D4A026040F22C
:1041B000E732C260436000230361836000F06CFE5D
:1041C00018B1012009B05DF804FB044800F01AFDA5
:1041D000F8E700BF0010024083DE1B438804002084
:1041E00000100040FEE7FEE7FEE7FEE7FEE770474F
:1041F00008B5024800F046FD08BD00BF8804002055
:104200007047000008B5074A136843F010031360B5
:10421000032000F02FF80F20FFF7A6FFFFF77AFF2B
:10422000002008BD00200240034A1168034B1B78A0
:104230000B441360704700BFD00400201000002022
:10424000014B1868704700BFD004002038B5044601
:10425000FFF7F6FF0546B4F1FF3F02D0044B1B7891
:104260001C44FFF7EDFF401BA042FAD338BD00BF4E
:1042700010000020074AD36823F4E0631B041B0CE2
:10428000000200F4E060034343F0BF6343F40033F3
:10429000D360704700ED00E000B5194BDB68C3F355
:1042A0000223C3F1070CBCF1040F28BF4FF0040C2C
:1042B00003F1040EBEF1060F18D9033B4FF0FF3E89
:1042C0000EFA0CFC21EA0C0199400EFA03F322EAE3
:1042D0000303194300280BDB0901C9B200F1604058
:1042E00000F5614080F800135DF804FB0023E5E76A
:1042F00000F00F000901C9B2024B1954F4E700BFE6
:1043000000ED00E014ED00E0002807DB00F01F02E4
:10431000400901239340024A42F82030704700BF11
:1043200000E100E070B582B00024A446B0E0874D03
:10433000AA4210D007D9864DAA420CD005F5803587
:10434000AA4208D013E0A5F58015AA4203D005F5CE
:104350007025AA4207D18A68002A62D0012A5BD060
:104360004361082403E0A5F58015AA42F3D0BEF10D
:10437000FF0F58D80646BEF1FF0F56D84FEA8C0201
:1043800033680F25954023EA050304FA02F213432C
:1043900033604B6813F0805F78D06E4B9A6942F0BF
:1043A00001029A619B6903F001030193019B4FEAAB
:1043B0009C02951C684B53F825600CF003039D008C
:1043C0000F23AB4026EA0306644B984233D003F533
:1043D0008063984200F0988003F58063984200F073
:1043E000958003F58063984200F0928003F5806326
:1043F000984200F08F8003F58063984219D006231D
:104400001AE0CC68B3E7CC680434B0E7CC68083471
:10441000ADE7CC680C34AAE703610824A7E70024C1
:10442000A5E70424A3E7061DA5E7ACF10802920066
:10443000A6E7052300E00023AB4033430232464D9C
:1044400045F822304B6813F4803F65D0444A136826
:1044500043EA0E0313604B6813F4003F62D0404AF6
:10446000536843EA0E0353604B6813F4801F5FD018
:104470003B4A936843EA0E0393604B6813F4001FB2
:104480005CD0374AD36843EA0E03D3600CF1010CC9
:104490000A6832FA0CF357D0012303FA0CF302EA4C
:1044A000030E33EA0202F1D14A68122A3FF63FAF07
:1044B000122A3FF65CAF01A555F822F057430008D9
:1044C000034400080D4400081F4400086F4300081F
:1044D0006F4300086F4300086F4300086F430008F4
:1044E0006F4300086F4300086F4300086F430008E4
:1044F0006F4300086F4300086F4300086F430008D4
:104500000744000813440008012395E7022393E7BA
:10451000032391E704238FE7114A136823EA0E036C
:10452000136098E70E4A536823EA0E0353609BE733
:104530000B4A936823EA0E0393609EE7084AD36808
:1045400023EA0E03D360A1E702B070BD0000221081
:10455000000031100010024000000140000801403E
:10456000000401408368194201D0012070470020F7
:1045700070470AB10161704709040161704700008A
:1045800082B0084B1B68084AA2FB03235B0A00FBAE
:1045900003F3019300BF019B5A1E0192002BF9D136
:1045A00002B070470C000020D34D6210002800F0CC
:1045B000F18170B582B00446036813F0010F2CD06E
:1045C000994B5B6803F00C03042B1DD0964B5B6882
:1045D00003F00C03082B12D06368B3F5803F41D081
:1045E000002B55D103F1804303F504331A6822F4FC
:1045F00080321A601A6822F480221A6037E08A4BEF
:104600005B6813F4803FE7D0874B1B6813F4003FCF
:1046100003D06368002B00F0BF81236813F0020F02
:1046200075D0814B5B6813F00C0F5FD07E4B5B68DD
:1046300003F00C03082B54D02369002B00F08A8070
:104640007A4B01221A60FFF7FBFD0546764B1B688B
:1046500013F0020F75D1FFF7F3FD401B0228F5D9C7
:1046600003209EE1704A136843F48033136063684B
:1046700043B3FFF7E5FD05466B4B1B6813F4003FA2
:10468000CBD1FFF7DDFD401B6428F5D9032088E17D
:10469000B3F5A02F09D0644B1A6822F480321A6057
:1046A0001A6822F480221A60E1E703F18043A3F53F
:1046B0003C331A6842F480221A601A6842F480324D
:1046C0001A60D4E7FFF7BCFD0546574B1B6813F48F
:1046D000003FA2D0FFF7B4FD401B6428F5D90320AA
:1046E0005FE1514B5B6813F4803FA5D14E4B1B68D3
:1046F00013F0020F03D02369012B40F04F814A4A87
:10470000136823F0F803616943EAC1031360236867
:1047100013F0080F33D0A369002B5CD0434B012268
:10472000C3F88024FFF78CFD05463F4B5B6A13F00E
:10473000020F21D1FFF784FD401B0228F5D9032089
:104740002FE1394A136823F0F803616943EAC10392
:104750001360DCE7354B00221A60FFF771FD054658
:10476000314B1B6813F0020FD1D0FFF769FD401BDE
:104770000228F5D9032014E10120FFF701FF236887
:1047800013F0040F00F09680274BDB6913F0805F75
:1047900034D1254BDA6942F08052DA61DB6903F0EB
:1047A00080530193019B0125214B1B6813F4807FEB
:1047B00026D0E368012B3DD0002B53D103F1804379
:1047C00003F504331A6A22F001021A621A6A22F00F
:1047D00004021A6233E0154B0022C3F88024FFF76D
:1047E0002FFD0546104B5B6A13F0020FC7D0FFF791
:1047F00027FD401B0228F5D90320D2E00025D3E78E
:104800000B4A136843F480731360FFF719FD0646E3
:10481000074B1B6813F4807FCBD1FFF711FD801B82
:104820006428F5D90320BCE0001002400000424299
:10483000007000405F4A136A43F001031362E368AB
:1048400033B3FFF7FDFC06465A4B1B6A13F0020F09
:104850002FD1FFF7F5FC801B41F288339842F3D942
:1048600003209EE0052B09D0524B1A6A22F0010268
:104870001A621A6A22F004021A62E0E74D4B1A6AC1
:1048800042F004021A621A6A42F001021A62D6E782
:10489000FFF7D6FC0646474B1B6A13F0020F08D001
:1048A000FFF7CEFC801B41F288339842F3D90320F6
:1048B00077E0E5B9E369002B72D03E4A526802F016
:1048C0000C02082A56D0022B17D03B4B00221A6646
:1048D000FFF7B6FC0446374B1B6813F0007F47D048
:1048E000FFF7AEFC001B0228F5D9032059E0314A3E
:1048F000D36923F08053D361DCE72F4B00221A6683
:10490000FFF79EFC05462B4B1B6813F0007F06D07B
:10491000FFF796FC401B0228F5D9032041E0236AEB
:10492000B3F5803F1AD023494B6823F47413226AED
:10493000606A024313434B601F4B01221A66FFF764
:104940007FFC04461B4B1B6813F0007F0ED1FFF762
:1049500077FC001B0228F5D9032022E0154A536892
:1049600023F40033A1680B435360DCE7002018E018
:10497000002016E0012B16D00E4B5B6803F480314B
:10498000226A914211D103F47013626A93420ED1EC
:10499000002006E001207047012002E0012000E035
:1049A000002002B070BD0120FBE70120F9E70120E3
:1049B000F7E700BF001002400000424286B0174BEC
:1049C0000FCB0DF1180C0CE90F0040F20123ADF8EC
:1049D0000430134B5B6803F00C02082A02D0114824
:1049E00006B07047C3F3834218326A4412F8100CC1
:1049F00013F4803F0DD00A4B5B68C3F34043183378
:104A00006B4413F8143C074A02FB00F0B0FBF3F0D0
:104A1000E6E7054B03FB00F0E2E700BF588700081C
:104A20000010024000127A0000093D00002800F04A
:104A3000A08070B50D460446524B1B6803F0070377
:104A40008B420BD24F4A136823F007030B431360CA
:104A5000136803F007038B4240F08D80236813F046
:104A6000020F17D013F0040F04D0474A536843F4E1
:104A7000E0635360236813F0080F04D0424A536880
:104A800043F460535360404A536823F0F003A16835
:104A90000B435360236813F0010F31D06368012B7F
:104AA00020D0022B25D0384A126812F0020F64D0B1
:104AB00035494A6822F0030213434B60FFF7C0FBFD
:104AC0000646314B5B6803F00C036268B3EB820F60
:104AD00016D0FFF7B5FB801B41F288339842F0D91E
:104AE000032045E0284A126812F4003FE0D101207B
:104AF0003EE0254A126812F0007FD9D1012037E04C
:104B0000204B1B6803F00703AB420AD91D4A136808
:104B100023F007032B431360136803F00703AB4232
:104B20002DD1236813F0040F06D0174A536823F4DD
:104B3000E063E1680B435360236813F0080F07D06C
:104B4000114A536823F46053216943EAC103536057
:104B5000FFF734FF0C4B5B68C3F303130B4AD35CC2
:104B6000D8400B4B18600B4B1868FFF7FDFA00207C
:104B700070BD012070470120FAE70120F8E701200D
:104B8000F6E700BF00200240001002404087000806
:104B90000C00002014000020014B1868704700BF73
:104BA0000C00002008B5FFF7F7FF044B5B68C3F368
:104BB0000223034AD35CD84008BD00BF0010024066
:104BC000508700080F2303600B4B5A6802F0030262
:104BD00042605A6802F0F00282605A6802F4E062B1
:104BE000C2605B68DB0803F4E0630361034B1B688E
:104BF00003F007030B6070470010024000200240E2
:104C00007047000090F83D30DBB2012B2FD102231A
:104C100080F83D300268D36843F00103D360036835
:104C2000154A934218D002F50062934214D0B3F1B2
:104C3000804F11D0A2F5983293420DD002F58062D8
:104C4000934209D002F58062934205D01A6842F07F
:104C500001021A60002070479A6802F00702062AD3
:104C600007D01A6842F001021A6000207047012044
:104C700070470020704700BF002C0140704770470C
:104C80007047704710B5044603681A6912F0020FA6
:104C900011D0DA6812F0020F0DD06FF002021A6123
:104CA0000123037703689B6913F0030F70D0FFF7AC
:104CB000E6FF0023237723681A6912F0040F12D04D
:104CC000DA6812F0040F0ED06FF004021A610223AA
:104CD000237723689B6913F4407F5FD02046FFF75A
:104CE000CEFF0023237723681A6912F0080F12D031
:104CF000DA6812F0080F0ED06FF008021A61042370
:104D000023772368DB6913F0030F4ED02046FFF7AB
:104D1000B6FF0023237723681A6912F0100F12D010
:104D2000DA6812F0100F0ED06FF010021A6108232B
:104D300023772368DB6913F4407F3DD02046FFF7DB
:104D40009EFF0023237723681A6912F0010F03D016
:104D5000DA6812F0010F36D123681A6912F0800F59
:104D600003D0DA6812F0800F34D123681A6912F088
:104D7000400F03D0DA6812F0400F32D123681A696D
:104D800012F0200F03D0DA6812F0200F30D110BDDE
:104D9000FFF774FF2046FFF773FF8AE72046FFF70F
:104DA0006DFF2046FFF76CFF9BE72046FFF766FF8D
:104DB0002046FFF765FFACE72046FFF75FFF204680
:104DC000FFF75EFFBDE76FF001021A612046FFF7B3
:104DD00043F9C1E76FF080021A61204600F089F8BC
:104DE000C3E76FF040021A612046FFF74AFFC5E7AC
:104DF0006FF020021A61204600F07AF8C7E7000041
:104E00000368244A904212D002F5006290420ED00C
:104E1000B0F1804F0BD0A2F59832904207D002F546
:104E20008062904203D002F58062904203D123F069
:104E300070034A681343174A904212D002F5006289
:104E400090420ED0B0F1804F0BD0A2F59832904234
:104E500007D002F58062904203D002F58062904252
:104E600003D123F44073CA68134323F080034A69D3
:104E7000134303608B68C3620B688362054B9842DF
:104E800003D003F50063984201D10B69036301234A
:104E900043617047002C014040B310B5044690F8C0
:104EA0003D30F3B1022384F83D30214651F8040B24
:104EB000FFF7A6FF012384F8463084F83E3084F8DB
:104EC0003F3084F8403084F8413084F8423084F830
:104ED000433084F8443084F8453084F83D30002075
:104EE00010BD80F83C30FFF78BFEDBE701207047F8
:104EF00070477047EFF3058393B9EFF3108393B9CD
:104F00000C4B1868022804D080B90A4B01221A60A1
:104F10007047EFF31183002BF6D06FF00500704758
:104F20006FF0050070476FF0050070474FF0FF30DD
:104F3000704700BF3007002008B5EFF30583B3B911
:104F4000EFF31083B3B90E4B1B68022B08D0012B73
:104F500013D10B4B02221A6001F06CF9002008BD3E
:104F6000EFF31182002AF2D06FF00500F7E76FF03F
:104F70000500F4E76FF00500F1E74FF0FF30EEE7D2
:104F800030070020F0B587B000240494EFF30584C7
:104F9000002C43D1EFF31083002B3FD1334B1B6820
:104FA000022B16D0002839D000238DF8173062B3B9
:104FB000156895B1936903B918235C1E372C51D835
:104FC000546814F0010F4FD156694EB14FEA960C58
:104FD00008E0EFF311830BBBE4E70DF11705E9E7F8
:104FE0004FF0800C94682CB1D7685B2F02D91769F9
:104FF00007B1B6B914B14FF0FF340CE0D46894B9DE
:1050000014699CB14FF0FF3405E0002418234FF0E1
:10501000800C0DF11705012C0AD0ACB1049807B033
:10502000F0BD0124F7E74FF0FF34F4E70024F2E786
:10503000146992680292019400930B4662462946D5
:1050400001F08AF80490E9E704AA019200930B4664
:105050001FFA8CF2294601F0B9F80128DED00023AE
:105060000493DBE70020DAE70020D8E730070020D0
:1050700030B583B0EFF30583002B49D11546EFF32C
:105080001083002B48D1284B1B68022B21D000280D
:1050900044D0002944D0A5B3AB6853B1EA684F2A85
:1050A00007D92A692AB101FB00F4D5F814C0A44538
:1050B00021D2A3B14FF0FF33A3BB002200F050FC7C
:1050C000044634B305B12D682946204600F070FE31
:1050D0001FE0EFF31183002BD9D0002419E0EB6817
:1050E0008BB92B6913B14FF0FF33E5E76B696BB1F7
:1050F0004FF0FF33E0E70024009400F0E8FB0446A3
:10510000DFE70023D8E74FF0FF33D5E70023D3E7ED
:105110000024204603B030BD0024FAE70024F8E75D
:105120000024F6E70024F4E730070020034B036077
:10513000034B0B6080231360704700BFD406002030
:10514000D4040020034B0360034B0B604FF48073C7
:1051500013607047340B00203407002000F108036F
:1051600043604FF0FF328260C3600361002303603D
:10517000704700230361704743684B609A688A60F8
:10518000516099600861036801330360704730B46F
:105190000D68B5F1FF3F11D000F108031C465B68B4
:1051A0001A68AA42FAD963684B6099608C606160A2
:1051B000086103680133036030BC70470469F2E79B
:1051C0000369416882688A60416851605A68824216
:1051D00006D0002202611A68013A1A601868704706
:1051E00082685A60F5E7000082B0002301930D4BFE
:1051F0001B68B3F1FF3F08D04FF0500383F31188D1
:10520000BFF36F8FBFF34F8FFEE74FF0500383F371
:105210001188BFF36F8FBFF34F8F019B002BFCD022
:1052200002B070471800002006480068006880F34C
:10523000088862B661B6BFF34F8FBFF36F8F00DF90
:1052400000BF000008ED00E04FF0807340F8043C20
:1052500021F0010140F8081C034B40F80C3C40F8D9
:10526000202C4038704700BFE951000800000000C2
:10527000074B19680868B0E8F00F80F30988BFF39E
:105280006F8F4FF0000080F311884EF00D0E7047C5
:10529000F01700204FF0500383F31188BFF36F8F96
:1052A000BFF34F8F0B4A136801331360012B00D0FB
:1052B00070474FF0E023D3F8043D13F0FF0FF7D011
:1052C0004FF0500383F31188BFF36F8FBFF34F8FFD
:1052D000FEE700BF18000020094B1B6843B94FF0E0
:1052E000500383F31188BFF36F8FBFF34F8FFEE737
:1052F000013B034A13600BB983F31188704700BF69
:105300001800002000000000000000000000000065
:10531000EFF30980BFF36F8F0D4B1A6820E9F00F90
:1053200010602DE908404FF0500080F3118801F023
:105330000BF94FF0000080F31188BDE808401968B0
:105340000868B0E8F00F80F30988BFF36F8F7047EB
:10535000F017002008B54FF0500383F31188BFF316
:105360006F8FBFF34F8F00F0C1FF28B14FF0E023E4
:105370004FF08052C3F8042D002383F3118808BD39
:105380004FF0E022002313619361054B1B68054930
:10539000A1FB03139B09013B536107231361704772
:1053A0000C000020D34D621010B582B02A4B1A7841
:1053B000D2B20192FF221A701B78DBB28DF8033053
:1053C0009DF8033003F05003244A1370244B072246
:1053D0001A6009E0224A1368013B13609DF803300C
:1053E0005B00DBB28DF803309DF8033013F0800FC3
:1053F000F0D11B4B1B68032B08D04FF0500383F3F5
:105400001188BFF36F8FBFF34F8FFEE71B02144A63
:10541000136003F4E0631360019BDBB20E4A137068
:105420004FF0E023D3F8202D42F47002C3F8202D72
:10543000D3F8202D42F07042C3F8202DFFF7A0FFD3
:105440000024084B1C60FFF7EFFE01F07DF8FFF72A
:10545000CBFE204602B010BD00E400E0900B00201F
:10546000940B002018000020EFF305830F2B0FD9B9
:10547000114A9B5CDBB2114A12789A4208D94FF06C
:10548000500383F31188BFF36F8FBFF34F8FFEE795
:105490004FF0E023D3F80C3D03F4E063084A1268B0
:1054A000934208D94FF0500383F31188BFF36F8FF5
:1054B000BFF34F8FFEE77047F0E300E0900B002052
:1054C000940B0020124A12F0070F1ED0D11D21F0BC
:1054D0000701C1F5406313440A460E4802600021EB
:1054E00041601344083B23F007030B4803605960F5
:1054F0001960991A51601360084B1960084B1960C4
:10550000084B4FF000421A6070474FF44063E4E7E5
:105510009C0B0020A8170020980B0020A417002047
:10552000A01700209C170020154B1A461B688342C9
:10553000FBD3516802EB010C844509D0416800EBB4
:10554000010C634509D00360904218D01060704789
:105550004068014451601046F0E710B4094C2468DB
:10556000A3420AD05B681944416013681B6803605A
:10557000904200D0106010BC70470460F8E770479C
:10558000A8170020980B002070B5054600F0A0FE7B
:10559000344B1B68A3B1344B1B681D424AD135B153
:1055A000083515F0070F02D025F007050835002D46
:1055B00042D02E4B1B68AB424DD32D4A146804E0F9
:1055C000FFF780FFE7E722461C466368AB4202D242
:1055D0002368002BF7D1234B1B68A3423DD01668EC
:1055E00008362368136063685B1B102B10D96019A1
:1055F00010F0070F08D04FF0500383F31188BFF36A
:105600006F8FBFF34F8FFEE743606560FFF78CFF3E
:10561000626816490B689B1A0B60164909688B4231
:1056200001D214490B60104B1B68134363600023C5
:10563000236002E0002600E0002600F0E3FE16F002
:10564000070F0CD04FF0500383F31188BFF36F8F17
:10565000BFF34F8FFEE70026EFE70026EDE7304669
:1056600070BD00BF980B00209C170020A0170020E1
:10567000A8170020A417002080B338B50446A0F175
:10568000080550F8043C164A1268134208D14FF03E
:10569000500383F31188BFF36F8FBFF34F8FFEE783
:1056A00050F8081C41B14FF0500383F31188BFF349
:1056B0006F8FBFF34F8FFEE723EA020340F8043CED
:1056C00000F006FE54F8041C064A13680B441360ED
:1056D0002846FFF729FF00F095FE38BD704700BF50
:1056E0009C170020A017002010B50446FFF7D2FD3C
:1056F000A26BE36B9A4204D00024FFF7EDFD204635
:1057000010BD0124F9E710B50446FFF7C3FDA36BF4
:1057100023B90124FFF7E0FD204610BD0024F9E77E
:1057200070B504461546866B026C5AB903681BB106
:1057300000200136A66370BD406801F02DF80023FB
:105740006360F6E76DB98068FBF778F8226CA368B0
:105750001344A3606268934219D32368A360284668
:10576000E7E7C068FBF76AF8226C5142E3689B1ACE
:10577000E3602268934202D263680B44E360022D27
:1057800001D00020D5E726B1013E0020D1E7284610
:10579000CFE70020CDE708B50346026C62B10846AA
:1057A000D9681144D960D3F804C0614501D31968A0
:1057B000D960D968FBF742F808BD38B50546FFF750
:1057C00069FD95F8454064B201E0013C64B2002CEB
:1057D0000ADD6B6A43B105F1240000F033FF0028B5
:1057E000F3D000F0C3FFF0E7FF2385F84530FFF763
:1057F00073FDFFF74FFD95F8444064B201E0013CB2
:1058000064B2002C0ADD2B6943B105F1100000F0F1
:1058100019FF0028F3D000F0A9FFF0E7FF2385F877
:105820004430FFF759FD38BD38B5E0B10D460446A8
:10583000FFF730FD2368E26B216C01FB02306060F2
:105840000020A063A360013A02FB0133E360FF2361
:1058500084F8443084F84530FDB9236963B9FFF713
:105860003BFD012038BD4FF0500383F31188BFF397
:105870006F8FBFF34F8FFEE704F1100000F0E2FEE0
:105880000028ECD04FF0E0234FF08052C3F8042DF5
:10589000BFF34F8FBFF36F8FE1E704F11000FFF705
:1058A0005DFC04F12400FFF759FCD8E738B51D462C
:1058B000049C0B4649B92460E0632364012120461F
:1058C000FFF7B2FF84F84C5038BD2260F4E740B9CE
:1058D0004FF0500383F31188BFF36F8FBFF34F8FE7
:1058E000FEE710B584B01C46844653B192B189B925
:1058F0004FF0500383F31188BFF36F8FBFF34F8FC7
:10590000FEE74FF0500383F31188BFF36F8FBFF3AF
:105910004F8FFEE76AB150230393039B502B13D0A4
:105920004FF0500383F31188BFF36F8FBFF34F8F96
:10593000FEE70029EFD04FF0500383F31188BFF347
:105940006F8FBFF34F8FFEE7012384F8463000943A
:105950009DF818306046FFF7A9FF204604B010BD3F
:1059600040B94FF0500383F31188BFF36F8FBFF33B
:105970004F8FFEE7F0B583B00C4615460746A1B140
:1059800001FB00F05030FFF7FFFD064650B1002349
:1059900080F8463000902B4600F1500221463846F0
:1059A000FFF784FF304603B0F0BD0846EAE7F0B5E4
:1059B00085B0019288B10F461D460446B1B1022D53
:1059C00020D1E36B012B1DD04FF0500383F31188DE
:1059D000BFF36F8FBFF34F8FFEE74FF0500383F39A
:1059E0001188BFF36F8FBFF34F8FFEE7036C002B5F
:1059F000E5D04FF0500383F31188BFF36F8FBFF3EF
:105A00004F8FFEE700F0B8FE064658B9019B002B09
:105A100048D04FF0500383F31188BFF36F8FBFF36B
:105A20004F8FFEE700263DE02A4639462046FFF725
:105A300077FE636A7BB948B14FF0E0234FF08052A4
:105A4000C3F8042DBFF34F8FBFF36F8FFFF744FCF4
:105A5000012005B0F0BD04F1240000F0F3FD0028A2
:105A6000F4D04FF0E0234FF08052C3F8042DBFF381
:105A70004F8FBFF36F8FE9E7FFF72EFC0020E8E7B9
:105A800002A800F025FE012619E0002384F8443026
:105A900021E0002384F8453023E02046FFF78DFE07
:105AA00000F0B0FCFFF7F6FBA26BE36B9A42BBD3AE
:105AB000022DB9D0019B002BDED0002EE0D0FFF7E5
:105AC0000BFC00F005FCFFF7E5FB94F8442052B214
:105AD000B2F1FF3FD9D094F8452052B2B2F1FF3F66
